{
	"MultiSend.sol": {
		"MultiSend": {
			"abi": [
				{
					"inputs": [],
					"stateMutability": "nonpayable",
					"type": "constructor"
				},
				{
					"inputs": [],
					"name": "AccessControlBadConfirmation",
					"type": "error"
				},
				{
					"inputs": [
						{
							"internalType": "address",
							"name": "account",
							"type": "address"
						},
						{
							"internalType": "bytes32",
							"name": "neededRole",
							"type": "bytes32"
						}
					],
					"name": "AccessControlUnauthorizedAccount",
					"type": "error"
				},
				{
					"anonymous": false,
					"inputs": [
						{
							"indexed": true,
							"internalType": "bytes32",
							"name": "role",
							"type": "bytes32"
						},
						{
							"indexed": true,
							"internalType": "bytes32",
							"name": "previousAdminRole",
							"type": "bytes32"
						},
						{
							"indexed": true,
							"internalType": "bytes32",
							"name": "newAdminRole",
							"type": "bytes32"
						}
					],
					"name": "RoleAdminChanged",
					"type": "event"
				},
				{
					"anonymous": false,
					"inputs": [
						{
							"indexed": true,
							"internalType": "bytes32",
							"name": "role",
							"type": "bytes32"
						},
						{
							"indexed": true,
							"internalType": "address",
							"name": "account",
							"type": "address"
						},
						{
							"indexed": true,
							"internalType": "address",
							"name": "sender",
							"type": "address"
						}
					],
					"name": "RoleGranted",
					"type": "event"
				},
				{
					"anonymous": false,
					"inputs": [
						{
							"indexed": true,
							"internalType": "bytes32",
							"name": "role",
							"type": "bytes32"
						},
						{
							"indexed": true,
							"internalType": "address",
							"name": "account",
							"type": "address"
						},
						{
							"indexed": true,
							"internalType": "address",
							"name": "sender",
							"type": "address"
						}
					],
					"name": "RoleRevoked",
					"type": "event"
				},
				{
					"inputs": [],
					"name": "Default_Admin_Role",
					"outputs": [
						{
							"internalType": "bytes32",
							"name": "",
							"type": "bytes32"
						}
					],
					"stateMutability": "view",
					"type": "function"
				},
				{
					"inputs": [
						{
							"internalType": "uint256",
							"name": "",
							"type": "uint256"
						}
					],
					"name": "_emplist",
					"outputs": [
						{
							"internalType": "address payable",
							"name": "",
							"type": "address"
						}
					],
					"stateMutability": "view",
					"type": "function"
				},
				{
					"inputs": [
						{
							"internalType": "bytes32",
							"name": "role",
							"type": "bytes32"
						},
						{
							"internalType": "bytes32",
							"name": "adminRole",
							"type": "bytes32"
						}
					],
					"name": "_setRoleAdmin",
					"outputs": [],
					"stateMutability": "nonpayable",
					"type": "function"
				},
				{
					"inputs": [
						{
							"internalType": "bytes32",
							"name": "role",
							"type": "bytes32"
						},
						{
							"internalType": "string",
							"name": "name",
							"type": "string"
						}
					],
					"name": "addEmployee",
					"outputs": [],
					"stateMutability": "nonpayable",
					"type": "function"
				},
				{
					"inputs": [
						{
							"internalType": "string",
							"name": "",
							"type": "string"
						}
					],
					"name": "addrs",
					"outputs": [
						{
							"internalType": "address payable",
							"name": "",
							"type": "address"
						}
					],
					"stateMutability": "view",
					"type": "function"
				},
				{
					"inputs": [
						{
							"internalType": "string",
							"name": "name",
							"type": "string"
						}
					],
					"name": "addyourdata",
					"outputs": [],
					"stateMutability": "nonpayable",
					"type": "function"
				},
				{
					"inputs": [],
					"name": "charge",
					"outputs": [],
					"stateMutability": "payable",
					"type": "function"
				},
				{
					"inputs": [],
					"name": "engineer",
					"outputs": [
						{
							"internalType": "bytes32",
							"name": "",
							"type": "bytes32"
						}
					],
					"stateMutability": "view",
					"type": "function"
				},
				{
					"inputs": [
						{
							"internalType": "bytes32",
							"name": "role",
							"type": "bytes32"
						}
					],
					"name": "getRoleAdmin",
					"outputs": [
						{
							"internalType": "bytes32",
							"name": "",
							"type": "bytes32"
						}
					],
					"stateMutability": "view",
					"type": "function"
				},
				{
					"inputs": [
						{
							"internalType": "bytes32",
							"name": "role",
							"type": "bytes32"
						},
						{
							"internalType": "address",
							"name": "account",
							"type": "address"
						}
					],
					"name": "grantRole",
					"outputs": [],
					"stateMutability": "nonpayable",
					"type": "function"
				},
				{
					"inputs": [
						{
							"internalType": "bytes32",
							"name": "role",
							"type": "bytes32"
						},
						{
							"internalType": "address",
							"name": "account",
							"type": "address"
						}
					],
					"name": "hasRole",
					"outputs": [
						{
							"internalType": "bool",
							"name": "",
							"type": "bool"
						}
					],
					"stateMutability": "view",
					"type": "function"
				},
				{
					"inputs": [
						{
							"internalType": "address",
							"name": "",
							"type": "address"
						}
					],
					"name": "map",
					"outputs": [
						{
							"internalType": "uint256",
							"name": "index",
							"type": "uint256"
						},
						{
							"internalType": "bytes32",
							"name": "role",
							"type": "bytes32"
						}
					],
					"stateMutability": "view",
					"type": "function"
				},
				{
					"inputs": [
						{
							"internalType": "bytes32",
							"name": "role",
							"type": "bytes32"
						},
						{
							"internalType": "string",
							"name": "name",
							"type": "string"
						}
					],
					"name": "removeEmployee",
					"outputs": [],
					"stateMutability": "nonpayable",
					"type": "function"
				},
				{
					"inputs": [
						{
							"internalType": "bytes32",
							"name": "role",
							"type": "bytes32"
						},
						{
							"internalType": "address",
							"name": "callerConfirmation",
							"type": "address"
						}
					],
					"name": "renounceRole",
					"outputs": [],
					"stateMutability": "nonpayable",
					"type": "function"
				},
				{
					"inputs": [
						{
							"internalType": "bytes32",
							"name": "role",
							"type": "bytes32"
						},
						{
							"internalType": "address",
							"name": "account",
							"type": "address"
						}
					],
					"name": "revokeRole",
					"outputs": [],
					"stateMutability": "nonpayable",
					"type": "function"
				},
				{
					"inputs": [
						{
							"internalType": "bytes32",
							"name": "role",
							"type": "bytes32"
						}
					],
					"name": "roleArray",
					"outputs": [
						{
							"internalType": "address payable[]",
							"name": "",
							"type": "address[]"
						}
					],
					"stateMutability": "view",
					"type": "function"
				},
				{
					"inputs": [],
					"name": "worker",
					"outputs": [
						{
							"internalType": "bytes32",
							"name": "",
							"type": "bytes32"
						}
					],
					"stateMutability": "view",
					"type": "function"
				}
			],
			"devdoc": {
				"kind": "dev",
				"methods": {},
				"version": 1
			},
			"evm": {
				"assembly": "    /* \"MultiSend.sol\":124:4196  contract MultiSend is context,AccessControl{... */\n  mstore(0x40, 0x80)\n    /* \"MultiSend.sol\":845:1129  constructor() {... */\n  callvalue\n  dup1\n  iszero\n  tag_1\n  jumpi\n  0x00\n  dup1\n  revert\ntag_1:\n  pop\n    /* \"MultiSend.sol\":878:890  _msgSender() */\n  tag_4\n    /* \"MultiSend.sol\":878:888  _msgSender */\n  shl(0x20, tag_5)\n    /* \"MultiSend.sol\":878:890  _msgSender() */\n  0x20\n  shr\n  jump\t// in\ntag_4:\n    /* \"MultiSend.sol\":870:875  owner */\n  0x02\n  0x00\n    /* \"MultiSend.sol\":870:890  owner = _msgSender() */\n  0x0100\n  exp\n  dup2\n  sload\n  dup2\n  0xffffffffffffffffffffffffffffffffffffffff\n  mul\n  not\n  and\n  swap1\n  dup4\n  0xffffffffffffffffffffffffffffffffffffffff\n  and\n  mul\n  or\n  swap1\n  sstore\n  pop\n    /* \"MultiSend.sol\":901:945  _setupRole(Default_Admin_Role, _msgSender()) */\n  tag_6\n    /* \"AccessControl.sol\":392:396  0x00 */\n  0x00\n    /* \"MultiSend.sol\":912:930  Default_Admin_Role */\n  dup1\n  shl\n    /* \"MultiSend.sol\":932:944  _msgSender() */\n  tag_7\n    /* \"MultiSend.sol\":932:942  _msgSender */\n  shl(0x20, tag_5)\n    /* \"MultiSend.sol\":932:944  _msgSender() */\n  0x20\n  shr\n  jump\t// in\ntag_7:\n    /* \"MultiSend.sol\":901:911  _setupRole */\n  shl(0x20, tag_8)\n    /* \"MultiSend.sol\":901:945  _setupRole(Default_Admin_Role, _msgSender()) */\n  0x20\n  shr\n  jump\t// in\ntag_6:\n    /* \"MultiSend.sol\":956:1011  _setupAdminRole(Default_Admin_Role, Default_Admin_Role) */\n  tag_9\n    /* \"AccessControl.sol\":392:396  0x00 */\n  0x00\n    /* \"MultiSend.sol\":972:990  Default_Admin_Role */\n  dup1\n  shl\n    /* \"AccessControl.sol\":392:396  0x00 */\n  0x00\n    /* \"MultiSend.sol\":992:1010  Default_Admin_Role */\n  dup1\n  shl\n    /* \"MultiSend.sol\":956:971  _setupAdminRole */\n  shl(0x20, tag_10)\n    /* \"MultiSend.sol\":956:1011  _setupAdminRole(Default_Admin_Role, Default_Admin_Role) */\n  0x20\n  shr\n  jump\t// in\ntag_9:\n    /* \"MultiSend.sol\":1022:1065  _setupAdminRole(worker, Default_Admin_Role) */\n  tag_11\n    /* \"MultiSend.sol\":705:724  keccak256(\"worker\") */\n  0xfbdd29218e0fd410aa4914ea600f6e75b12c2b3d0a124cf98105f27e68e78f14\n    /* \"AccessControl.sol\":392:396  0x00 */\n  0x00\n    /* \"MultiSend.sol\":1046:1064  Default_Admin_Role */\n  dup1\n  shl\n    /* \"MultiSend.sol\":1022:1037  _setupAdminRole */\n  shl(0x20, tag_10)\n    /* \"MultiSend.sol\":1022:1065  _setupAdminRole(worker, Default_Admin_Role) */\n  0x20\n  shr\n  jump\t// in\ntag_11:\n    /* \"MultiSend.sol\":1076:1121  _setupAdminRole(engineer, Default_Admin_Role) */\n  tag_12\n    /* \"MultiSend.sol\":766:787  keccak256(\"engineer\") */\n  0xb15816d06d2f312e69ceda9d92d111fbaaa18ddc93327dbb79cf2c4c8829d99b\n    /* \"AccessControl.sol\":392:396  0x00 */\n  0x00\n    /* \"MultiSend.sol\":1102:1120  Default_Admin_Role */\n  dup1\n  shl\n    /* \"MultiSend.sol\":1076:1091  _setupAdminRole */\n  shl(0x20, tag_10)\n    /* \"MultiSend.sol\":1076:1121  _setupAdminRole(engineer, Default_Admin_Role) */\n  0x20\n  shr\n  jump\t// in\ntag_12:\n    /* \"MultiSend.sol\":124:4196  contract MultiSend is context,AccessControl{... */\n  jump(tag_13)\n    /* \"Context.sol\":99:196  function _msgSender() internal view virtual returns(address) {... */\ntag_5:\n    /* \"Context.sol\":151:158  address */\n  0x00\n    /* \"Context.sol\":178:188  msg.sender */\n  caller\n    /* \"Context.sol\":171:188  return msg.sender */\n  swap1\n  pop\n    /* \"Context.sol\":99:196  function _msgSender() internal view virtual returns(address) {... */\n  swap1\n  jump\t// out\n    /* \"AccessControl.sol\":494:673  function _setupRole(bytes32 role, address account) internal virtual {... */\ntag_8:\n    /* \"AccessControl.sol\":605:609  true */\n  0x01\n    /* \"AccessControl.sol\":573:579  _roles */\n  0x00\n    /* \"AccessControl.sol\":573:585  _roles[role] */\n  dup1\n    /* \"AccessControl.sol\":580:584  role */\n  dup5\n    /* \"AccessControl.sol\":573:585  _roles[role] */\n  dup2\n  mstore\n  0x20\n  add\n  swap1\n  dup2\n  mstore\n  0x20\n  add\n  0x00\n  keccak256\n    /* \"AccessControl.sol\":573:593  _roles[role].members */\n  0x00\n  add\n    /* \"AccessControl.sol\":573:602  _roles[role].members[account] */\n  0x00\n    /* \"AccessControl.sol\":594:601  account */\n  dup4\n    /* \"AccessControl.sol\":573:602  _roles[role].members[account] */\n  0xffffffffffffffffffffffffffffffffffffffff\n  and\n  0xffffffffffffffffffffffffffffffffffffffff\n  and\n  dup2\n  mstore\n  0x20\n  add\n  swap1\n  dup2\n  mstore\n  0x20\n  add\n  0x00\n  keccak256\n  0x00\n    /* \"AccessControl.sol\":573:609  _roles[role].members[account] = true */\n  0x0100\n  exp\n  dup2\n  sload\n  dup2\n  0xff\n  mul\n  not\n  and\n  swap1\n  dup4\n  iszero\n  iszero\n  mul\n  or\n  swap1\n  sstore\n  pop\n    /* \"AccessControl.sol\":652:664  _msgSender() */\n  tag_16\n    /* \"AccessControl.sol\":652:662  _msgSender */\n  shl(0x20, tag_5)\n    /* \"AccessControl.sol\":652:664  _msgSender() */\n  0x20\n  shr\n  jump\t// in\ntag_16:\n    /* \"AccessControl.sol\":625:665  RoleGranted(role, account, _msgSender()) */\n  0xffffffffffffffffffffffffffffffffffffffff\n  and\n    /* \"AccessControl.sol\":643:650  account */\n  dup2\n    /* \"AccessControl.sol\":625:665  RoleGranted(role, account, _msgSender()) */\n  0xffffffffffffffffffffffffffffffffffffffff\n  and\n    /* \"AccessControl.sol\":637:641  role */\n  dup4\n    /* \"AccessControl.sol\":625:665  RoleGranted(role, account, _msgSender()) */\n  0x2f8788117e7eff1d82e926ec794901d17c78024a50270940304540a733656f0d\n  mload(0x40)\n  mload(0x40)\n  dup1\n  swap2\n  sub\n  swap1\n  log4\n    /* \"AccessControl.sol\":494:673  function _setupRole(bytes32 role, address account) internal virtual {... */\n  pop\n  pop\n  jump\t// out\n    /* \"AccessControl.sol\":679:806  function _setupAdminRole(bytes32 role,bytes32 adminrole) internal virtual {... */\ntag_10:\n    /* \"AccessControl.sol\":789:798  adminrole */\n  dup1\n    /* \"AccessControl.sol\":764:770  _roles */\n  0x00\n    /* \"AccessControl.sol\":764:776  _roles[role] */\n  dup1\n    /* \"AccessControl.sol\":771:775  role */\n  dup5\n    /* \"AccessControl.sol\":764:776  _roles[role] */\n  dup2\n  mstore\n  0x20\n  add\n  swap1\n  dup2\n  mstore\n  0x20\n  add\n  0x00\n  keccak256\n    /* \"AccessControl.sol\":764:786  _roles[role].adminRole */\n  0x01\n  add\n    /* \"AccessControl.sol\":764:798  _roles[role].adminRole = adminrole */\n  dup2\n  swap1\n  sstore\n  pop\n    /* \"AccessControl.sol\":679:806  function _setupAdminRole(bytes32 role,bytes32 adminrole) internal virtual {... */\n  pop\n  pop\n  jump\t// out\n    /* \"MultiSend.sol\":124:4196  contract MultiSend is context,AccessControl{... */\ntag_13:\n  dataSize(sub_0)\n  dup1\n  dataOffset(sub_0)\n  0x00\n  codecopy\n  0x00\n  return\nstop\n\nsub_0: assembly {\n        /* \"MultiSend.sol\":124:4196  contract MultiSend is context,AccessControl{... */\n      mstore(0x40, 0x80)\n      jumpi(tag_1, lt(calldatasize, 0x04))\n      shr(0xe0, calldataload(0x00))\n      dup1\n      0x55161913\n      gt\n      tag_19\n      jumpi\n      dup1\n      0xb721ef6e\n      gt\n      tag_20\n      jumpi\n      dup1\n      0xb721ef6e\n      eq\n      tag_14\n      jumpi\n      dup1\n      0xd547741f\n      eq\n      tag_15\n      jumpi\n      dup1\n      0xe9e25ec2\n      eq\n      tag_16\n      jumpi\n      dup1\n      0xfbde538e\n      eq\n      tag_17\n      jumpi\n      dup1\n      0xffd4ba40\n      eq\n      tag_18\n      jumpi\n      jump(tag_1)\n    tag_20:\n      dup1\n      0x55161913\n      eq\n      tag_10\n      jumpi\n      dup1\n      0x603a552e\n      eq\n      tag_11\n      jumpi\n      dup1\n      0x7612997d\n      eq\n      tag_12\n      jumpi\n      dup1\n      0x91d14854\n      eq\n      tag_13\n      jumpi\n      jump(tag_1)\n    tag_19:\n      dup1\n      0x2f2ff15d\n      gt\n      tag_21\n      jumpi\n      dup1\n      0x2f2ff15d\n      eq\n      tag_6\n      jumpi\n      dup1\n      0x36568abe\n      eq\n      tag_7\n      jumpi\n      dup1\n      0x3dccf38c\n      eq\n      tag_8\n      jumpi\n      dup1\n      0x4d547ada\n      eq\n      tag_9\n      jumpi\n      jump(tag_1)\n    tag_21:\n      dup1\n      0x0ff9ebbe\n      eq\n      tag_2\n      jumpi\n      dup1\n      0x154be3b2\n      eq\n      tag_3\n      jumpi\n      dup1\n      0x248a9ca3\n      eq\n      tag_4\n      jumpi\n      dup1\n      0x2cc2548f\n      eq\n      tag_5\n      jumpi\n    tag_1:\n      0x00\n      dup1\n      revert\n        /* \"MultiSend.sol\":2092:2817  function removeEmployee (bytes32 role ,string memory name) public onlyRole(getRoleAdmin(role)) {... */\n    tag_2:\n      callvalue\n      dup1\n      iszero\n      tag_22\n      jumpi\n      0x00\n      dup1\n      revert\n    tag_22:\n      pop\n      tag_23\n      0x04\n      dup1\n      calldatasize\n      sub\n      dup2\n      add\n      swap1\n      tag_24\n      swap2\n      swap1\n      tag_25\n      jump\t// in\n    tag_24:\n      tag_26\n      jump\t// in\n    tag_23:\n      stop\n        /* \"MultiSend.sol\":1529:1974  function addEmployee(bytes32 role, string memory name) public onlyRole(getRoleAdmin(role)){... */\n    tag_3:\n      callvalue\n      dup1\n      iszero\n      tag_27\n      jumpi\n      0x00\n      dup1\n      revert\n    tag_27:\n      pop\n      tag_28\n      0x04\n      dup1\n      calldatasize\n      sub\n      dup2\n      add\n      swap1\n      tag_29\n      swap2\n      swap1\n      tag_25\n      jump\t// in\n    tag_29:\n      tag_30\n      jump\t// in\n    tag_28:\n      stop\n        /* \"AccessControl.sol\":1526:1646  function getRoleAdmin(bytes32 role) public view virtual returns(bytes32){... */\n    tag_4:\n      callvalue\n      dup1\n      iszero\n      tag_31\n      jumpi\n      0x00\n      dup1\n      revert\n    tag_31:\n      pop\n      tag_32\n      0x04\n      dup1\n      calldatasize\n      sub\n      dup2\n      add\n      swap1\n      tag_33\n      swap2\n      swap1\n      tag_34\n      jump\t// in\n    tag_33:\n      tag_35\n      jump\t// in\n    tag_32:\n      mload(0x40)\n      tag_36\n      swap2\n      swap1\n      tag_37\n      jump\t// in\n    tag_36:\n      mload(0x40)\n      dup1\n      swap2\n      sub\n      swap1\n      return\n        /* \"MultiSend.sol\":421:469  mapping (string => address payable) public addrs */\n    tag_5:\n      callvalue\n      dup1\n      iszero\n      tag_38\n      jumpi\n      0x00\n      dup1\n      revert\n    tag_38:\n      pop\n      tag_39\n      0x04\n      dup1\n      calldatasize\n      sub\n      dup2\n      add\n      swap1\n      tag_40\n      swap2\n      swap1\n      tag_41\n      jump\t// in\n    tag_40:\n      tag_42\n      jump\t// in\n    tag_39:\n      mload(0x40)\n      tag_43\n      swap2\n      swap1\n      tag_44\n      jump\t// in\n    tag_43:\n      mload(0x40)\n      dup1\n      swap2\n      sub\n      swap1\n      return\n        /* \"AccessControl.sol\":1719:1855  function grantRole(bytes32 role,address account) public virtual onlyRole(getRoleAdmin(role)) {... */\n    tag_6:\n      callvalue\n      dup1\n      iszero\n      tag_45\n      jumpi\n      0x00\n      dup1\n      revert\n    tag_45:\n      pop\n      tag_46\n      0x04\n      dup1\n      calldatasize\n      sub\n      dup2\n      add\n      swap1\n      tag_47\n      swap2\n      swap1\n      tag_48\n      jump\t// in\n    tag_47:\n      tag_49\n      jump\t// in\n    tag_46:\n      stop\n        /* \"AccessControl.sol\":1921:2167  function renounceRole(bytes32 role,address callerConfirmation) public virtual {... */\n    tag_7:\n      callvalue\n      dup1\n      iszero\n      tag_50\n      jumpi\n      0x00\n      dup1\n      revert\n    tag_50:\n      pop\n      tag_51\n      0x04\n      dup1\n      calldatasize\n      sub\n      dup2\n      add\n      swap1\n      tag_52\n      swap2\n      swap1\n      tag_48\n      jump\t// in\n    tag_52:\n      tag_53\n      jump\t// in\n    tag_51:\n      stop\n        /* \"MultiSend.sol\":336:370  address payable [] public _emplist */\n    tag_8:\n      callvalue\n      dup1\n      iszero\n      tag_54\n      jumpi\n      0x00\n      dup1\n      revert\n    tag_54:\n      pop\n      tag_55\n      0x04\n      dup1\n      calldatasize\n      sub\n      dup2\n      add\n      swap1\n      tag_56\n      swap2\n      swap1\n      tag_57\n      jump\t// in\n    tag_56:\n      tag_58\n      jump\t// in\n    tag_55:\n      mload(0x40)\n      tag_59\n      swap2\n      swap1\n      tag_44\n      jump\t// in\n    tag_59:\n      mload(0x40)\n      dup1\n      swap2\n      sub\n      swap1\n      return\n        /* \"MultiSend.sol\":672:724  bytes32 constant public worker = keccak256(\"worker\") */\n    tag_9:\n      callvalue\n      dup1\n      iszero\n      tag_60\n      jumpi\n      0x00\n      dup1\n      revert\n    tag_60:\n      pop\n      tag_61\n      tag_62\n      jump\t// in\n    tag_61:\n      mload(0x40)\n      tag_63\n      swap2\n      swap1\n      tag_37\n      jump\t// in\n    tag_63:\n      mload(0x40)\n      dup1\n      swap2\n      sub\n      swap1\n      return\n        /* \"MultiSend.sol\":2906:2996  function charge() public payable onlyAdmin {... */\n    tag_10:\n      tag_64\n      tag_65\n      jump\t// in\n    tag_64:\n      stop\n        /* \"MultiSend.sol\":731:787  bytes32 constant public engineer = keccak256(\"engineer\") */\n    tag_11:\n      callvalue\n      dup1\n      iszero\n      tag_66\n      jumpi\n      0x00\n      dup1\n      revert\n    tag_66:\n      pop\n      tag_67\n      tag_68\n      jump\t// in\n    tag_67:\n      mload(0x40)\n      tag_69\n      swap2\n      swap1\n      tag_37\n      jump\t// in\n    tag_69:\n      mload(0x40)\n      dup1\n      swap2\n      sub\n      swap1\n      return\n        /* \"AccessControl.sol\":2853:3102  function _setRoleAdmin(bytes32 role, bytes32 adminRole) public virtual {... */\n    tag_12:\n      callvalue\n      dup1\n      iszero\n      tag_70\n      jumpi\n      0x00\n      dup1\n      revert\n    tag_70:\n      pop\n      tag_71\n      0x04\n      dup1\n      calldatasize\n      sub\n      dup2\n      add\n      swap1\n      tag_72\n      swap2\n      swap1\n      tag_73\n      jump\t// in\n    tag_72:\n      tag_74\n      jump\t// in\n    tag_71:\n      stop\n        /* \"AccessControl.sol\":1344:1480  function hasRole(bytes32 role,address account) public view virtual returns(bool) {... */\n    tag_13:\n      callvalue\n      dup1\n      iszero\n      tag_75\n      jumpi\n      0x00\n      dup1\n      revert\n    tag_75:\n      pop\n      tag_76\n      0x04\n      dup1\n      calldatasize\n      sub\n      dup2\n      add\n      swap1\n      tag_77\n      swap2\n      swap1\n      tag_48\n      jump\t// in\n    tag_77:\n      tag_78\n      jump\t// in\n    tag_76:\n      mload(0x40)\n      tag_79\n      swap2\n      swap1\n      tag_80\n      jump\t// in\n    tag_79:\n      mload(0x40)\n      dup1\n      swap2\n      sub\n      swap1\n      return\n        /* \"MultiSend.sol\":377:413  mapping (address => Data) public map */\n    tag_14:\n      callvalue\n      dup1\n      iszero\n      tag_81\n      jumpi\n      0x00\n      dup1\n      revert\n    tag_81:\n      pop\n      tag_82\n      0x04\n      dup1\n      calldatasize\n      sub\n      dup2\n      add\n      swap1\n      tag_83\n      swap2\n      swap1\n      tag_84\n      jump\t// in\n    tag_83:\n      tag_85\n      jump\t// in\n    tag_82:\n      mload(0x40)\n      tag_86\n      swap3\n      swap2\n      swap1\n      tag_87\n      jump\t// in\n    tag_86:\n      mload(0x40)\n      dup1\n      swap2\n      sub\n      swap1\n      return\n        /* \"AccessControl.sol\":2220:2358  function revokeRole(bytes32 role,address account) public virtual onlyRole(getRoleAdmin(role)) {... */\n    tag_15:\n      callvalue\n      dup1\n      iszero\n      tag_88\n      jumpi\n      0x00\n      dup1\n      revert\n    tag_88:\n      pop\n      tag_89\n      0x04\n      dup1\n      calldatasize\n      sub\n      dup2\n      add\n      swap1\n      tag_90\n      swap2\n      swap1\n      tag_48\n      jump\t// in\n    tag_90:\n      tag_91\n      jump\t// in\n    tag_89:\n      stop\n        /* \"MultiSend.sol\":1328:1430  function addyourdata(string memory name) public {... */\n    tag_16:\n      callvalue\n      dup1\n      iszero\n      tag_92\n      jumpi\n      0x00\n      dup1\n      revert\n    tag_92:\n      pop\n      tag_93\n      0x04\n      dup1\n      calldatasize\n      sub\n      dup2\n      add\n      swap1\n      tag_94\n      swap2\n      swap1\n      tag_41\n      jump\t// in\n    tag_94:\n      tag_95\n      jump\t// in\n    tag_93:\n      stop\n        /* \"AccessControl.sol\":347:396  bytes32 constant public Default_Admin_Role = 0x00 */\n    tag_17:\n      callvalue\n      dup1\n      iszero\n      tag_96\n      jumpi\n      0x00\n      dup1\n      revert\n    tag_96:\n      pop\n      tag_97\n      tag_98\n      jump\t// in\n    tag_97:\n      mload(0x40)\n      tag_99\n      swap2\n      swap1\n      tag_37\n      jump\t// in\n    tag_99:\n      mload(0x40)\n      dup1\n      swap2\n      sub\n      swap1\n      return\n        /* \"MultiSend.sol\":3371:3855  function roleArray(bytes32 role) public view returns(address payable[] memory){... */\n    tag_18:\n      callvalue\n      dup1\n      iszero\n      tag_100\n      jumpi\n      0x00\n      dup1\n      revert\n    tag_100:\n      pop\n      tag_101\n      0x04\n      dup1\n      calldatasize\n      sub\n      dup2\n      add\n      swap1\n      tag_102\n      swap2\n      swap1\n      tag_34\n      jump\t// in\n    tag_102:\n      tag_103\n      jump\t// in\n    tag_101:\n      mload(0x40)\n      tag_104\n      swap2\n      swap1\n      tag_105\n      jump\t// in\n    tag_104:\n      mload(0x40)\n      dup1\n      swap2\n      sub\n      swap1\n      return\n        /* \"MultiSend.sol\":2092:2817  function removeEmployee (bytes32 role ,string memory name) public onlyRole(getRoleAdmin(role)) {... */\n    tag_26:\n        /* \"MultiSend.sol\":2167:2185  getRoleAdmin(role) */\n      tag_106\n        /* \"MultiSend.sol\":2180:2184  role */\n      dup3\n        /* \"MultiSend.sol\":2167:2179  getRoleAdmin */\n      tag_35\n        /* \"MultiSend.sol\":2167:2185  getRoleAdmin(role) */\n      jump\t// in\n    tag_106:\n        /* \"AccessControl.sol\":961:977  _checkRole(role) */\n      tag_108\n        /* \"AccessControl.sol\":972:976  role */\n      dup2\n        /* \"AccessControl.sol\":961:971  _checkRole */\n      tag_109\n        /* \"AccessControl.sol\":961:977  _checkRole(role) */\n      jump\t// in\n    tag_108:\n        /* \"MultiSend.sol\":2198:2221  address payable account */\n      0x00\n        /* \"MultiSend.sol\":2224:2229  addrs */\n      0x05\n        /* \"MultiSend.sol\":2230:2234  name */\n      dup4\n        /* \"MultiSend.sol\":2224:2235  addrs[name] */\n      mload(0x40)\n      tag_111\n      swap2\n      swap1\n      tag_112\n      jump\t// in\n    tag_111:\n      swap1\n      dup2\n      mstore\n      0x20\n      add\n      mload(0x40)\n      dup1\n      swap2\n      sub\n      swap1\n      keccak256\n      0x00\n      swap1\n      sload\n      swap1\n      0x0100\n      exp\n      swap1\n      div\n      0xffffffffffffffffffffffffffffffffffffffff\n      and\n        /* \"MultiSend.sol\":2198:2235  address payable account = addrs[name] */\n      swap1\n      pop\n        /* \"MultiSend.sol\":2246:2263  Data storage data */\n      0x00\n        /* \"MultiSend.sol\":2266:2269  map */\n      0x04\n        /* \"MultiSend.sol\":2266:2278  map[account] */\n      0x00\n        /* \"MultiSend.sol\":2270:2277  account */\n      dup4\n        /* \"MultiSend.sol\":2266:2278  map[account] */\n      0xffffffffffffffffffffffffffffffffffffffff\n      and\n      0xffffffffffffffffffffffffffffffffffffffff\n      and\n      dup2\n      mstore\n      0x20\n      add\n      swap1\n      dup2\n      mstore\n      0x20\n      add\n      0x00\n      keccak256\n        /* \"MultiSend.sol\":2246:2278  Data storage data = map[account] */\n      swap1\n      pop\n        /* \"MultiSend.sol\":2313:2314  0 */\n      0x00\n        /* \"MultiSend.sol\":2299:2303  data */\n      dup2\n        /* \"MultiSend.sol\":2299:2309  data.index */\n      0x00\n      add\n      sload\n        /* \"MultiSend.sol\":2299:2314  data.index != 0 */\n      sub\n        /* \"MultiSend.sol\":2291:2345  require(data.index != 0,\"This account does not exist\") */\n      tag_113\n      jumpi\n      mload(0x40)\n      0x08c379a000000000000000000000000000000000000000000000000000000000\n      dup2\n      mstore\n      0x04\n      add\n      tag_114\n      swap1\n      tag_115\n      jump\t// in\n    tag_114:\n      mload(0x40)\n      dup1\n      swap2\n      sub\n      swap1\n      revert\n    tag_113:\n        /* \"MultiSend.sol\":2358:2384  _revokeRole(role, account) */\n      tag_116\n        /* \"MultiSend.sol\":2370:2374  role */\n      dup6\n        /* \"MultiSend.sol\":2376:2383  account */\n      dup4\n        /* \"MultiSend.sol\":2358:2369  _revokeRole */\n      tag_117\n        /* \"MultiSend.sol\":2358:2384  _revokeRole(role, account) */\n      jump\t// in\n    tag_116:\n        /* \"MultiSend.sol\":2433:2450  uint256 realIndex */\n      0x00\n        /* \"MultiSend.sol\":2464:2465  1 */\n      0x01\n        /* \"MultiSend.sol\":2452:2456  data */\n      dup3\n        /* \"MultiSend.sol\":2452:2462  data.index */\n      0x00\n      add\n      sload\n        /* \"MultiSend.sol\":2452:2465  data.index -1 */\n      tag_118\n      swap2\n      swap1\n      tag_119\n      jump\t// in\n    tag_118:\n        /* \"MultiSend.sol\":2433:2465  uint256 realIndex= data.index -1 */\n      swap1\n      pop\n        /* \"MultiSend.sol\":2476:2499  address payable lastEmp */\n      0x00\n        /* \"MultiSend.sol\":2502:2510  _emplist */\n      0x03\n        /* \"MultiSend.sol\":2528:2529  1 */\n      0x01\n        /* \"MultiSend.sol\":2511:2519  _emplist */\n      0x03\n        /* \"MultiSend.sol\":2511:2526  _emplist.length */\n      dup1\n      sload\n      swap1\n      pop\n        /* \"MultiSend.sol\":2511:2529  _emplist.length -1 */\n      tag_120\n      swap2\n      swap1\n      tag_119\n      jump\t// in\n    tag_120:\n        /* \"MultiSend.sol\":2502:2530  _emplist[_emplist.length -1] */\n      dup2\n      sload\n      dup2\n      lt\n      tag_121\n      jumpi\n      tag_122\n      tag_123\n      jump\t// in\n    tag_122:\n    tag_121:\n      swap1\n      0x00\n      mstore\n      keccak256(0x00, 0x20)\n      add\n      0x00\n      swap1\n      sload\n      swap1\n      0x0100\n      exp\n      swap1\n      div\n      0xffffffffffffffffffffffffffffffffffffffff\n      and\n        /* \"MultiSend.sol\":2476:2530  address payable lastEmp = _emplist[_emplist.length -1] */\n      swap1\n      pop\n        /* \"MultiSend.sol\":2563:2570  lastEmp */\n      dup1\n        /* \"MultiSend.sol\":2541:2549  _emplist */\n      0x03\n        /* \"MultiSend.sol\":2550:2559  realIndex */\n      dup4\n        /* \"MultiSend.sol\":2541:2560  _emplist[realIndex] */\n      dup2\n      sload\n      dup2\n      lt\n      tag_125\n      jumpi\n      tag_126\n      tag_123\n      jump\t// in\n    tag_126:\n    tag_125:\n      swap1\n      0x00\n      mstore\n      keccak256(0x00, 0x20)\n      add\n      0x00\n        /* \"MultiSend.sol\":2541:2570  _emplist[realIndex] = lastEmp */\n      0x0100\n      exp\n      dup2\n      sload\n      dup2\n      0xffffffffffffffffffffffffffffffffffffffff\n      mul\n      not\n      and\n      swap1\n      dup4\n      0xffffffffffffffffffffffffffffffffffffffff\n      and\n      mul\n      or\n      swap1\n      sstore\n      pop\n        /* \"MultiSend.sol\":2643:2647  data */\n      dup3\n        /* \"MultiSend.sol\":2643:2653  data.index */\n      0x00\n      add\n      sload\n        /* \"MultiSend.sol\":2622:2625  map */\n      0x04\n        /* \"MultiSend.sol\":2622:2634  map[lastEmp] */\n      0x00\n        /* \"MultiSend.sol\":2626:2633  lastEmp */\n      dup4\n        /* \"MultiSend.sol\":2622:2634  map[lastEmp] */\n      0xffffffffffffffffffffffffffffffffffffffff\n      and\n      0xffffffffffffffffffffffffffffffffffffffff\n      and\n      dup2\n      mstore\n      0x20\n      add\n      swap1\n      dup2\n      mstore\n      0x20\n      add\n      0x00\n      keccak256\n        /* \"MultiSend.sol\":2622:2640  map[lastEmp].index */\n      0x00\n      add\n        /* \"MultiSend.sol\":2622:2653  map[lastEmp].index = data.index */\n      dup2\n      swap1\n      sstore\n      pop\n        /* \"MultiSend.sol\":2719:2727  _emplist */\n      0x03\n        /* \"MultiSend.sol\":2719:2733  _emplist.pop() */\n      dup1\n      sload\n      dup1\n      tag_128\n      jumpi\n      tag_129\n      tag_130\n      jump\t// in\n    tag_129:\n    tag_128:\n      0x01\n      swap1\n      sub\n      dup2\n      dup2\n      swap1\n      0x00\n      mstore\n      keccak256(0x00, 0x20)\n      add\n      exp(0x0100, 0x00)\n      dup2\n      sload\n      swap1\n      0xffffffffffffffffffffffffffffffffffffffff\n      mul\n      not\n      and\n      swap1\n      sstore\n      swap1\n      sstore\n        /* \"MultiSend.sol\":2808:2809  0 */\n      0x00\n        /* \"MultiSend.sol\":2795:2799  data */\n      dup4\n        /* \"MultiSend.sol\":2795:2805  data.index */\n      0x00\n      add\n        /* \"MultiSend.sol\":2795:2809  data.index = 0 */\n      dup2\n      swap1\n      sstore\n      pop\n        /* \"MultiSend.sol\":2187:2817  {... */\n      pop\n      pop\n      pop\n      pop\n        /* \"MultiSend.sol\":2092:2817  function removeEmployee (bytes32 role ,string memory name) public onlyRole(getRoleAdmin(role)) {... */\n      pop\n      pop\n      pop\n      jump\t// out\n        /* \"MultiSend.sol\":1529:1974  function addEmployee(bytes32 role, string memory name) public onlyRole(getRoleAdmin(role)){... */\n    tag_30:\n        /* \"MultiSend.sol\":1600:1618  getRoleAdmin(role) */\n      tag_132\n        /* \"MultiSend.sol\":1613:1617  role */\n      dup3\n        /* \"MultiSend.sol\":1600:1612  getRoleAdmin */\n      tag_35\n        /* \"MultiSend.sol\":1600:1618  getRoleAdmin(role) */\n      jump\t// in\n    tag_132:\n        /* \"AccessControl.sol\":961:977  _checkRole(role) */\n      tag_134\n        /* \"AccessControl.sol\":972:976  role */\n      dup2\n        /* \"AccessControl.sol\":961:971  _checkRole */\n      tag_109\n        /* \"AccessControl.sol\":961:977  _checkRole(role) */\n      jump\t// in\n    tag_134:\n        /* \"MultiSend.sol\":1630:1653  address payable account */\n      0x00\n        /* \"MultiSend.sol\":1656:1661  addrs */\n      0x05\n        /* \"MultiSend.sol\":1662:1666  name */\n      dup4\n        /* \"MultiSend.sol\":1656:1667  addrs[name] */\n      mload(0x40)\n      tag_136\n      swap2\n      swap1\n      tag_112\n      jump\t// in\n    tag_136:\n      swap1\n      dup2\n      mstore\n      0x20\n      add\n      mload(0x40)\n      dup1\n      swap2\n      sub\n      swap1\n      keccak256\n      0x00\n      swap1\n      sload\n      swap1\n      0x0100\n      exp\n      swap1\n      div\n      0xffffffffffffffffffffffffffffffffffffffff\n      and\n        /* \"MultiSend.sol\":1630:1667  address payable account = addrs[name] */\n      swap1\n      pop\n        /* \"MultiSend.sol\":1678:1695  Data storage data */\n      0x00\n        /* \"MultiSend.sol\":1698:1701  map */\n      0x04\n        /* \"MultiSend.sol\":1698:1710  map[account] */\n      0x00\n        /* \"MultiSend.sol\":1702:1709  account */\n      dup4\n        /* \"MultiSend.sol\":1698:1710  map[account] */\n      0xffffffffffffffffffffffffffffffffffffffff\n      and\n      0xffffffffffffffffffffffffffffffffffffffff\n      and\n      dup2\n      mstore\n      0x20\n      add\n      swap1\n      dup2\n      mstore\n      0x20\n      add\n      0x00\n      keccak256\n        /* \"MultiSend.sol\":1678:1710  Data storage data = map[account] */\n      swap1\n      pop\n        /* \"MultiSend.sol\":1745:1746  0 */\n      0x00\n        /* \"MultiSend.sol\":1731:1735  data */\n      dup2\n        /* \"MultiSend.sol\":1731:1741  data.index */\n      0x00\n      add\n      sload\n        /* \"MultiSend.sol\":1731:1746  data.index == 0 */\n      eq\n        /* \"MultiSend.sol\":1723:1777  require(data.index == 0,\"This account already exists\") */\n      tag_137\n      jumpi\n      mload(0x40)\n      0x08c379a000000000000000000000000000000000000000000000000000000000\n      dup2\n      mstore\n      0x04\n      add\n      tag_138\n      swap1\n      tag_139\n      jump\t// in\n    tag_138:\n      mload(0x40)\n      dup1\n      swap2\n      sub\n      swap1\n      revert\n    tag_137:\n        /* \"MultiSend.sol\":1790:1815  _grantRole(role, account) */\n      tag_140\n        /* \"MultiSend.sol\":1801:1805  role */\n      dup6\n        /* \"MultiSend.sol\":1807:1814  account */\n      dup4\n        /* \"MultiSend.sol\":1790:1800  _grantRole */\n      tag_141\n        /* \"MultiSend.sol\":1790:1815  _grantRole(role, account) */\n      jump\t// in\n    tag_140:\n        /* \"MultiSend.sol\":1838:1842  role */\n      dup5\n        /* \"MultiSend.sol\":1826:1830  data */\n      dup2\n        /* \"MultiSend.sol\":1826:1835  data.role */\n      0x01\n      add\n        /* \"MultiSend.sol\":1826:1842  data.role = role */\n      dup2\n      swap1\n      sstore\n      pop\n        /* \"MultiSend.sol\":1855:1863  _emplist */\n      0x03\n        /* \"MultiSend.sol\":1869:1876  account */\n      dup3\n        /* \"MultiSend.sol\":1855:1877  _emplist.push(account) */\n      swap1\n      dup1\n      0x01\n      dup2\n      sload\n      add\n      dup1\n      dup3\n      sstore\n      dup1\n      swap2\n      pop\n      pop\n      0x01\n      swap1\n      sub\n      swap1\n      0x00\n      mstore\n      keccak256(0x00, 0x20)\n      add\n      0x00\n      swap1\n      swap2\n      swap1\n      swap2\n      swap1\n      swap2\n      0x0100\n      exp\n      dup2\n      sload\n      dup2\n      0xffffffffffffffffffffffffffffffffffffffff\n      mul\n      not\n      and\n      swap1\n      dup4\n      0xffffffffffffffffffffffffffffffffffffffff\n      and\n      mul\n      or\n      swap1\n      sstore\n      pop\n        /* \"MultiSend.sol\":1890:1907  uint256 realIndex */\n      0x00\n        /* \"MultiSend.sol\":1928:1929  1 */\n      0x01\n        /* \"MultiSend.sol\":1910:1918  _emplist */\n      0x03\n        /* \"MultiSend.sol\":1910:1925  _emplist.length */\n      dup1\n      sload\n      swap1\n      pop\n        /* \"MultiSend.sol\":1910:1929  _emplist.length - 1 */\n      tag_143\n      swap2\n      swap1\n      tag_119\n      jump\t// in\n    tag_143:\n        /* \"MultiSend.sol\":1890:1929  uint256 realIndex = _emplist.length - 1 */\n      swap1\n      pop\n        /* \"MultiSend.sol\":1965:1966  1 */\n      0x01\n        /* \"MultiSend.sol\":1953:1962  realIndex */\n      dup2\n        /* \"MultiSend.sol\":1953:1966  realIndex + 1 */\n      tag_144\n      swap2\n      swap1\n      tag_145\n      jump\t// in\n    tag_144:\n        /* \"MultiSend.sol\":1940:1944  data */\n      dup3\n        /* \"MultiSend.sol\":1940:1950  data.index */\n      0x00\n      add\n        /* \"MultiSend.sol\":1940:1966  data.index = realIndex + 1 */\n      dup2\n      swap1\n      sstore\n      pop\n        /* \"MultiSend.sol\":1619:1974  {... */\n      pop\n      pop\n      pop\n        /* \"MultiSend.sol\":1529:1974  function addEmployee(bytes32 role, string memory name) public onlyRole(getRoleAdmin(role)){... */\n      pop\n      pop\n      pop\n      jump\t// out\n        /* \"AccessControl.sol\":1526:1646  function getRoleAdmin(bytes32 role) public view virtual returns(bytes32){... */\n    tag_35:\n        /* \"AccessControl.sol\":1590:1597  bytes32 */\n      0x00\n        /* \"AccessControl.sol\":1616:1622  _roles */\n      dup1\n        /* \"AccessControl.sol\":1616:1628  _roles[role] */\n      0x00\n        /* \"AccessControl.sol\":1623:1627  role */\n      dup4\n        /* \"AccessControl.sol\":1616:1628  _roles[role] */\n      dup2\n      mstore\n      0x20\n      add\n      swap1\n      dup2\n      mstore\n      0x20\n      add\n      0x00\n      keccak256\n        /* \"AccessControl.sol\":1616:1638  _roles[role].adminRole */\n      0x01\n      add\n      sload\n        /* \"AccessControl.sol\":1609:1638  return _roles[role].adminRole */\n      swap1\n      pop\n        /* \"AccessControl.sol\":1526:1646  function getRoleAdmin(bytes32 role) public view virtual returns(bytes32){... */\n      swap2\n      swap1\n      pop\n      jump\t// out\n        /* \"MultiSend.sol\":421:469  mapping (string => address payable) public addrs */\n    tag_42:\n      0x05\n      dup2\n      dup1\n      mload\n      0x20\n      dup2\n      add\n      dup3\n      add\n      dup1\n      mload\n      dup5\n      dup3\n      mstore\n      0x20\n      dup4\n      add\n      0x20\n      dup6\n      add\n      keccak256\n      dup2\n      dup4\n      mstore\n      dup1\n      swap6\n      pop\n      pop\n      pop\n      pop\n      pop\n      pop\n      0x00\n      swap2\n      pop\n      sload\n      swap1\n      0x0100\n      exp\n      swap1\n      div\n      0xffffffffffffffffffffffffffffffffffffffff\n      and\n      dup2\n      jump\t// out\n        /* \"AccessControl.sol\":1719:1855  function grantRole(bytes32 role,address account) public virtual onlyRole(getRoleAdmin(role)) {... */\n    tag_49:\n        /* \"AccessControl.sol\":1792:1810  getRoleAdmin(role) */\n      tag_147\n        /* \"AccessControl.sol\":1805:1809  role */\n      dup3\n        /* \"AccessControl.sol\":1792:1804  getRoleAdmin */\n      tag_35\n        /* \"AccessControl.sol\":1792:1810  getRoleAdmin(role) */\n      jump\t// in\n    tag_147:\n        /* \"AccessControl.sol\":961:977  _checkRole(role) */\n      tag_149\n        /* \"AccessControl.sol\":972:976  role */\n      dup2\n        /* \"AccessControl.sol\":961:971  _checkRole */\n      tag_109\n        /* \"AccessControl.sol\":961:977  _checkRole(role) */\n      jump\t// in\n    tag_149:\n        /* \"AccessControl.sol\":1823:1847  _grantRole(role,account) */\n      tag_151\n        /* \"AccessControl.sol\":1834:1838  role */\n      dup4\n        /* \"AccessControl.sol\":1839:1846  account */\n      dup4\n        /* \"AccessControl.sol\":1823:1833  _grantRole */\n      tag_141\n        /* \"AccessControl.sol\":1823:1847  _grantRole(role,account) */\n      jump\t// in\n    tag_151:\n        /* \"AccessControl.sol\":1719:1855  function grantRole(bytes32 role,address account) public virtual onlyRole(getRoleAdmin(role)) {... */\n      pop\n      pop\n      pop\n      jump\t// out\n        /* \"AccessControl.sol\":1921:2167  function renounceRole(bytes32 role,address callerConfirmation) public virtual {... */\n    tag_53:\n        /* \"AccessControl.sol\":2035:2047  _msgSender() */\n      tag_153\n        /* \"AccessControl.sol\":2035:2045  _msgSender */\n      tag_154\n        /* \"AccessControl.sol\":2035:2047  _msgSender() */\n      jump\t// in\n    tag_153:\n        /* \"AccessControl.sol\":2013:2047  callerConfirmation != _msgSender() */\n      0xffffffffffffffffffffffffffffffffffffffff\n      and\n        /* \"AccessControl.sol\":2013:2031  callerConfirmation */\n      dup2\n        /* \"AccessControl.sol\":2013:2047  callerConfirmation != _msgSender() */\n      0xffffffffffffffffffffffffffffffffffffffff\n      and\n      eq\n        /* \"AccessControl.sol\":2010:2112  if(callerConfirmation != _msgSender()){... */\n      tag_155\n      jumpi\n        /* \"AccessControl.sol\":2070:2100  AccessControlBadConfirmation() */\n      mload(0x40)\n      0x6697b23200000000000000000000000000000000000000000000000000000000\n      dup2\n      mstore\n      0x04\n      add\n      mload(0x40)\n      dup1\n      swap2\n      sub\n      swap1\n      revert\n        /* \"AccessControl.sol\":2010:2112  if(callerConfirmation != _msgSender()){... */\n    tag_155:\n        /* \"AccessControl.sol\":2122:2159  _revokeRole(role, callerConfirmation) */\n      tag_156\n        /* \"AccessControl.sol\":2134:2138  role */\n      dup3\n        /* \"AccessControl.sol\":2140:2158  callerConfirmation */\n      dup3\n        /* \"AccessControl.sol\":2122:2133  _revokeRole */\n      tag_117\n        /* \"AccessControl.sol\":2122:2159  _revokeRole(role, callerConfirmation) */\n      jump\t// in\n    tag_156:\n        /* \"AccessControl.sol\":1921:2167  function renounceRole(bytes32 role,address callerConfirmation) public virtual {... */\n      pop\n      pop\n      jump\t// out\n        /* \"MultiSend.sol\":336:370  address payable [] public _emplist */\n    tag_58:\n      0x03\n      dup2\n      dup2\n      sload\n      dup2\n      lt\n      tag_157\n      jumpi\n      0x00\n      dup1\n      revert\n    tag_157:\n      swap1\n      0x00\n      mstore\n      keccak256(0x00, 0x20)\n      add\n      0x00\n      swap2\n      pop\n      sload\n      swap1\n      0x0100\n      exp\n      swap1\n      div\n      0xffffffffffffffffffffffffffffffffffffffff\n      and\n      dup2\n      jump\t// out\n        /* \"MultiSend.sol\":672:724  bytes32 constant public worker = keccak256(\"worker\") */\n    tag_62:\n        /* \"MultiSend.sol\":705:724  keccak256(\"worker\") */\n      0xfbdd29218e0fd410aa4914ea600f6e75b12c2b3d0a124cf98105f27e68e78f14\n        /* \"MultiSend.sol\":672:724  bytes32 constant public worker = keccak256(\"worker\") */\n      dup2\n      jump\t// out\n        /* \"MultiSend.sol\":2906:2996  function charge() public payable onlyAdmin {... */\n    tag_65:\n        /* \"MultiSend.sol\":532:537  owner */\n      0x02\n      0x00\n      swap1\n      sload\n      swap1\n      0x0100\n      exp\n      swap1\n      div\n      0xffffffffffffffffffffffffffffffffffffffff\n      and\n        /* \"MultiSend.sol\":516:537  _msgSender() == owner */\n      0xffffffffffffffffffffffffffffffffffffffff\n      and\n        /* \"MultiSend.sol\":516:528  _msgSender() */\n      tag_160\n        /* \"MultiSend.sol\":516:526  _msgSender */\n      tag_154\n        /* \"MultiSend.sol\":516:528  _msgSender() */\n      jump\t// in\n    tag_160:\n        /* \"MultiSend.sol\":516:537  _msgSender() == owner */\n      0xffffffffffffffffffffffffffffffffffffffff\n      and\n      eq\n        /* \"MultiSend.sol\":508:554  require(_msgSender() == owner,\"Access Denied\") */\n      tag_161\n      jumpi\n      mload(0x40)\n      0x08c379a000000000000000000000000000000000000000000000000000000000\n      dup2\n      mstore\n      0x04\n      add\n      tag_162\n      swap1\n      tag_163\n      jump\t// in\n    tag_162:\n      mload(0x40)\n      dup1\n      swap2\n      sub\n      swap1\n      revert\n    tag_161:\n        /* \"MultiSend.sol\":2979:2988  msg.value */\n      callvalue\n        /* \"MultiSend.sol\":2960:2975  ContractBalance */\n      0x01\n      0x00\n        /* \"MultiSend.sol\":2960:2988  ContractBalance += msg.value */\n      dup3\n      dup3\n      sload\n      tag_165\n      swap2\n      swap1\n      tag_145\n      jump\t// in\n    tag_165:\n      swap3\n      pop\n      pop\n      dup2\n      swap1\n      sstore\n      pop\n        /* \"MultiSend.sol\":2906:2996  function charge() public payable onlyAdmin {... */\n      jump\t// out\n        /* \"MultiSend.sol\":731:787  bytes32 constant public engineer = keccak256(\"engineer\") */\n    tag_68:\n        /* \"MultiSend.sol\":766:787  keccak256(\"engineer\") */\n      0xb15816d06d2f312e69ceda9d92d111fbaaa18ddc93327dbb79cf2c4c8829d99b\n        /* \"MultiSend.sol\":731:787  bytes32 constant public engineer = keccak256(\"engineer\") */\n      dup2\n      jump\t// out\n        /* \"AccessControl.sol\":2853:3102  function _setRoleAdmin(bytes32 role, bytes32 adminRole) public virtual {... */\n    tag_74:\n        /* \"AccessControl.sol\":2935:2960  bytes32 previousAdminRole */\n      0x00\n        /* \"AccessControl.sol\":2963:2981  getRoleAdmin(role) */\n      tag_167\n        /* \"AccessControl.sol\":2976:2980  role */\n      dup4\n        /* \"AccessControl.sol\":2963:2975  getRoleAdmin */\n      tag_35\n        /* \"AccessControl.sol\":2963:2981  getRoleAdmin(role) */\n      jump\t// in\n    tag_167:\n        /* \"AccessControl.sol\":2935:2981  bytes32 previousAdminRole = getRoleAdmin(role) */\n      swap1\n      pop\n        /* \"AccessControl.sol\":3017:3026  adminRole */\n      dup2\n        /* \"AccessControl.sol\":2992:2998  _roles */\n      0x00\n        /* \"AccessControl.sol\":2992:3004  _roles[role] */\n      dup1\n        /* \"AccessControl.sol\":2999:3003  role */\n      dup6\n        /* \"AccessControl.sol\":2992:3004  _roles[role] */\n      dup2\n      mstore\n      0x20\n      add\n      swap1\n      dup2\n      mstore\n      0x20\n      add\n      0x00\n      keccak256\n        /* \"AccessControl.sol\":2992:3014  _roles[role].adminRole */\n      0x01\n      add\n        /* \"AccessControl.sol\":2992:3026  _roles[role].adminRole = adminRole */\n      dup2\n      swap1\n      sstore\n      pop\n        /* \"AccessControl.sol\":3084:3093  adminRole */\n      dup2\n        /* \"AccessControl.sol\":3065:3082  previousAdminRole */\n      dup2\n        /* \"AccessControl.sol\":3059:3063  role */\n      dup5\n        /* \"AccessControl.sol\":3042:3094  RoleAdminChanged(role, previousAdminRole, adminRole) */\n      0xbd79b86ffe0ab8e8776151514217cd7cacd52c909f66475c3af44e129f0b00ff\n      mload(0x40)\n      mload(0x40)\n      dup1\n      swap2\n      sub\n      swap1\n      log4\n        /* \"AccessControl.sol\":2924:3102  {... */\n      pop\n        /* \"AccessControl.sol\":2853:3102  function _setRoleAdmin(bytes32 role, bytes32 adminRole) public virtual {... */\n      pop\n      pop\n      jump\t// out\n        /* \"AccessControl.sol\":1344:1480  function hasRole(bytes32 role,address account) public view virtual returns(bool) {... */\n    tag_78:\n        /* \"AccessControl.sol\":1419:1423  bool */\n      0x00\n        /* \"AccessControl.sol\":1443:1449  _roles */\n      dup1\n        /* \"AccessControl.sol\":1443:1455  _roles[role] */\n      0x00\n        /* \"AccessControl.sol\":1450:1454  role */\n      dup5\n        /* \"AccessControl.sol\":1443:1455  _roles[role] */\n      dup2\n      mstore\n      0x20\n      add\n      swap1\n      dup2\n      mstore\n      0x20\n      add\n      0x00\n      keccak256\n        /* \"AccessControl.sol\":1443:1463  _roles[role].members */\n      0x00\n      add\n        /* \"AccessControl.sol\":1443:1472  _roles[role].members[account] */\n      0x00\n        /* \"AccessControl.sol\":1464:1471  account */\n      dup4\n        /* \"AccessControl.sol\":1443:1472  _roles[role].members[account] */\n      0xffffffffffffffffffffffffffffffffffffffff\n      and\n      0xffffffffffffffffffffffffffffffffffffffff\n      and\n      dup2\n      mstore\n      0x20\n      add\n      swap1\n      dup2\n      mstore\n      0x20\n      add\n      0x00\n      keccak256\n      0x00\n      swap1\n      sload\n      swap1\n      0x0100\n      exp\n      swap1\n      div\n      0xff\n      and\n        /* \"AccessControl.sol\":1436:1472  return _roles[role].members[account] */\n      swap1\n      pop\n        /* \"AccessControl.sol\":1344:1480  function hasRole(bytes32 role,address account) public view virtual returns(bool) {... */\n      swap3\n      swap2\n      pop\n      pop\n      jump\t// out\n        /* \"MultiSend.sol\":377:413  mapping (address => Data) public map */\n    tag_85:\n      mstore(0x20, 0x04)\n      dup1\n      0x00\n      mstore\n      keccak256(0x00, 0x40)\n      0x00\n      swap2\n      pop\n      swap1\n      pop\n      dup1\n      0x00\n      add\n      sload\n      swap1\n      dup1\n      0x01\n      add\n      sload\n      swap1\n      pop\n      dup3\n      jump\t// out\n        /* \"AccessControl.sol\":2220:2358  function revokeRole(bytes32 role,address account) public virtual onlyRole(getRoleAdmin(role)) {... */\n    tag_91:\n        /* \"AccessControl.sol\":2294:2312  getRoleAdmin(role) */\n      tag_169\n        /* \"AccessControl.sol\":2307:2311  role */\n      dup3\n        /* \"AccessControl.sol\":2294:2306  getRoleAdmin */\n      tag_35\n        /* \"AccessControl.sol\":2294:2312  getRoleAdmin(role) */\n      jump\t// in\n    tag_169:\n        /* \"AccessControl.sol\":961:977  _checkRole(role) */\n      tag_171\n        /* \"AccessControl.sol\":972:976  role */\n      dup2\n        /* \"AccessControl.sol\":961:971  _checkRole */\n      tag_109\n        /* \"AccessControl.sol\":961:977  _checkRole(role) */\n      jump\t// in\n    tag_171:\n        /* \"AccessControl.sol\":2325:2350  _revokeRole(role,account) */\n      tag_173\n        /* \"AccessControl.sol\":2337:2341  role */\n      dup4\n        /* \"AccessControl.sol\":2342:2349  account */\n      dup4\n        /* \"AccessControl.sol\":2325:2336  _revokeRole */\n      tag_117\n        /* \"AccessControl.sol\":2325:2350  _revokeRole(role,account) */\n      jump\t// in\n    tag_173:\n        /* \"AccessControl.sol\":2220:2358  function revokeRole(bytes32 role,address account) public virtual onlyRole(getRoleAdmin(role)) {... */\n      pop\n      pop\n      pop\n      jump\t// out\n        /* \"MultiSend.sol\":1328:1430  function addyourdata(string memory name) public {... */\n    tag_95:\n        /* \"MultiSend.sol\":1409:1421  _msgSender() */\n      tag_175\n        /* \"MultiSend.sol\":1409:1419  _msgSender */\n      tag_154\n        /* \"MultiSend.sol\":1409:1421  _msgSender() */\n      jump\t// in\n    tag_175:\n        /* \"MultiSend.sol\":1387:1392  addrs */\n      0x05\n        /* \"MultiSend.sol\":1393:1397  name */\n      dup3\n        /* \"MultiSend.sol\":1387:1398  addrs[name] */\n      mload(0x40)\n      tag_176\n      swap2\n      swap1\n      tag_112\n      jump\t// in\n    tag_176:\n      swap1\n      dup2\n      mstore\n      0x20\n      add\n      mload(0x40)\n      dup1\n      swap2\n      sub\n      swap1\n      keccak256\n      0x00\n        /* \"MultiSend.sol\":1387:1422  addrs[name] = payable(_msgSender()) */\n      0x0100\n      exp\n      dup2\n      sload\n      dup2\n      0xffffffffffffffffffffffffffffffffffffffff\n      mul\n      not\n      and\n      swap1\n      dup4\n      0xffffffffffffffffffffffffffffffffffffffff\n      and\n      mul\n      or\n      swap1\n      sstore\n      pop\n        /* \"MultiSend.sol\":1328:1430  function addyourdata(string memory name) public {... */\n      pop\n      jump\t// out\n        /* \"AccessControl.sol\":347:396  bytes32 constant public Default_Admin_Role = 0x00 */\n    tag_98:\n        /* \"AccessControl.sol\":392:396  0x00 */\n      0x00\n        /* \"AccessControl.sol\":347:396  bytes32 constant public Default_Admin_Role = 0x00 */\n      dup1\n      shl\n      dup2\n      jump\t// out\n        /* \"MultiSend.sol\":3371:3855  function roleArray(bytes32 role) public view returns(address payable[] memory){... */\n    tag_103:\n        /* \"MultiSend.sol\":3424:3448  address payable[] memory */\n      0x60\n        /* \"MultiSend.sol\":3460:3474  uint256 length */\n      0x00\n        /* \"MultiSend.sol\":3477:3492  countRole(role) */\n      tag_178\n        /* \"MultiSend.sol\":3487:3491  role */\n      dup4\n        /* \"MultiSend.sol\":3477:3486  countRole */\n      tag_179\n        /* \"MultiSend.sol\":3477:3492  countRole(role) */\n      jump\t// in\n    tag_178:\n        /* \"MultiSend.sol\":3460:3492  uint256 length = countRole(role) */\n      swap1\n      pop\n        /* \"MultiSend.sol\":3503:3534  address payable[] memory result */\n      0x00\n        /* \"MultiSend.sol\":3559:3565  length */\n      dup2\n        /* \"MultiSend.sol\":3537:3566  new address payable[](length) */\n      0xffffffffffffffff\n      dup2\n      gt\n      iszero\n      tag_180\n      jumpi\n      tag_181\n      tag_182\n      jump\t// in\n    tag_181:\n    tag_180:\n      mload(0x40)\n      swap1\n      dup1\n      dup3\n      mstore\n      dup1\n      0x20\n      mul\n      0x20\n      add\n      dup3\n      add\n      0x40\n      mstore\n      dup1\n      iszero\n      tag_183\n      jumpi\n      dup2\n      0x20\n      add\n      0x20\n      dup3\n      mul\n      dup1\n      calldatasize\n      dup4\n      calldatacopy\n      dup1\n      dup3\n      add\n      swap2\n      pop\n      pop\n      swap1\n      pop\n    tag_183:\n      pop\n        /* \"MultiSend.sol\":3503:3566  address payable[] memory result = new address payable[](length) */\n      swap1\n      pop\n        /* \"MultiSend.sol\":3584:3593  uint256 i */\n      0x00\n        /* \"MultiSend.sol\":3579:3820  for (uint256 i=0; i<= _emplist.length; i++){... */\n    tag_184:\n        /* \"MultiSend.sol\":3601:3609  _emplist */\n      0x03\n        /* \"MultiSend.sol\":3601:3616  _emplist.length */\n      dup1\n      sload\n      swap1\n      pop\n        /* \"MultiSend.sol\":3597:3598  i */\n      dup2\n        /* \"MultiSend.sol\":3597:3616  i<= _emplist.length */\n      gt\n        /* \"MultiSend.sol\":3579:3820  for (uint256 i=0; i<= _emplist.length; i++){... */\n      tag_185\n      jumpi\n        /* \"MultiSend.sol\":3637:3654  Data storage data */\n      0x00\n        /* \"MultiSend.sol\":3657:3660  map */\n      0x04\n        /* \"MultiSend.sol\":3657:3673  map[_emplist[i]] */\n      0x00\n        /* \"MultiSend.sol\":3661:3669  _emplist */\n      0x03\n        /* \"MultiSend.sol\":3670:3671  i */\n      dup5\n        /* \"MultiSend.sol\":3661:3672  _emplist[i] */\n      dup2\n      sload\n      dup2\n      lt\n      tag_187\n      jumpi\n      tag_188\n      tag_123\n      jump\t// in\n    tag_188:\n    tag_187:\n      swap1\n      0x00\n      mstore\n      keccak256(0x00, 0x20)\n      add\n      0x00\n      swap1\n      sload\n      swap1\n      0x0100\n      exp\n      swap1\n      div\n      0xffffffffffffffffffffffffffffffffffffffff\n      and\n        /* \"MultiSend.sol\":3657:3673  map[_emplist[i]] */\n      0xffffffffffffffffffffffffffffffffffffffff\n      and\n      0xffffffffffffffffffffffffffffffffffffffff\n      and\n      dup2\n      mstore\n      0x20\n      add\n      swap1\n      dup2\n      mstore\n      0x20\n      add\n      0x00\n      keccak256\n        /* \"MultiSend.sol\":3637:3673  Data storage data = map[_emplist[i]] */\n      swap1\n      pop\n        /* \"MultiSend.sol\":3688:3703  bytes32 empRole */\n      0x00\n        /* \"MultiSend.sol\":3706:3710  data */\n      dup2\n        /* \"MultiSend.sol\":3706:3715  data.role */\n      0x01\n      add\n      sload\n        /* \"MultiSend.sol\":3688:3715  bytes32 empRole = data.role */\n      swap1\n      pop\n        /* \"MultiSend.sol\":3746:3750  role */\n      dup7\n        /* \"MultiSend.sol\":3735:3742  empRole */\n      dup2\n        /* \"MultiSend.sol\":3735:3750  empRole == role */\n      sub\n        /* \"MultiSend.sol\":3732:3809  if(empRole == role){... */\n      tag_190\n      jumpi\n        /* \"MultiSend.sol\":3782:3790  _emplist */\n      0x03\n        /* \"MultiSend.sol\":3791:3792  i */\n      dup4\n        /* \"MultiSend.sol\":3782:3793  _emplist[i] */\n      dup2\n      sload\n      dup2\n      lt\n      tag_191\n      jumpi\n      tag_192\n      tag_123\n      jump\t// in\n    tag_192:\n    tag_191:\n      swap1\n      0x00\n      mstore\n      keccak256(0x00, 0x20)\n      add\n      0x00\n      swap1\n      sload\n      swap1\n      0x0100\n      exp\n      swap1\n      div\n      0xffffffffffffffffffffffffffffffffffffffff\n      and\n        /* \"MultiSend.sol\":3770:3776  result */\n      dup5\n        /* \"MultiSend.sol\":3777:3778  i */\n      dup5\n        /* \"MultiSend.sol\":3770:3779  result[i] */\n      dup2\n      mload\n      dup2\n      lt\n      tag_194\n      jumpi\n      tag_195\n      tag_123\n      jump\t// in\n    tag_195:\n    tag_194:\n      0x20\n      mul\n      0x20\n      add\n      add\n        /* \"MultiSend.sol\":3770:3793  result[i] = _emplist[i] */\n      swap1\n      0xffffffffffffffffffffffffffffffffffffffff\n      and\n      swap1\n      dup2\n      0xffffffffffffffffffffffffffffffffffffffff\n      and\n      dup2\n      mstore\n      pop\n      pop\n        /* \"MultiSend.sol\":3732:3809  if(empRole == role){... */\n    tag_190:\n        /* \"MultiSend.sol\":3622:3820  {... */\n      pop\n      pop\n        /* \"MultiSend.sol\":3618:3621  i++ */\n      dup1\n      dup1\n      tag_196\n      swap1\n      tag_197\n      jump\t// in\n    tag_196:\n      swap2\n      pop\n      pop\n        /* \"MultiSend.sol\":3579:3820  for (uint256 i=0; i<= _emplist.length; i++){... */\n      jump(tag_184)\n    tag_185:\n      pop\n        /* \"MultiSend.sol\":3838:3844  result */\n      dup1\n        /* \"MultiSend.sol\":3831:3844  return result */\n      swap3\n      pop\n      pop\n      pop\n        /* \"MultiSend.sol\":3371:3855  function roleArray(bytes32 role) public view returns(address payable[] memory){... */\n      swap2\n      swap1\n      pop\n      jump\t// out\n        /* \"AccessControl.sol\":1003:1099  function _checkRole(bytes32 role) internal view {... */\n    tag_109:\n        /* \"AccessControl.sol\":1062:1091  _checkRole(role,_msgSender()) */\n      tag_199\n        /* \"AccessControl.sol\":1073:1077  role */\n      dup2\n        /* \"AccessControl.sol\":1078:1090  _msgSender() */\n      tag_200\n        /* \"AccessControl.sol\":1078:1088  _msgSender */\n      tag_154\n        /* \"AccessControl.sol\":1078:1090  _msgSender() */\n      jump\t// in\n    tag_200:\n        /* \"AccessControl.sol\":1062:1072  _checkRole */\n      tag_201\n        /* \"AccessControl.sol\":1062:1091  _checkRole(role,_msgSender()) */\n      jump\t// in\n    tag_199:\n        /* \"AccessControl.sol\":1003:1099  function _checkRole(bytes32 role) internal view {... */\n      pop\n      jump\t// out\n        /* \"AccessControl.sol\":2366:2604  function _revokeRole(bytes32 role , address account) internal virtual {... */\n    tag_117:\n        /* \"AccessControl.sol\":2450:2472  hasRole(role, account) */\n      tag_203\n        /* \"AccessControl.sol\":2458:2462  role */\n      dup3\n        /* \"AccessControl.sol\":2464:2471  account */\n      dup3\n        /* \"AccessControl.sol\":2450:2457  hasRole */\n      tag_78\n        /* \"AccessControl.sol\":2450:2472  hasRole(role, account) */\n      jump\t// in\n    tag_203:\n        /* \"AccessControl.sol\":2447:2597  if(hasRole(role, account)){... */\n      iszero\n      tag_204\n      jumpi\n        /* \"AccessControl.sol\":2520:2525  false */\n      0x00\n        /* \"AccessControl.sol\":2488:2494  _roles */\n      dup1\n        /* \"AccessControl.sol\":2488:2500  _roles[role] */\n      0x00\n        /* \"AccessControl.sol\":2495:2499  role */\n      dup5\n        /* \"AccessControl.sol\":2488:2500  _roles[role] */\n      dup2\n      mstore\n      0x20\n      add\n      swap1\n      dup2\n      mstore\n      0x20\n      add\n      0x00\n      keccak256\n        /* \"AccessControl.sol\":2488:2508  _roles[role].members */\n      0x00\n      add\n        /* \"AccessControl.sol\":2488:2517  _roles[role].members[account] */\n      0x00\n        /* \"AccessControl.sol\":2509:2516  account */\n      dup4\n        /* \"AccessControl.sol\":2488:2517  _roles[role].members[account] */\n      0xffffffffffffffffffffffffffffffffffffffff\n      and\n      0xffffffffffffffffffffffffffffffffffffffff\n      and\n      dup2\n      mstore\n      0x20\n      add\n      swap1\n      dup2\n      mstore\n      0x20\n      add\n      0x00\n      keccak256\n      0x00\n        /* \"AccessControl.sol\":2488:2525  _roles[role].members[account] = false */\n      0x0100\n      exp\n      dup2\n      sload\n      dup2\n      0xff\n      mul\n      not\n      and\n      swap1\n      dup4\n      iszero\n      iszero\n      mul\n      or\n      swap1\n      sstore\n      pop\n        /* \"AccessControl.sol\":2572:2584  _msgSender() */\n      tag_205\n        /* \"AccessControl.sol\":2572:2582  _msgSender */\n      tag_154\n        /* \"AccessControl.sol\":2572:2584  _msgSender() */\n      jump\t// in\n    tag_205:\n        /* \"AccessControl.sol\":2545:2585  RoleRevoked(role, account, _msgSender()) */\n      0xffffffffffffffffffffffffffffffffffffffff\n      and\n        /* \"AccessControl.sol\":2563:2570  account */\n      dup2\n        /* \"AccessControl.sol\":2545:2585  RoleRevoked(role, account, _msgSender()) */\n      0xffffffffffffffffffffffffffffffffffffffff\n      and\n        /* \"AccessControl.sol\":2557:2561  role */\n      dup4\n        /* \"AccessControl.sol\":2545:2585  RoleRevoked(role, account, _msgSender()) */\n      0xf6391f5c32d9c69d2a47ea670b442974b53935d1edc7fd64eb21e047a839171b\n      mload(0x40)\n      mload(0x40)\n      dup1\n      swap2\n      sub\n      swap1\n      log4\n        /* \"AccessControl.sol\":2447:2597  if(hasRole(role, account)){... */\n    tag_204:\n        /* \"AccessControl.sol\":2366:2604  function _revokeRole(bytes32 role , address account) internal virtual {... */\n      pop\n      pop\n      jump\t// out\n        /* \"AccessControl.sol\":2610:2845  function _grantRole(bytes32 role, address account) internal virtual{... */\n    tag_141:\n        /* \"AccessControl.sol\":2692:2714  hasRole(role, account) */\n      tag_207\n        /* \"AccessControl.sol\":2700:2704  role */\n      dup3\n        /* \"AccessControl.sol\":2706:2713  account */\n      dup3\n        /* \"AccessControl.sol\":2692:2699  hasRole */\n      tag_78\n        /* \"AccessControl.sol\":2692:2714  hasRole(role, account) */\n      jump\t// in\n    tag_207:\n        /* \"AccessControl.sol\":2688:2838  if(!hasRole(role, account)){... */\n      tag_208\n      jumpi\n        /* \"AccessControl.sol\":2762:2766  true */\n      0x01\n        /* \"AccessControl.sol\":2730:2736  _roles */\n      0x00\n        /* \"AccessControl.sol\":2730:2742  _roles[role] */\n      dup1\n        /* \"AccessControl.sol\":2737:2741  role */\n      dup5\n        /* \"AccessControl.sol\":2730:2742  _roles[role] */\n      dup2\n      mstore\n      0x20\n      add\n      swap1\n      dup2\n      mstore\n      0x20\n      add\n      0x00\n      keccak256\n        /* \"AccessControl.sol\":2730:2750  _roles[role].members */\n      0x00\n      add\n        /* \"AccessControl.sol\":2730:2759  _roles[role].members[account] */\n      0x00\n        /* \"AccessControl.sol\":2751:2758  account */\n      dup4\n        /* \"AccessControl.sol\":2730:2759  _roles[role].members[account] */\n      0xffffffffffffffffffffffffffffffffffffffff\n      and\n      0xffffffffffffffffffffffffffffffffffffffff\n      and\n      dup2\n      mstore\n      0x20\n      add\n      swap1\n      dup2\n      mstore\n      0x20\n      add\n      0x00\n      keccak256\n      0x00\n        /* \"AccessControl.sol\":2730:2766  _roles[role].members[account] = true */\n      0x0100\n      exp\n      dup2\n      sload\n      dup2\n      0xff\n      mul\n      not\n      and\n      swap1\n      dup4\n      iszero\n      iszero\n      mul\n      or\n      swap1\n      sstore\n      pop\n        /* \"AccessControl.sol\":2813:2825  _msgSender() */\n      tag_209\n        /* \"AccessControl.sol\":2813:2823  _msgSender */\n      tag_154\n        /* \"AccessControl.sol\":2813:2825  _msgSender() */\n      jump\t// in\n    tag_209:\n        /* \"AccessControl.sol\":2786:2826  RoleGranted(role, account, _msgSender()) */\n      0xffffffffffffffffffffffffffffffffffffffff\n      and\n        /* \"AccessControl.sol\":2804:2811  account */\n      dup2\n        /* \"AccessControl.sol\":2786:2826  RoleGranted(role, account, _msgSender()) */\n      0xffffffffffffffffffffffffffffffffffffffff\n      and\n        /* \"AccessControl.sol\":2798:2802  role */\n      dup4\n        /* \"AccessControl.sol\":2786:2826  RoleGranted(role, account, _msgSender()) */\n      0x2f8788117e7eff1d82e926ec794901d17c78024a50270940304540a733656f0d\n      mload(0x40)\n      mload(0x40)\n      dup1\n      swap2\n      sub\n      swap1\n      log4\n        /* \"AccessControl.sol\":2688:2838  if(!hasRole(role, account)){... */\n    tag_208:\n        /* \"AccessControl.sol\":2610:2845  function _grantRole(bytes32 role, address account) internal virtual{... */\n      pop\n      pop\n      jump\t// out\n        /* \"Context.sol\":99:196  function _msgSender() internal view virtual returns(address) {... */\n    tag_154:\n        /* \"Context.sol\":151:158  address */\n      0x00\n        /* \"Context.sol\":178:188  msg.sender */\n      caller\n        /* \"Context.sol\":171:188  return msg.sender */\n      swap1\n      pop\n        /* \"Context.sol\":99:196  function _msgSender() internal view virtual returns(address) {... */\n      swap1\n      jump\t// out\n        /* \"MultiSend.sol\":3004:3362  function countRole(bytes32 role) private view returns (uint256) {... */\n    tag_179:\n        /* \"MultiSend.sol\":3059:3066  uint256 */\n      0x00\n        /* \"MultiSend.sol\":3079:3088  uint256 j */\n      dup1\n        /* \"MultiSend.sol\":3089:3090  0 */\n      0x00\n        /* \"MultiSend.sol\":3079:3090  uint256 j=0 */\n      swap1\n      pop\n        /* \"MultiSend.sol\":3112:3121  uint256 i */\n      0x00\n        /* \"MultiSend.sol\":3107:3329  for (uint256 i=0; i<= _emplist.length; i++){... */\n    tag_212:\n        /* \"MultiSend.sol\":3129:3137  _emplist */\n      0x03\n        /* \"MultiSend.sol\":3129:3144  _emplist.length */\n      dup1\n      sload\n      swap1\n      pop\n        /* \"MultiSend.sol\":3125:3126  i */\n      dup2\n        /* \"MultiSend.sol\":3125:3144  i<= _emplist.length */\n      gt\n        /* \"MultiSend.sol\":3107:3329  for (uint256 i=0; i<= _emplist.length; i++){... */\n      tag_213\n      jumpi\n        /* \"MultiSend.sol\":3165:3182  Data storage data */\n      0x00\n        /* \"MultiSend.sol\":3185:3188  map */\n      0x04\n        /* \"MultiSend.sol\":3185:3201  map[_emplist[i]] */\n      0x00\n        /* \"MultiSend.sol\":3189:3197  _emplist */\n      0x03\n        /* \"MultiSend.sol\":3198:3199  i */\n      dup5\n        /* \"MultiSend.sol\":3189:3200  _emplist[i] */\n      dup2\n      sload\n      dup2\n      lt\n      tag_215\n      jumpi\n      tag_216\n      tag_123\n      jump\t// in\n    tag_216:\n    tag_215:\n      swap1\n      0x00\n      mstore\n      keccak256(0x00, 0x20)\n      add\n      0x00\n      swap1\n      sload\n      swap1\n      0x0100\n      exp\n      swap1\n      div\n      0xffffffffffffffffffffffffffffffffffffffff\n      and\n        /* \"MultiSend.sol\":3185:3201  map[_emplist[i]] */\n      0xffffffffffffffffffffffffffffffffffffffff\n      and\n      0xffffffffffffffffffffffffffffffffffffffff\n      and\n      dup2\n      mstore\n      0x20\n      add\n      swap1\n      dup2\n      mstore\n      0x20\n      add\n      0x00\n      keccak256\n        /* \"MultiSend.sol\":3165:3201  Data storage data = map[_emplist[i]] */\n      swap1\n      pop\n        /* \"MultiSend.sol\":3216:3231  bytes32 empRole */\n      0x00\n        /* \"MultiSend.sol\":3234:3238  data */\n      dup2\n        /* \"MultiSend.sol\":3234:3243  data.role */\n      0x01\n      add\n      sload\n        /* \"MultiSend.sol\":3216:3243  bytes32 empRole = data.role */\n      swap1\n      pop\n        /* \"MultiSend.sol\":3274:3278  role */\n      dup6\n        /* \"MultiSend.sol\":3263:3270  empRole */\n      dup2\n        /* \"MultiSend.sol\":3263:3278  empRole == role */\n      sub\n        /* \"MultiSend.sol\":3260:3318  if(empRole == role) {... */\n      tag_218\n      jumpi\n        /* \"MultiSend.sol\":3299:3302  j++ */\n      dup4\n      dup1\n      tag_219\n      swap1\n      tag_197\n      jump\t// in\n    tag_219:\n      swap5\n      pop\n      pop\n        /* \"MultiSend.sol\":3260:3318  if(empRole == role) {... */\n    tag_218:\n        /* \"MultiSend.sol\":3150:3329  {... */\n      pop\n      pop\n        /* \"MultiSend.sol\":3146:3149  i++ */\n      dup1\n      dup1\n      tag_220\n      swap1\n      tag_197\n      jump\t// in\n    tag_220:\n      swap2\n      pop\n      pop\n        /* \"MultiSend.sol\":3107:3329  for (uint256 i=0; i<= _emplist.length; i++){... */\n      jump(tag_212)\n    tag_213:\n      pop\n        /* \"MultiSend.sol\":3346:3347  j */\n      dup1\n        /* \"MultiSend.sol\":3339:3347  return j */\n      swap2\n      pop\n      pop\n        /* \"MultiSend.sol\":3004:3362  function countRole(bytes32 role) private view returns (uint256) {... */\n      swap2\n      swap1\n      pop\n      jump\t// out\n        /* \"AccessControl.sol\":1105:1301  function _checkRole(bytes32 role,address account) internal view {... */\n    tag_201:\n        /* \"AccessControl.sol\":1207:1212  false */\n      0x00\n        /* \"AccessControl.sol\":1183:1212  hasRole(role, account)==false */\n      iszero\n      iszero\n        /* \"AccessControl.sol\":1183:1205  hasRole(role, account) */\n      tag_222\n        /* \"AccessControl.sol\":1191:1195  role */\n      dup4\n        /* \"AccessControl.sol\":1197:1204  account */\n      dup4\n        /* \"AccessControl.sol\":1183:1190  hasRole */\n      tag_78\n        /* \"AccessControl.sol\":1183:1205  hasRole(role, account) */\n      jump\t// in\n    tag_222:\n        /* \"AccessControl.sol\":1183:1212  hasRole(role, account)==false */\n      iszero\n      iszero\n      sub\n        /* \"AccessControl.sol\":1180:1294  if(hasRole(role, account)==false){... */\n      tag_223\n      jumpi\n        /* \"AccessControl.sol\":1268:1275  account */\n      dup1\n        /* \"AccessControl.sol\":1277:1281  role */\n      dup3\n        /* \"AccessControl.sol\":1235:1282  AccessControlUnauthorizedAccount(account, role) */\n      mload(0x40)\n      0xe2517d3f00000000000000000000000000000000000000000000000000000000\n      dup2\n      mstore\n      0x04\n      add\n      tag_224\n      swap3\n      swap2\n      swap1\n      tag_225\n      jump\t// in\n    tag_224:\n      mload(0x40)\n      dup1\n      swap2\n      sub\n      swap1\n      revert\n        /* \"AccessControl.sol\":1180:1294  if(hasRole(role, account)==false){... */\n    tag_223:\n        /* \"AccessControl.sol\":1105:1301  function _checkRole(bytes32 role,address account) internal view {... */\n      pop\n      pop\n      jump\t// out\n        /* \"#utility.yul\":7:82   */\n    tag_226:\n        /* \"#utility.yul\":40:46   */\n      0x00\n        /* \"#utility.yul\":73:75   */\n      0x40\n        /* \"#utility.yul\":67:76   */\n      mload\n        /* \"#utility.yul\":57:76   */\n      swap1\n      pop\n        /* \"#utility.yul\":7:82   */\n      swap1\n      jump\t// out\n        /* \"#utility.yul\":88:205   */\n    tag_227:\n        /* \"#utility.yul\":197:198   */\n      0x00\n        /* \"#utility.yul\":194:195   */\n      dup1\n        /* \"#utility.yul\":187:199   */\n      revert\n        /* \"#utility.yul\":211:328   */\n    tag_228:\n        /* \"#utility.yul\":320:321   */\n      0x00\n        /* \"#utility.yul\":317:318   */\n      dup1\n        /* \"#utility.yul\":310:322   */\n      revert\n        /* \"#utility.yul\":334:411   */\n    tag_229:\n        /* \"#utility.yul\":371:378   */\n      0x00\n        /* \"#utility.yul\":400:405   */\n      dup2\n        /* \"#utility.yul\":389:405   */\n      swap1\n      pop\n        /* \"#utility.yul\":334:411   */\n      swap2\n      swap1\n      pop\n      jump\t// out\n        /* \"#utility.yul\":417:539   */\n    tag_230:\n        /* \"#utility.yul\":490:514   */\n      tag_280\n        /* \"#utility.yul\":508:513   */\n      dup2\n        /* \"#utility.yul\":490:514   */\n      tag_229\n      jump\t// in\n    tag_280:\n        /* \"#utility.yul\":483:488   */\n      dup2\n        /* \"#utility.yul\":480:515   */\n      eq\n        /* \"#utility.yul\":470:533   */\n      tag_281\n      jumpi\n        /* \"#utility.yul\":529:530   */\n      0x00\n        /* \"#utility.yul\":526:527   */\n      dup1\n        /* \"#utility.yul\":519:531   */\n      revert\n        /* \"#utility.yul\":470:533   */\n    tag_281:\n        /* \"#utility.yul\":417:539   */\n      pop\n      jump\t// out\n        /* \"#utility.yul\":545:684   */\n    tag_231:\n        /* \"#utility.yul\":591:596   */\n      0x00\n        /* \"#utility.yul\":629:635   */\n      dup2\n        /* \"#utility.yul\":616:636   */\n      calldataload\n        /* \"#utility.yul\":607:636   */\n      swap1\n      pop\n        /* \"#utility.yul\":645:678   */\n      tag_283\n        /* \"#utility.yul\":672:677   */\n      dup2\n        /* \"#utility.yul\":645:678   */\n      tag_230\n      jump\t// in\n    tag_283:\n        /* \"#utility.yul\":545:684   */\n      swap3\n      swap2\n      pop\n      pop\n      jump\t// out\n        /* \"#utility.yul\":690:807   */\n    tag_232:\n        /* \"#utility.yul\":799:800   */\n      0x00\n        /* \"#utility.yul\":796:797   */\n      dup1\n        /* \"#utility.yul\":789:801   */\n      revert\n        /* \"#utility.yul\":813:930   */\n    tag_233:\n        /* \"#utility.yul\":922:923   */\n      0x00\n        /* \"#utility.yul\":919:920   */\n      dup1\n        /* \"#utility.yul\":912:924   */\n      revert\n        /* \"#utility.yul\":936:1038   */\n    tag_234:\n        /* \"#utility.yul\":977:983   */\n      0x00\n        /* \"#utility.yul\":1028:1030   */\n      0x1f\n        /* \"#utility.yul\":1024:1031   */\n      not\n        /* \"#utility.yul\":1019:1021   */\n      0x1f\n        /* \"#utility.yul\":1012:1017   */\n      dup4\n        /* \"#utility.yul\":1008:1022   */\n      add\n        /* \"#utility.yul\":1004:1032   */\n      and\n        /* \"#utility.yul\":994:1032   */\n      swap1\n      pop\n        /* \"#utility.yul\":936:1038   */\n      swap2\n      swap1\n      pop\n      jump\t// out\n        /* \"#utility.yul\":1044:1224   */\n    tag_182:\n        /* \"#utility.yul\":1092:1169   */\n      0x4e487b7100000000000000000000000000000000000000000000000000000000\n        /* \"#utility.yul\":1089:1090   */\n      0x00\n        /* \"#utility.yul\":1082:1170   */\n      mstore\n        /* \"#utility.yul\":1189:1193   */\n      0x41\n        /* \"#utility.yul\":1186:1187   */\n      0x04\n        /* \"#utility.yul\":1179:1194   */\n      mstore\n        /* \"#utility.yul\":1213:1217   */\n      0x24\n        /* \"#utility.yul\":1210:1211   */\n      0x00\n        /* \"#utility.yul\":1203:1218   */\n      revert\n        /* \"#utility.yul\":1230:1511   */\n    tag_235:\n        /* \"#utility.yul\":1313:1340   */\n      tag_289\n        /* \"#utility.yul\":1335:1339   */\n      dup3\n        /* \"#utility.yul\":1313:1340   */\n      tag_234\n      jump\t// in\n    tag_289:\n        /* \"#utility.yul\":1305:1311   */\n      dup2\n        /* \"#utility.yul\":1301:1341   */\n      add\n        /* \"#utility.yul\":1443:1449   */\n      dup2\n        /* \"#utility.yul\":1431:1441   */\n      dup2\n        /* \"#utility.yul\":1428:1450   */\n      lt\n        /* \"#utility.yul\":1407:1425   */\n      0xffffffffffffffff\n        /* \"#utility.yul\":1395:1405   */\n      dup3\n        /* \"#utility.yul\":1392:1426   */\n      gt\n        /* \"#utility.yul\":1389:1451   */\n      or\n        /* \"#utility.yul\":1386:1474   */\n      iszero\n      tag_290\n      jumpi\n        /* \"#utility.yul\":1454:1472   */\n      tag_291\n      tag_182\n      jump\t// in\n    tag_291:\n        /* \"#utility.yul\":1386:1474   */\n    tag_290:\n        /* \"#utility.yul\":1494:1504   */\n      dup1\n        /* \"#utility.yul\":1490:1492   */\n      0x40\n        /* \"#utility.yul\":1483:1505   */\n      mstore\n        /* \"#utility.yul\":1273:1511   */\n      pop\n        /* \"#utility.yul\":1230:1511   */\n      pop\n      pop\n      jump\t// out\n        /* \"#utility.yul\":1517:1646   */\n    tag_236:\n        /* \"#utility.yul\":1551:1557   */\n      0x00\n        /* \"#utility.yul\":1578:1598   */\n      tag_293\n      tag_226\n      jump\t// in\n    tag_293:\n        /* \"#utility.yul\":1568:1598   */\n      swap1\n      pop\n        /* \"#utility.yul\":1607:1640   */\n      tag_294\n        /* \"#utility.yul\":1635:1639   */\n      dup3\n        /* \"#utility.yul\":1627:1633   */\n      dup3\n        /* \"#utility.yul\":1607:1640   */\n      tag_235\n      jump\t// in\n    tag_294:\n        /* \"#utility.yul\":1517:1646   */\n      swap2\n      swap1\n      pop\n      jump\t// out\n        /* \"#utility.yul\":1652:1960   */\n    tag_237:\n        /* \"#utility.yul\":1714:1718   */\n      0x00\n        /* \"#utility.yul\":1804:1822   */\n      0xffffffffffffffff\n        /* \"#utility.yul\":1796:1802   */\n      dup3\n        /* \"#utility.yul\":1793:1823   */\n      gt\n        /* \"#utility.yul\":1790:1846   */\n      iszero\n      tag_296\n      jumpi\n        /* \"#utility.yul\":1826:1844   */\n      tag_297\n      tag_182\n      jump\t// in\n    tag_297:\n        /* \"#utility.yul\":1790:1846   */\n    tag_296:\n        /* \"#utility.yul\":1864:1893   */\n      tag_298\n        /* \"#utility.yul\":1886:1892   */\n      dup3\n        /* \"#utility.yul\":1864:1893   */\n      tag_234\n      jump\t// in\n    tag_298:\n        /* \"#utility.yul\":1856:1893   */\n      swap1\n      pop\n        /* \"#utility.yul\":1948:1952   */\n      0x20\n        /* \"#utility.yul\":1942:1946   */\n      dup2\n        /* \"#utility.yul\":1938:1953   */\n      add\n        /* \"#utility.yul\":1930:1953   */\n      swap1\n      pop\n        /* \"#utility.yul\":1652:1960   */\n      swap2\n      swap1\n      pop\n      jump\t// out\n        /* \"#utility.yul\":1966:2112   */\n    tag_238:\n        /* \"#utility.yul\":2063:2069   */\n      dup3\n        /* \"#utility.yul\":2058:2061   */\n      dup2\n        /* \"#utility.yul\":2053:2056   */\n      dup4\n        /* \"#utility.yul\":2040:2070   */\n      calldatacopy\n        /* \"#utility.yul\":2104:2105   */\n      0x00\n        /* \"#utility.yul\":2095:2101   */\n      dup4\n        /* \"#utility.yul\":2090:2093   */\n      dup4\n        /* \"#utility.yul\":2086:2102   */\n      add\n        /* \"#utility.yul\":2079:2106   */\n      mstore\n        /* \"#utility.yul\":1966:2112   */\n      pop\n      pop\n      pop\n      jump\t// out\n        /* \"#utility.yul\":2118:2543   */\n    tag_239:\n        /* \"#utility.yul\":2196:2201   */\n      0x00\n        /* \"#utility.yul\":2221:2287   */\n      tag_301\n        /* \"#utility.yul\":2237:2286   */\n      tag_302\n        /* \"#utility.yul\":2279:2285   */\n      dup5\n        /* \"#utility.yul\":2237:2286   */\n      tag_237\n      jump\t// in\n    tag_302:\n        /* \"#utility.yul\":2221:2287   */\n      tag_236\n      jump\t// in\n    tag_301:\n        /* \"#utility.yul\":2212:2287   */\n      swap1\n      pop\n        /* \"#utility.yul\":2310:2316   */\n      dup3\n        /* \"#utility.yul\":2303:2308   */\n      dup2\n        /* \"#utility.yul\":2296:2317   */\n      mstore\n        /* \"#utility.yul\":2348:2352   */\n      0x20\n        /* \"#utility.yul\":2341:2346   */\n      dup2\n        /* \"#utility.yul\":2337:2353   */\n      add\n        /* \"#utility.yul\":2386:2389   */\n      dup5\n        /* \"#utility.yul\":2377:2383   */\n      dup5\n        /* \"#utility.yul\":2372:2375   */\n      dup5\n        /* \"#utility.yul\":2368:2384   */\n      add\n        /* \"#utility.yul\":2365:2390   */\n      gt\n        /* \"#utility.yul\":2362:2474   */\n      iszero\n      tag_303\n      jumpi\n        /* \"#utility.yul\":2393:2472   */\n      tag_304\n      tag_233\n      jump\t// in\n    tag_304:\n        /* \"#utility.yul\":2362:2474   */\n    tag_303:\n        /* \"#utility.yul\":2483:2537   */\n      tag_305\n        /* \"#utility.yul\":2530:2536   */\n      dup5\n        /* \"#utility.yul\":2525:2528   */\n      dup3\n        /* \"#utility.yul\":2520:2523   */\n      dup6\n        /* \"#utility.yul\":2483:2537   */\n      tag_238\n      jump\t// in\n    tag_305:\n        /* \"#utility.yul\":2202:2543   */\n      pop\n        /* \"#utility.yul\":2118:2543   */\n      swap4\n      swap3\n      pop\n      pop\n      pop\n      jump\t// out\n        /* \"#utility.yul\":2563:2903   */\n    tag_240:\n        /* \"#utility.yul\":2619:2624   */\n      0x00\n        /* \"#utility.yul\":2668:2671   */\n      dup3\n        /* \"#utility.yul\":2661:2665   */\n      0x1f\n        /* \"#utility.yul\":2653:2659   */\n      dup4\n        /* \"#utility.yul\":2649:2666   */\n      add\n        /* \"#utility.yul\":2645:2672   */\n      slt\n        /* \"#utility.yul\":2635:2757   */\n      tag_307\n      jumpi\n        /* \"#utility.yul\":2676:2755   */\n      tag_308\n      tag_232\n      jump\t// in\n    tag_308:\n        /* \"#utility.yul\":2635:2757   */\n    tag_307:\n        /* \"#utility.yul\":2793:2799   */\n      dup2\n        /* \"#utility.yul\":2780:2800   */\n      calldataload\n        /* \"#utility.yul\":2818:2897   */\n      tag_309\n        /* \"#utility.yul\":2893:2896   */\n      dup5\n        /* \"#utility.yul\":2885:2891   */\n      dup3\n        /* \"#utility.yul\":2878:2882   */\n      0x20\n        /* \"#utility.yul\":2870:2876   */\n      dup7\n        /* \"#utility.yul\":2866:2883   */\n      add\n        /* \"#utility.yul\":2818:2897   */\n      tag_239\n      jump\t// in\n    tag_309:\n        /* \"#utility.yul\":2809:2897   */\n      swap2\n      pop\n        /* \"#utility.yul\":2625:2903   */\n      pop\n        /* \"#utility.yul\":2563:2903   */\n      swap3\n      swap2\n      pop\n      pop\n      jump\t// out\n        /* \"#utility.yul\":2909:3563   */\n    tag_25:\n        /* \"#utility.yul\":2987:2993   */\n      0x00\n        /* \"#utility.yul\":2995:3001   */\n      dup1\n        /* \"#utility.yul\":3044:3046   */\n      0x40\n        /* \"#utility.yul\":3032:3041   */\n      dup4\n        /* \"#utility.yul\":3023:3030   */\n      dup6\n        /* \"#utility.yul\":3019:3042   */\n      sub\n        /* \"#utility.yul\":3015:3047   */\n      slt\n        /* \"#utility.yul\":3012:3131   */\n      iszero\n      tag_311\n      jumpi\n        /* \"#utility.yul\":3050:3129   */\n      tag_312\n      tag_227\n      jump\t// in\n    tag_312:\n        /* \"#utility.yul\":3012:3131   */\n    tag_311:\n        /* \"#utility.yul\":3170:3171   */\n      0x00\n        /* \"#utility.yul\":3195:3248   */\n      tag_313\n        /* \"#utility.yul\":3240:3247   */\n      dup6\n        /* \"#utility.yul\":3231:3237   */\n      dup3\n        /* \"#utility.yul\":3220:3229   */\n      dup7\n        /* \"#utility.yul\":3216:3238   */\n      add\n        /* \"#utility.yul\":3195:3248   */\n      tag_231\n      jump\t// in\n    tag_313:\n        /* \"#utility.yul\":3185:3248   */\n      swap3\n      pop\n        /* \"#utility.yul\":3141:3258   */\n      pop\n        /* \"#utility.yul\":3325:3327   */\n      0x20\n        /* \"#utility.yul\":3314:3323   */\n      dup4\n        /* \"#utility.yul\":3310:3328   */\n      add\n        /* \"#utility.yul\":3297:3329   */\n      calldataload\n        /* \"#utility.yul\":3356:3374   */\n      0xffffffffffffffff\n        /* \"#utility.yul\":3348:3354   */\n      dup2\n        /* \"#utility.yul\":3345:3375   */\n      gt\n        /* \"#utility.yul\":3342:3459   */\n      iszero\n      tag_314\n      jumpi\n        /* \"#utility.yul\":3378:3457   */\n      tag_315\n      tag_228\n      jump\t// in\n    tag_315:\n        /* \"#utility.yul\":3342:3459   */\n    tag_314:\n        /* \"#utility.yul\":3483:3546   */\n      tag_316\n        /* \"#utility.yul\":3538:3545   */\n      dup6\n        /* \"#utility.yul\":3529:3535   */\n      dup3\n        /* \"#utility.yul\":3518:3527   */\n      dup7\n        /* \"#utility.yul\":3514:3536   */\n      add\n        /* \"#utility.yul\":3483:3546   */\n      tag_240\n      jump\t// in\n    tag_316:\n        /* \"#utility.yul\":3473:3546   */\n      swap2\n      pop\n        /* \"#utility.yul\":3268:3556   */\n      pop\n        /* \"#utility.yul\":2909:3563   */\n      swap3\n      pop\n      swap3\n      swap1\n      pop\n      jump\t// out\n        /* \"#utility.yul\":3569:3898   */\n    tag_34:\n        /* \"#utility.yul\":3628:3634   */\n      0x00\n        /* \"#utility.yul\":3677:3679   */\n      0x20\n        /* \"#utility.yul\":3665:3674   */\n      dup3\n        /* \"#utility.yul\":3656:3663   */\n      dup5\n        /* \"#utility.yul\":3652:3675   */\n      sub\n        /* \"#utility.yul\":3648:3680   */\n      slt\n        /* \"#utility.yul\":3645:3764   */\n      iszero\n      tag_318\n      jumpi\n        /* \"#utility.yul\":3683:3762   */\n      tag_319\n      tag_227\n      jump\t// in\n    tag_319:\n        /* \"#utility.yul\":3645:3764   */\n    tag_318:\n        /* \"#utility.yul\":3803:3804   */\n      0x00\n        /* \"#utility.yul\":3828:3881   */\n      tag_320\n        /* \"#utility.yul\":3873:3880   */\n      dup5\n        /* \"#utility.yul\":3864:3870   */\n      dup3\n        /* \"#utility.yul\":3853:3862   */\n      dup6\n        /* \"#utility.yul\":3849:3871   */\n      add\n        /* \"#utility.yul\":3828:3881   */\n      tag_231\n      jump\t// in\n    tag_320:\n        /* \"#utility.yul\":3818:3881   */\n      swap2\n      pop\n        /* \"#utility.yul\":3774:3891   */\n      pop\n        /* \"#utility.yul\":3569:3898   */\n      swap3\n      swap2\n      pop\n      pop\n      jump\t// out\n        /* \"#utility.yul\":3904:4022   */\n    tag_241:\n        /* \"#utility.yul\":3991:4015   */\n      tag_322\n        /* \"#utility.yul\":4009:4014   */\n      dup2\n        /* \"#utility.yul\":3991:4015   */\n      tag_229\n      jump\t// in\n    tag_322:\n        /* \"#utility.yul\":3986:3989   */\n      dup3\n        /* \"#utility.yul\":3979:4016   */\n      mstore\n        /* \"#utility.yul\":3904:4022   */\n      pop\n      pop\n      jump\t// out\n        /* \"#utility.yul\":4028:4250   */\n    tag_37:\n        /* \"#utility.yul\":4121:4125   */\n      0x00\n        /* \"#utility.yul\":4159:4161   */\n      0x20\n        /* \"#utility.yul\":4148:4157   */\n      dup3\n        /* \"#utility.yul\":4144:4162   */\n      add\n        /* \"#utility.yul\":4136:4162   */\n      swap1\n      pop\n        /* \"#utility.yul\":4172:4243   */\n      tag_324\n        /* \"#utility.yul\":4240:4241   */\n      0x00\n        /* \"#utility.yul\":4229:4238   */\n      dup4\n        /* \"#utility.yul\":4225:4242   */\n      add\n        /* \"#utility.yul\":4216:4222   */\n      dup5\n        /* \"#utility.yul\":4172:4243   */\n      tag_241\n      jump\t// in\n    tag_324:\n        /* \"#utility.yul\":4028:4250   */\n      swap3\n      swap2\n      pop\n      pop\n      jump\t// out\n        /* \"#utility.yul\":4256:4765   */\n    tag_41:\n        /* \"#utility.yul\":4325:4331   */\n      0x00\n        /* \"#utility.yul\":4374:4376   */\n      0x20\n        /* \"#utility.yul\":4362:4371   */\n      dup3\n        /* \"#utility.yul\":4353:4360   */\n      dup5\n        /* \"#utility.yul\":4349:4372   */\n      sub\n        /* \"#utility.yul\":4345:4377   */\n      slt\n        /* \"#utility.yul\":4342:4461   */\n      iszero\n      tag_326\n      jumpi\n        /* \"#utility.yul\":4380:4459   */\n      tag_327\n      tag_227\n      jump\t// in\n    tag_327:\n        /* \"#utility.yul\":4342:4461   */\n    tag_326:\n        /* \"#utility.yul\":4528:4529   */\n      0x00\n        /* \"#utility.yul\":4517:4526   */\n      dup3\n        /* \"#utility.yul\":4513:4530   */\n      add\n        /* \"#utility.yul\":4500:4531   */\n      calldataload\n        /* \"#utility.yul\":4558:4576   */\n      0xffffffffffffffff\n        /* \"#utility.yul\":4550:4556   */\n      dup2\n        /* \"#utility.yul\":4547:4577   */\n      gt\n        /* \"#utility.yul\":4544:4661   */\n      iszero\n      tag_328\n      jumpi\n        /* \"#utility.yul\":4580:4659   */\n      tag_329\n      tag_228\n      jump\t// in\n    tag_329:\n        /* \"#utility.yul\":4544:4661   */\n    tag_328:\n        /* \"#utility.yul\":4685:4748   */\n      tag_330\n        /* \"#utility.yul\":4740:4747   */\n      dup5\n        /* \"#utility.yul\":4731:4737   */\n      dup3\n        /* \"#utility.yul\":4720:4729   */\n      dup6\n        /* \"#utility.yul\":4716:4738   */\n      add\n        /* \"#utility.yul\":4685:4748   */\n      tag_240\n      jump\t// in\n    tag_330:\n        /* \"#utility.yul\":4675:4748   */\n      swap2\n      pop\n        /* \"#utility.yul\":4471:4758   */\n      pop\n        /* \"#utility.yul\":4256:4765   */\n      swap3\n      swap2\n      pop\n      pop\n      jump\t// out\n        /* \"#utility.yul\":4771:4897   */\n    tag_242:\n        /* \"#utility.yul\":4808:4815   */\n      0x00\n        /* \"#utility.yul\":4848:4890   */\n      0xffffffffffffffffffffffffffffffffffffffff\n        /* \"#utility.yul\":4841:4846   */\n      dup3\n        /* \"#utility.yul\":4837:4891   */\n      and\n        /* \"#utility.yul\":4826:4891   */\n      swap1\n      pop\n        /* \"#utility.yul\":4771:4897   */\n      swap2\n      swap1\n      pop\n      jump\t// out\n        /* \"#utility.yul\":4903:5007   */\n    tag_243:\n        /* \"#utility.yul\":4948:4955   */\n      0x00\n        /* \"#utility.yul\":4977:5001   */\n      tag_333\n        /* \"#utility.yul\":4995:5000   */\n      dup3\n        /* \"#utility.yul\":4977:5001   */\n      tag_242\n      jump\t// in\n    tag_333:\n        /* \"#utility.yul\":4966:5001   */\n      swap1\n      pop\n        /* \"#utility.yul\":4903:5007   */\n      swap2\n      swap1\n      pop\n      jump\t// out\n        /* \"#utility.yul\":5013:5155   */\n    tag_244:\n        /* \"#utility.yul\":5116:5148   */\n      tag_335\n        /* \"#utility.yul\":5142:5147   */\n      dup2\n        /* \"#utility.yul\":5116:5148   */\n      tag_243\n      jump\t// in\n    tag_335:\n        /* \"#utility.yul\":5111:5114   */\n      dup3\n        /* \"#utility.yul\":5104:5149   */\n      mstore\n        /* \"#utility.yul\":5013:5155   */\n      pop\n      pop\n      jump\t// out\n        /* \"#utility.yul\":5161:5415   */\n    tag_44:\n        /* \"#utility.yul\":5270:5274   */\n      0x00\n        /* \"#utility.yul\":5308:5310   */\n      0x20\n        /* \"#utility.yul\":5297:5306   */\n      dup3\n        /* \"#utility.yul\":5293:5311   */\n      add\n        /* \"#utility.yul\":5285:5311   */\n      swap1\n      pop\n        /* \"#utility.yul\":5321:5408   */\n      tag_337\n        /* \"#utility.yul\":5405:5406   */\n      0x00\n        /* \"#utility.yul\":5394:5403   */\n      dup4\n        /* \"#utility.yul\":5390:5407   */\n      add\n        /* \"#utility.yul\":5381:5387   */\n      dup5\n        /* \"#utility.yul\":5321:5408   */\n      tag_244\n      jump\t// in\n    tag_337:\n        /* \"#utility.yul\":5161:5415   */\n      swap3\n      swap2\n      pop\n      pop\n      jump\t// out\n        /* \"#utility.yul\":5421:5517   */\n    tag_245:\n        /* \"#utility.yul\":5458:5465   */\n      0x00\n        /* \"#utility.yul\":5487:5511   */\n      tag_339\n        /* \"#utility.yul\":5505:5510   */\n      dup3\n        /* \"#utility.yul\":5487:5511   */\n      tag_242\n      jump\t// in\n    tag_339:\n        /* \"#utility.yul\":5476:5511   */\n      swap1\n      pop\n        /* \"#utility.yul\":5421:5517   */\n      swap2\n      swap1\n      pop\n      jump\t// out\n        /* \"#utility.yul\":5523:5645   */\n    tag_246:\n        /* \"#utility.yul\":5596:5620   */\n      tag_341\n        /* \"#utility.yul\":5614:5619   */\n      dup2\n        /* \"#utility.yul\":5596:5620   */\n      tag_245\n      jump\t// in\n    tag_341:\n        /* \"#utility.yul\":5589:5594   */\n      dup2\n        /* \"#utility.yul\":5586:5621   */\n      eq\n        /* \"#utility.yul\":5576:5639   */\n      tag_342\n      jumpi\n        /* \"#utility.yul\":5635:5636   */\n      0x00\n        /* \"#utility.yul\":5632:5633   */\n      dup1\n        /* \"#utility.yul\":5625:5637   */\n      revert\n        /* \"#utility.yul\":5576:5639   */\n    tag_342:\n        /* \"#utility.yul\":5523:5645   */\n      pop\n      jump\t// out\n        /* \"#utility.yul\":5651:5790   */\n    tag_247:\n        /* \"#utility.yul\":5697:5702   */\n      0x00\n        /* \"#utility.yul\":5735:5741   */\n      dup2\n        /* \"#utility.yul\":5722:5742   */\n      calldataload\n        /* \"#utility.yul\":5713:5742   */\n      swap1\n      pop\n        /* \"#utility.yul\":5751:5784   */\n      tag_344\n        /* \"#utility.yul\":5778:5783   */\n      dup2\n        /* \"#utility.yul\":5751:5784   */\n      tag_246\n      jump\t// in\n    tag_344:\n        /* \"#utility.yul\":5651:5790   */\n      swap3\n      swap2\n      pop\n      pop\n      jump\t// out\n        /* \"#utility.yul\":5796:6270   */\n    tag_48:\n        /* \"#utility.yul\":5864:5870   */\n      0x00\n        /* \"#utility.yul\":5872:5878   */\n      dup1\n        /* \"#utility.yul\":5921:5923   */\n      0x40\n        /* \"#utility.yul\":5909:5918   */\n      dup4\n        /* \"#utility.yul\":5900:5907   */\n      dup6\n        /* \"#utility.yul\":5896:5919   */\n      sub\n        /* \"#utility.yul\":5892:5924   */\n      slt\n        /* \"#utility.yul\":5889:6008   */\n      iszero\n      tag_346\n      jumpi\n        /* \"#utility.yul\":5927:6006   */\n      tag_347\n      tag_227\n      jump\t// in\n    tag_347:\n        /* \"#utility.yul\":5889:6008   */\n    tag_346:\n        /* \"#utility.yul\":6047:6048   */\n      0x00\n        /* \"#utility.yul\":6072:6125   */\n      tag_348\n        /* \"#utility.yul\":6117:6124   */\n      dup6\n        /* \"#utility.yul\":6108:6114   */\n      dup3\n        /* \"#utility.yul\":6097:6106   */\n      dup7\n        /* \"#utility.yul\":6093:6115   */\n      add\n        /* \"#utility.yul\":6072:6125   */\n      tag_231\n      jump\t// in\n    tag_348:\n        /* \"#utility.yul\":6062:6125   */\n      swap3\n      pop\n        /* \"#utility.yul\":6018:6135   */\n      pop\n        /* \"#utility.yul\":6174:6176   */\n      0x20\n        /* \"#utility.yul\":6200:6253   */\n      tag_349\n        /* \"#utility.yul\":6245:6252   */\n      dup6\n        /* \"#utility.yul\":6236:6242   */\n      dup3\n        /* \"#utility.yul\":6225:6234   */\n      dup7\n        /* \"#utility.yul\":6221:6243   */\n      add\n        /* \"#utility.yul\":6200:6253   */\n      tag_247\n      jump\t// in\n    tag_349:\n        /* \"#utility.yul\":6190:6253   */\n      swap2\n      pop\n        /* \"#utility.yul\":6145:6263   */\n      pop\n        /* \"#utility.yul\":5796:6270   */\n      swap3\n      pop\n      swap3\n      swap1\n      pop\n      jump\t// out\n        /* \"#utility.yul\":6276:6353   */\n    tag_248:\n        /* \"#utility.yul\":6313:6320   */\n      0x00\n        /* \"#utility.yul\":6342:6347   */\n      dup2\n        /* \"#utility.yul\":6331:6347   */\n      swap1\n      pop\n        /* \"#utility.yul\":6276:6353   */\n      swap2\n      swap1\n      pop\n      jump\t// out\n        /* \"#utility.yul\":6359:6481   */\n    tag_249:\n        /* \"#utility.yul\":6432:6456   */\n      tag_352\n        /* \"#utility.yul\":6450:6455   */\n      dup2\n        /* \"#utility.yul\":6432:6456   */\n      tag_248\n      jump\t// in\n    tag_352:\n        /* \"#utility.yul\":6425:6430   */\n      dup2\n        /* \"#utility.yul\":6422:6457   */\n      eq\n        /* \"#utility.yul\":6412:6475   */\n      tag_353\n      jumpi\n        /* \"#utility.yul\":6471:6472   */\n      0x00\n        /* \"#utility.yul\":6468:6469   */\n      dup1\n        /* \"#utility.yul\":6461:6473   */\n      revert\n        /* \"#utility.yul\":6412:6475   */\n    tag_353:\n        /* \"#utility.yul\":6359:6481   */\n      pop\n      jump\t// out\n        /* \"#utility.yul\":6487:6626   */\n    tag_250:\n        /* \"#utility.yul\":6533:6538   */\n      0x00\n        /* \"#utility.yul\":6571:6577   */\n      dup2\n        /* \"#utility.yul\":6558:6578   */\n      calldataload\n        /* \"#utility.yul\":6549:6578   */\n      swap1\n      pop\n        /* \"#utility.yul\":6587:6620   */\n      tag_355\n        /* \"#utility.yul\":6614:6619   */\n      dup2\n        /* \"#utility.yul\":6587:6620   */\n      tag_249\n      jump\t// in\n    tag_355:\n        /* \"#utility.yul\":6487:6626   */\n      swap3\n      swap2\n      pop\n      pop\n      jump\t// out\n        /* \"#utility.yul\":6632:6961   */\n    tag_57:\n        /* \"#utility.yul\":6691:6697   */\n      0x00\n        /* \"#utility.yul\":6740:6742   */\n      0x20\n        /* \"#utility.yul\":6728:6737   */\n      dup3\n        /* \"#utility.yul\":6719:6726   */\n      dup5\n        /* \"#utility.yul\":6715:6738   */\n      sub\n        /* \"#utility.yul\":6711:6743   */\n      slt\n        /* \"#utility.yul\":6708:6827   */\n      iszero\n      tag_357\n      jumpi\n        /* \"#utility.yul\":6746:6825   */\n      tag_358\n      tag_227\n      jump\t// in\n    tag_358:\n        /* \"#utility.yul\":6708:6827   */\n    tag_357:\n        /* \"#utility.yul\":6866:6867   */\n      0x00\n        /* \"#utility.yul\":6891:6944   */\n      tag_359\n        /* \"#utility.yul\":6936:6943   */\n      dup5\n        /* \"#utility.yul\":6927:6933   */\n      dup3\n        /* \"#utility.yul\":6916:6925   */\n      dup6\n        /* \"#utility.yul\":6912:6934   */\n      add\n        /* \"#utility.yul\":6891:6944   */\n      tag_250\n      jump\t// in\n    tag_359:\n        /* \"#utility.yul\":6881:6944   */\n      swap2\n      pop\n        /* \"#utility.yul\":6837:6954   */\n      pop\n        /* \"#utility.yul\":6632:6961   */\n      swap3\n      swap2\n      pop\n      pop\n      jump\t// out\n        /* \"#utility.yul\":6967:7441   */\n    tag_73:\n        /* \"#utility.yul\":7035:7041   */\n      0x00\n        /* \"#utility.yul\":7043:7049   */\n      dup1\n        /* \"#utility.yul\":7092:7094   */\n      0x40\n        /* \"#utility.yul\":7080:7089   */\n      dup4\n        /* \"#utility.yul\":7071:7078   */\n      dup6\n        /* \"#utility.yul\":7067:7090   */\n      sub\n        /* \"#utility.yul\":7063:7095   */\n      slt\n        /* \"#utility.yul\":7060:7179   */\n      iszero\n      tag_361\n      jumpi\n        /* \"#utility.yul\":7098:7177   */\n      tag_362\n      tag_227\n      jump\t// in\n    tag_362:\n        /* \"#utility.yul\":7060:7179   */\n    tag_361:\n        /* \"#utility.yul\":7218:7219   */\n      0x00\n        /* \"#utility.yul\":7243:7296   */\n      tag_363\n        /* \"#utility.yul\":7288:7295   */\n      dup6\n        /* \"#utility.yul\":7279:7285   */\n      dup3\n        /* \"#utility.yul\":7268:7277   */\n      dup7\n        /* \"#utility.yul\":7264:7286   */\n      add\n        /* \"#utility.yul\":7243:7296   */\n      tag_231\n      jump\t// in\n    tag_363:\n        /* \"#utility.yul\":7233:7296   */\n      swap3\n      pop\n        /* \"#utility.yul\":7189:7306   */\n      pop\n        /* \"#utility.yul\":7345:7347   */\n      0x20\n        /* \"#utility.yul\":7371:7424   */\n      tag_364\n        /* \"#utility.yul\":7416:7423   */\n      dup6\n        /* \"#utility.yul\":7407:7413   */\n      dup3\n        /* \"#utility.yul\":7396:7405   */\n      dup7\n        /* \"#utility.yul\":7392:7414   */\n      add\n        /* \"#utility.yul\":7371:7424   */\n      tag_231\n      jump\t// in\n    tag_364:\n        /* \"#utility.yul\":7361:7424   */\n      swap2\n      pop\n        /* \"#utility.yul\":7316:7434   */\n      pop\n        /* \"#utility.yul\":6967:7441   */\n      swap3\n      pop\n      swap3\n      swap1\n      pop\n      jump\t// out\n        /* \"#utility.yul\":7447:7537   */\n    tag_251:\n        /* \"#utility.yul\":7481:7488   */\n      0x00\n        /* \"#utility.yul\":7524:7529   */\n      dup2\n        /* \"#utility.yul\":7517:7530   */\n      iszero\n        /* \"#utility.yul\":7510:7531   */\n      iszero\n        /* \"#utility.yul\":7499:7531   */\n      swap1\n      pop\n        /* \"#utility.yul\":7447:7537   */\n      swap2\n      swap1\n      pop\n      jump\t// out\n        /* \"#utility.yul\":7543:7652   */\n    tag_252:\n        /* \"#utility.yul\":7624:7645   */\n      tag_367\n        /* \"#utility.yul\":7639:7644   */\n      dup2\n        /* \"#utility.yul\":7624:7645   */\n      tag_251\n      jump\t// in\n    tag_367:\n        /* \"#utility.yul\":7619:7622   */\n      dup3\n        /* \"#utility.yul\":7612:7646   */\n      mstore\n        /* \"#utility.yul\":7543:7652   */\n      pop\n      pop\n      jump\t// out\n        /* \"#utility.yul\":7658:7868   */\n    tag_80:\n        /* \"#utility.yul\":7745:7749   */\n      0x00\n        /* \"#utility.yul\":7783:7785   */\n      0x20\n        /* \"#utility.yul\":7772:7781   */\n      dup3\n        /* \"#utility.yul\":7768:7786   */\n      add\n        /* \"#utility.yul\":7760:7786   */\n      swap1\n      pop\n        /* \"#utility.yul\":7796:7861   */\n      tag_369\n        /* \"#utility.yul\":7858:7859   */\n      0x00\n        /* \"#utility.yul\":7847:7856   */\n      dup4\n        /* \"#utility.yul\":7843:7860   */\n      add\n        /* \"#utility.yul\":7834:7840   */\n      dup5\n        /* \"#utility.yul\":7796:7861   */\n      tag_252\n      jump\t// in\n    tag_369:\n        /* \"#utility.yul\":7658:7868   */\n      swap3\n      swap2\n      pop\n      pop\n      jump\t// out\n        /* \"#utility.yul\":7874:8203   */\n    tag_84:\n        /* \"#utility.yul\":7933:7939   */\n      0x00\n        /* \"#utility.yul\":7982:7984   */\n      0x20\n        /* \"#utility.yul\":7970:7979   */\n      dup3\n        /* \"#utility.yul\":7961:7968   */\n      dup5\n        /* \"#utility.yul\":7957:7980   */\n      sub\n        /* \"#utility.yul\":7953:7985   */\n      slt\n        /* \"#utility.yul\":7950:8069   */\n      iszero\n      tag_371\n      jumpi\n        /* \"#utility.yul\":7988:8067   */\n      tag_372\n      tag_227\n      jump\t// in\n    tag_372:\n        /* \"#utility.yul\":7950:8069   */\n    tag_371:\n        /* \"#utility.yul\":8108:8109   */\n      0x00\n        /* \"#utility.yul\":8133:8186   */\n      tag_373\n        /* \"#utility.yul\":8178:8185   */\n      dup5\n        /* \"#utility.yul\":8169:8175   */\n      dup3\n        /* \"#utility.yul\":8158:8167   */\n      dup6\n        /* \"#utility.yul\":8154:8176   */\n      add\n        /* \"#utility.yul\":8133:8186   */\n      tag_247\n      jump\t// in\n    tag_373:\n        /* \"#utility.yul\":8123:8186   */\n      swap2\n      pop\n        /* \"#utility.yul\":8079:8196   */\n      pop\n        /* \"#utility.yul\":7874:8203   */\n      swap3\n      swap2\n      pop\n      pop\n      jump\t// out\n        /* \"#utility.yul\":8209:8327   */\n    tag_253:\n        /* \"#utility.yul\":8296:8320   */\n      tag_375\n        /* \"#utility.yul\":8314:8319   */\n      dup2\n        /* \"#utility.yul\":8296:8320   */\n      tag_248\n      jump\t// in\n    tag_375:\n        /* \"#utility.yul\":8291:8294   */\n      dup3\n        /* \"#utility.yul\":8284:8321   */\n      mstore\n        /* \"#utility.yul\":8209:8327   */\n      pop\n      pop\n      jump\t// out\n        /* \"#utility.yul\":8333:8665   */\n    tag_87:\n        /* \"#utility.yul\":8454:8458   */\n      0x00\n        /* \"#utility.yul\":8492:8494   */\n      0x40\n        /* \"#utility.yul\":8481:8490   */\n      dup3\n        /* \"#utility.yul\":8477:8495   */\n      add\n        /* \"#utility.yul\":8469:8495   */\n      swap1\n      pop\n        /* \"#utility.yul\":8505:8576   */\n      tag_377\n        /* \"#utility.yul\":8573:8574   */\n      0x00\n        /* \"#utility.yul\":8562:8571   */\n      dup4\n        /* \"#utility.yul\":8558:8575   */\n      add\n        /* \"#utility.yul\":8549:8555   */\n      dup6\n        /* \"#utility.yul\":8505:8576   */\n      tag_253\n      jump\t// in\n    tag_377:\n        /* \"#utility.yul\":8586:8658   */\n      tag_378\n        /* \"#utility.yul\":8654:8656   */\n      0x20\n        /* \"#utility.yul\":8643:8652   */\n      dup4\n        /* \"#utility.yul\":8639:8657   */\n      add\n        /* \"#utility.yul\":8630:8636   */\n      dup5\n        /* \"#utility.yul\":8586:8658   */\n      tag_241\n      jump\t// in\n    tag_378:\n        /* \"#utility.yul\":8333:8665   */\n      swap4\n      swap3\n      pop\n      pop\n      pop\n      jump\t// out\n        /* \"#utility.yul\":8671:8793   */\n    tag_254:\n        /* \"#utility.yul\":8746:8752   */\n      0x00\n        /* \"#utility.yul\":8780:8785   */\n      dup2\n        /* \"#utility.yul\":8774:8786   */\n      mload\n        /* \"#utility.yul\":8764:8786   */\n      swap1\n      pop\n        /* \"#utility.yul\":8671:8793   */\n      swap2\n      swap1\n      pop\n      jump\t// out\n        /* \"#utility.yul\":8799:8991   */\n    tag_255:\n        /* \"#utility.yul\":8906:8917   */\n      0x00\n        /* \"#utility.yul\":8940:8946   */\n      dup3\n        /* \"#utility.yul\":8935:8938   */\n      dup3\n        /* \"#utility.yul\":8928:8947   */\n      mstore\n        /* \"#utility.yul\":8980:8984   */\n      0x20\n        /* \"#utility.yul\":8975:8978   */\n      dup3\n        /* \"#utility.yul\":8971:8985   */\n      add\n        /* \"#utility.yul\":8956:8985   */\n      swap1\n      pop\n        /* \"#utility.yul\":8799:8991   */\n      swap3\n      swap2\n      pop\n      pop\n      jump\t// out\n        /* \"#utility.yul\":8997:9137   */\n    tag_256:\n        /* \"#utility.yul\":9072:9076   */\n      0x00\n        /* \"#utility.yul\":9095:9098   */\n      dup2\n        /* \"#utility.yul\":9087:9098   */\n      swap1\n      pop\n        /* \"#utility.yul\":9125:9129   */\n      0x20\n        /* \"#utility.yul\":9120:9123   */\n      dup3\n        /* \"#utility.yul\":9116:9130   */\n      add\n        /* \"#utility.yul\":9108:9130   */\n      swap1\n      pop\n        /* \"#utility.yul\":8997:9137   */\n      swap2\n      swap1\n      pop\n      jump\t// out\n        /* \"#utility.yul\":9143:9275   */\n    tag_257:\n        /* \"#utility.yul\":9236:9268   */\n      tag_383\n        /* \"#utility.yul\":9262:9267   */\n      dup2\n        /* \"#utility.yul\":9236:9268   */\n      tag_243\n      jump\t// in\n    tag_383:\n        /* \"#utility.yul\":9231:9234   */\n      dup3\n        /* \"#utility.yul\":9224:9269   */\n      mstore\n        /* \"#utility.yul\":9143:9275   */\n      pop\n      pop\n      jump\t// out\n        /* \"#utility.yul\":9281:9492   */\n    tag_258:\n        /* \"#utility.yul\":9366:9376   */\n      0x00\n        /* \"#utility.yul\":9387:9449   */\n      tag_385\n        /* \"#utility.yul\":9445:9448   */\n      dup4\n        /* \"#utility.yul\":9437:9443   */\n      dup4\n        /* \"#utility.yul\":9387:9449   */\n      tag_257\n      jump\t// in\n    tag_385:\n        /* \"#utility.yul\":9481:9485   */\n      0x20\n        /* \"#utility.yul\":9476:9479   */\n      dup4\n        /* \"#utility.yul\":9472:9486   */\n      add\n        /* \"#utility.yul\":9458:9486   */\n      swap1\n      pop\n        /* \"#utility.yul\":9281:9492   */\n      swap3\n      swap2\n      pop\n      pop\n      jump\t// out\n        /* \"#utility.yul\":9498:9619   */\n    tag_259:\n        /* \"#utility.yul\":9576:9580   */\n      0x00\n        /* \"#utility.yul\":9608:9612   */\n      0x20\n        /* \"#utility.yul\":9603:9606   */\n      dup3\n        /* \"#utility.yul\":9599:9613   */\n      add\n        /* \"#utility.yul\":9591:9613   */\n      swap1\n      pop\n        /* \"#utility.yul\":9498:9619   */\n      swap2\n      swap1\n      pop\n      jump\t// out\n        /* \"#utility.yul\":9671:10467   */\n    tag_260:\n        /* \"#utility.yul\":9806:9809   */\n      0x00\n        /* \"#utility.yul\":9835:9897   */\n      tag_388\n        /* \"#utility.yul\":9891:9896   */\n      dup3\n        /* \"#utility.yul\":9835:9897   */\n      tag_254\n      jump\t// in\n    tag_388:\n        /* \"#utility.yul\":9913:10007   */\n      tag_389\n        /* \"#utility.yul\":10000:10006   */\n      dup2\n        /* \"#utility.yul\":9995:9998   */\n      dup6\n        /* \"#utility.yul\":9913:10007   */\n      tag_255\n      jump\t// in\n    tag_389:\n        /* \"#utility.yul\":9906:10007   */\n      swap4\n      pop\n        /* \"#utility.yul\":10031:10095   */\n      tag_390\n        /* \"#utility.yul\":10089:10094   */\n      dup4\n        /* \"#utility.yul\":10031:10095   */\n      tag_256\n      jump\t// in\n    tag_390:\n        /* \"#utility.yul\":10118:10125   */\n      dup1\n        /* \"#utility.yul\":10149:10150   */\n      0x00\n        /* \"#utility.yul\":10134:10442   */\n    tag_391:\n        /* \"#utility.yul\":10159:10165   */\n      dup4\n        /* \"#utility.yul\":10156:10157   */\n      dup2\n        /* \"#utility.yul\":10153:10166   */\n      lt\n        /* \"#utility.yul\":10134:10442   */\n      iszero\n      tag_393\n      jumpi\n        /* \"#utility.yul\":10235:10241   */\n      dup2\n        /* \"#utility.yul\":10229:10242   */\n      mload\n        /* \"#utility.yul\":10262:10341   */\n      tag_394\n        /* \"#utility.yul\":10337:10340   */\n      dup9\n        /* \"#utility.yul\":10322:10335   */\n      dup3\n        /* \"#utility.yul\":10262:10341   */\n      tag_258\n      jump\t// in\n    tag_394:\n        /* \"#utility.yul\":10255:10341   */\n      swap8\n      pop\n        /* \"#utility.yul\":10364:10432   */\n      tag_395\n        /* \"#utility.yul\":10425:10431   */\n      dup4\n        /* \"#utility.yul\":10364:10432   */\n      tag_259\n      jump\t// in\n    tag_395:\n        /* \"#utility.yul\":10354:10432   */\n      swap3\n      pop\n        /* \"#utility.yul\":10194:10442   */\n      pop\n        /* \"#utility.yul\":10181:10182   */\n      0x01\n        /* \"#utility.yul\":10178:10179   */\n      dup2\n        /* \"#utility.yul\":10174:10183   */\n      add\n        /* \"#utility.yul\":10169:10183   */\n      swap1\n      pop\n        /* \"#utility.yul\":10134:10442   */\n      jump(tag_391)\n    tag_393:\n        /* \"#utility.yul\":10138:10152   */\n      pop\n        /* \"#utility.yul\":10458:10461   */\n      dup6\n        /* \"#utility.yul\":10451:10461   */\n      swap4\n      pop\n        /* \"#utility.yul\":9811:10467   */\n      pop\n      pop\n      pop\n        /* \"#utility.yul\":9671:10467   */\n      swap3\n      swap2\n      pop\n      pop\n      jump\t// out\n        /* \"#utility.yul\":10473:10878   */\n    tag_105:\n        /* \"#utility.yul\":10632:10636   */\n      0x00\n        /* \"#utility.yul\":10670:10672   */\n      0x20\n        /* \"#utility.yul\":10659:10668   */\n      dup3\n        /* \"#utility.yul\":10655:10673   */\n      add\n        /* \"#utility.yul\":10647:10673   */\n      swap1\n      pop\n        /* \"#utility.yul\":10719:10728   */\n      dup2\n        /* \"#utility.yul\":10713:10717   */\n      dup2\n        /* \"#utility.yul\":10709:10729   */\n      sub\n        /* \"#utility.yul\":10705:10706   */\n      0x00\n        /* \"#utility.yul\":10694:10703   */\n      dup4\n        /* \"#utility.yul\":10690:10707   */\n      add\n        /* \"#utility.yul\":10683:10730   */\n      mstore\n        /* \"#utility.yul\":10747:10871   */\n      tag_397\n        /* \"#utility.yul\":10866:10870   */\n      dup2\n        /* \"#utility.yul\":10857:10863   */\n      dup5\n        /* \"#utility.yul\":10747:10871   */\n      tag_260\n      jump\t// in\n    tag_397:\n        /* \"#utility.yul\":10739:10871   */\n      swap1\n      pop\n        /* \"#utility.yul\":10473:10878   */\n      swap3\n      swap2\n      pop\n      pop\n      jump\t// out\n        /* \"#utility.yul\":10884:10983   */\n    tag_261:\n        /* \"#utility.yul\":10936:10942   */\n      0x00\n        /* \"#utility.yul\":10970:10975   */\n      dup2\n        /* \"#utility.yul\":10964:10976   */\n      mload\n        /* \"#utility.yul\":10954:10976   */\n      swap1\n      pop\n        /* \"#utility.yul\":10884:10983   */\n      swap2\n      swap1\n      pop\n      jump\t// out\n        /* \"#utility.yul\":10989:11137   */\n    tag_262:\n        /* \"#utility.yul\":11091:11102   */\n      0x00\n        /* \"#utility.yul\":11128:11131   */\n      dup2\n        /* \"#utility.yul\":11113:11131   */\n      swap1\n      pop\n        /* \"#utility.yul\":10989:11137   */\n      swap3\n      swap2\n      pop\n      pop\n      jump\t// out\n        /* \"#utility.yul\":11143:11389   */\n    tag_263:\n        /* \"#utility.yul\":11224:11225   */\n      0x00\n        /* \"#utility.yul\":11234:11347   */\n    tag_401:\n        /* \"#utility.yul\":11248:11254   */\n      dup4\n        /* \"#utility.yul\":11245:11246   */\n      dup2\n        /* \"#utility.yul\":11242:11255   */\n      lt\n        /* \"#utility.yul\":11234:11347   */\n      iszero\n      tag_403\n      jumpi\n        /* \"#utility.yul\":11333:11334   */\n      dup1\n        /* \"#utility.yul\":11328:11331   */\n      dup3\n        /* \"#utility.yul\":11324:11335   */\n      add\n        /* \"#utility.yul\":11318:11336   */\n      mload\n        /* \"#utility.yul\":11314:11315   */\n      dup2\n        /* \"#utility.yul\":11309:11312   */\n      dup5\n        /* \"#utility.yul\":11305:11316   */\n      add\n        /* \"#utility.yul\":11298:11337   */\n      mstore\n        /* \"#utility.yul\":11270:11272   */\n      0x20\n        /* \"#utility.yul\":11267:11268   */\n      dup2\n        /* \"#utility.yul\":11263:11273   */\n      add\n        /* \"#utility.yul\":11258:11273   */\n      swap1\n      pop\n        /* \"#utility.yul\":11234:11347   */\n      jump(tag_401)\n    tag_403:\n        /* \"#utility.yul\":11381:11382   */\n      0x00\n        /* \"#utility.yul\":11372:11378   */\n      dup5\n        /* \"#utility.yul\":11367:11370   */\n      dup5\n        /* \"#utility.yul\":11363:11379   */\n      add\n        /* \"#utility.yul\":11356:11383   */\n      mstore\n        /* \"#utility.yul\":11205:11389   */\n      pop\n        /* \"#utility.yul\":11143:11389   */\n      pop\n      pop\n      pop\n      jump\t// out\n        /* \"#utility.yul\":11395:11785   */\n    tag_264:\n        /* \"#utility.yul\":11501:11504   */\n      0x00\n        /* \"#utility.yul\":11529:11568   */\n      tag_405\n        /* \"#utility.yul\":11562:11567   */\n      dup3\n        /* \"#utility.yul\":11529:11568   */\n      tag_261\n      jump\t// in\n    tag_405:\n        /* \"#utility.yul\":11584:11673   */\n      tag_406\n        /* \"#utility.yul\":11666:11672   */\n      dup2\n        /* \"#utility.yul\":11661:11664   */\n      dup6\n        /* \"#utility.yul\":11584:11673   */\n      tag_262\n      jump\t// in\n    tag_406:\n        /* \"#utility.yul\":11577:11673   */\n      swap4\n      pop\n        /* \"#utility.yul\":11682:11747   */\n      tag_407\n        /* \"#utility.yul\":11740:11746   */\n      dup2\n        /* \"#utility.yul\":11735:11738   */\n      dup6\n        /* \"#utility.yul\":11728:11732   */\n      0x20\n        /* \"#utility.yul\":11721:11726   */\n      dup7\n        /* \"#utility.yul\":11717:11733   */\n      add\n        /* \"#utility.yul\":11682:11747   */\n      tag_263\n      jump\t// in\n    tag_407:\n        /* \"#utility.yul\":11772:11778   */\n      dup1\n        /* \"#utility.yul\":11767:11770   */\n      dup5\n        /* \"#utility.yul\":11763:11779   */\n      add\n        /* \"#utility.yul\":11756:11779   */\n      swap2\n      pop\n        /* \"#utility.yul\":11505:11785   */\n      pop\n        /* \"#utility.yul\":11395:11785   */\n      swap3\n      swap2\n      pop\n      pop\n      jump\t// out\n        /* \"#utility.yul\":11791:12066   */\n    tag_112:\n        /* \"#utility.yul\":11923:11926   */\n      0x00\n        /* \"#utility.yul\":11945:12040   */\n      tag_409\n        /* \"#utility.yul\":12036:12039   */\n      dup3\n        /* \"#utility.yul\":12027:12033   */\n      dup5\n        /* \"#utility.yul\":11945:12040   */\n      tag_264\n      jump\t// in\n    tag_409:\n        /* \"#utility.yul\":11938:12040   */\n      swap2\n      pop\n        /* \"#utility.yul\":12057:12060   */\n      dup2\n        /* \"#utility.yul\":12050:12060   */\n      swap1\n      pop\n        /* \"#utility.yul\":11791:12066   */\n      swap3\n      swap2\n      pop\n      pop\n      jump\t// out\n        /* \"#utility.yul\":12072:12241   */\n    tag_265:\n        /* \"#utility.yul\":12156:12167   */\n      0x00\n        /* \"#utility.yul\":12190:12196   */\n      dup3\n        /* \"#utility.yul\":12185:12188   */\n      dup3\n        /* \"#utility.yul\":12178:12197   */\n      mstore\n        /* \"#utility.yul\":12230:12234   */\n      0x20\n        /* \"#utility.yul\":12225:12228   */\n      dup3\n        /* \"#utility.yul\":12221:12235   */\n      add\n        /* \"#utility.yul\":12206:12235   */\n      swap1\n      pop\n        /* \"#utility.yul\":12072:12241   */\n      swap3\n      swap2\n      pop\n      pop\n      jump\t// out\n        /* \"#utility.yul\":12247:12424   */\n    tag_266:\n        /* \"#utility.yul\":12387:12416   */\n      0x54686973206163636f756e7420646f6573206e6f742065786973740000000000\n        /* \"#utility.yul\":12383:12384   */\n      0x00\n        /* \"#utility.yul\":12375:12381   */\n      dup3\n        /* \"#utility.yul\":12371:12385   */\n      add\n        /* \"#utility.yul\":12364:12417   */\n      mstore\n        /* \"#utility.yul\":12247:12424   */\n      pop\n      jump\t// out\n        /* \"#utility.yul\":12430:12796   */\n    tag_267:\n        /* \"#utility.yul\":12572:12575   */\n      0x00\n        /* \"#utility.yul\":12593:12660   */\n      tag_413\n        /* \"#utility.yul\":12657:12659   */\n      0x1b\n        /* \"#utility.yul\":12652:12655   */\n      dup4\n        /* \"#utility.yul\":12593:12660   */\n      tag_265\n      jump\t// in\n    tag_413:\n        /* \"#utility.yul\":12586:12660   */\n      swap2\n      pop\n        /* \"#utility.yul\":12669:12762   */\n      tag_414\n        /* \"#utility.yul\":12758:12761   */\n      dup3\n        /* \"#utility.yul\":12669:12762   */\n      tag_266\n      jump\t// in\n    tag_414:\n        /* \"#utility.yul\":12787:12789   */\n      0x20\n        /* \"#utility.yul\":12782:12785   */\n      dup3\n        /* \"#utility.yul\":12778:12790   */\n      add\n        /* \"#utility.yul\":12771:12790   */\n      swap1\n      pop\n        /* \"#utility.yul\":12430:12796   */\n      swap2\n      swap1\n      pop\n      jump\t// out\n        /* \"#utility.yul\":12802:13221   */\n    tag_115:\n        /* \"#utility.yul\":12968:12972   */\n      0x00\n        /* \"#utility.yul\":13006:13008   */\n      0x20\n        /* \"#utility.yul\":12995:13004   */\n      dup3\n        /* \"#utility.yul\":12991:13009   */\n      add\n        /* \"#utility.yul\":12983:13009   */\n      swap1\n      pop\n        /* \"#utility.yul\":13055:13064   */\n      dup2\n        /* \"#utility.yul\":13049:13053   */\n      dup2\n        /* \"#utility.yul\":13045:13065   */\n      sub\n        /* \"#utility.yul\":13041:13042   */\n      0x00\n        /* \"#utility.yul\":13030:13039   */\n      dup4\n        /* \"#utility.yul\":13026:13043   */\n      add\n        /* \"#utility.yul\":13019:13066   */\n      mstore\n        /* \"#utility.yul\":13083:13214   */\n      tag_416\n        /* \"#utility.yul\":13209:13213   */\n      dup2\n        /* \"#utility.yul\":13083:13214   */\n      tag_267\n      jump\t// in\n    tag_416:\n        /* \"#utility.yul\":13075:13214   */\n      swap1\n      pop\n        /* \"#utility.yul\":12802:13221   */\n      swap2\n      swap1\n      pop\n      jump\t// out\n        /* \"#utility.yul\":13227:13407   */\n    tag_268:\n        /* \"#utility.yul\":13275:13352   */\n      0x4e487b7100000000000000000000000000000000000000000000000000000000\n        /* \"#utility.yul\":13272:13273   */\n      0x00\n        /* \"#utility.yul\":13265:13353   */\n      mstore\n        /* \"#utility.yul\":13372:13376   */\n      0x11\n        /* \"#utility.yul\":13369:13370   */\n      0x04\n        /* \"#utility.yul\":13362:13377   */\n      mstore\n        /* \"#utility.yul\":13396:13400   */\n      0x24\n        /* \"#utility.yul\":13393:13394   */\n      0x00\n        /* \"#utility.yul\":13386:13401   */\n      revert\n        /* \"#utility.yul\":13413:13607   */\n    tag_119:\n        /* \"#utility.yul\":13453:13457   */\n      0x00\n        /* \"#utility.yul\":13473:13493   */\n      tag_419\n        /* \"#utility.yul\":13491:13492   */\n      dup3\n        /* \"#utility.yul\":13473:13493   */\n      tag_248\n      jump\t// in\n    tag_419:\n        /* \"#utility.yul\":13468:13493   */\n      swap2\n      pop\n        /* \"#utility.yul\":13507:13527   */\n      tag_420\n        /* \"#utility.yul\":13525:13526   */\n      dup4\n        /* \"#utility.yul\":13507:13527   */\n      tag_248\n      jump\t// in\n    tag_420:\n        /* \"#utility.yul\":13502:13527   */\n      swap3\n      pop\n        /* \"#utility.yul\":13551:13552   */\n      dup3\n        /* \"#utility.yul\":13548:13549   */\n      dup3\n        /* \"#utility.yul\":13544:13553   */\n      sub\n        /* \"#utility.yul\":13536:13553   */\n      swap1\n      pop\n        /* \"#utility.yul\":13575:13576   */\n      dup2\n        /* \"#utility.yul\":13569:13573   */\n      dup2\n        /* \"#utility.yul\":13566:13577   */\n      gt\n        /* \"#utility.yul\":13563:13600   */\n      iszero\n      tag_421\n      jumpi\n        /* \"#utility.yul\":13580:13598   */\n      tag_422\n      tag_268\n      jump\t// in\n    tag_422:\n        /* \"#utility.yul\":13563:13600   */\n    tag_421:\n        /* \"#utility.yul\":13413:13607   */\n      swap3\n      swap2\n      pop\n      pop\n      jump\t// out\n        /* \"#utility.yul\":13613:13793   */\n    tag_123:\n        /* \"#utility.yul\":13661:13738   */\n      0x4e487b7100000000000000000000000000000000000000000000000000000000\n        /* \"#utility.yul\":13658:13659   */\n      0x00\n        /* \"#utility.yul\":13651:13739   */\n      mstore\n        /* \"#utility.yul\":13758:13762   */\n      0x32\n        /* \"#utility.yul\":13755:13756   */\n      0x04\n        /* \"#utility.yul\":13748:13763   */\n      mstore\n        /* \"#utility.yul\":13782:13786   */\n      0x24\n        /* \"#utility.yul\":13779:13780   */\n      0x00\n        /* \"#utility.yul\":13772:13787   */\n      revert\n        /* \"#utility.yul\":13799:13979   */\n    tag_130:\n        /* \"#utility.yul\":13847:13924   */\n      0x4e487b7100000000000000000000000000000000000000000000000000000000\n        /* \"#utility.yul\":13844:13845   */\n      0x00\n        /* \"#utility.yul\":13837:13925   */\n      mstore\n        /* \"#utility.yul\":13944:13948   */\n      0x31\n        /* \"#utility.yul\":13941:13942   */\n      0x04\n        /* \"#utility.yul\":13934:13949   */\n      mstore\n        /* \"#utility.yul\":13968:13972   */\n      0x24\n        /* \"#utility.yul\":13965:13966   */\n      0x00\n        /* \"#utility.yul\":13958:13973   */\n      revert\n        /* \"#utility.yul\":13985:14162   */\n    tag_269:\n        /* \"#utility.yul\":14125:14154   */\n      0x54686973206163636f756e7420616c7265616479206578697374730000000000\n        /* \"#utility.yul\":14121:14122   */\n      0x00\n        /* \"#utility.yul\":14113:14119   */\n      dup3\n        /* \"#utility.yul\":14109:14123   */\n      add\n        /* \"#utility.yul\":14102:14155   */\n      mstore\n        /* \"#utility.yul\":13985:14162   */\n      pop\n      jump\t// out\n        /* \"#utility.yul\":14168:14534   */\n    tag_270:\n        /* \"#utility.yul\":14310:14313   */\n      0x00\n        /* \"#utility.yul\":14331:14398   */\n      tag_427\n        /* \"#utility.yul\":14395:14397   */\n      0x1b\n        /* \"#utility.yul\":14390:14393   */\n      dup4\n        /* \"#utility.yul\":14331:14398   */\n      tag_265\n      jump\t// in\n    tag_427:\n        /* \"#utility.yul\":14324:14398   */\n      swap2\n      pop\n        /* \"#utility.yul\":14407:14500   */\n      tag_428\n        /* \"#utility.yul\":14496:14499   */\n      dup3\n        /* \"#utility.yul\":14407:14500   */\n      tag_269\n      jump\t// in\n    tag_428:\n        /* \"#utility.yul\":14525:14527   */\n      0x20\n        /* \"#utility.yul\":14520:14523   */\n      dup3\n        /* \"#utility.yul\":14516:14528   */\n      add\n        /* \"#utility.yul\":14509:14528   */\n      swap1\n      pop\n        /* \"#utility.yul\":14168:14534   */\n      swap2\n      swap1\n      pop\n      jump\t// out\n        /* \"#utility.yul\":14540:14959   */\n    tag_139:\n        /* \"#utility.yul\":14706:14710   */\n      0x00\n        /* \"#utility.yul\":14744:14746   */\n      0x20\n        /* \"#utility.yul\":14733:14742   */\n      dup3\n        /* \"#utility.yul\":14729:14747   */\n      add\n        /* \"#utility.yul\":14721:14747   */\n      swap1\n      pop\n        /* \"#utility.yul\":14793:14802   */\n      dup2\n        /* \"#utility.yul\":14787:14791   */\n      dup2\n        /* \"#utility.yul\":14783:14803   */\n      sub\n        /* \"#utility.yul\":14779:14780   */\n      0x00\n        /* \"#utility.yul\":14768:14777   */\n      dup4\n        /* \"#utility.yul\":14764:14781   */\n      add\n        /* \"#utility.yul\":14757:14804   */\n      mstore\n        /* \"#utility.yul\":14821:14952   */\n      tag_430\n        /* \"#utility.yul\":14947:14951   */\n      dup2\n        /* \"#utility.yul\":14821:14952   */\n      tag_270\n      jump\t// in\n    tag_430:\n        /* \"#utility.yul\":14813:14952   */\n      swap1\n      pop\n        /* \"#utility.yul\":14540:14959   */\n      swap2\n      swap1\n      pop\n      jump\t// out\n        /* \"#utility.yul\":14965:15156   */\n    tag_145:\n        /* \"#utility.yul\":15005:15008   */\n      0x00\n        /* \"#utility.yul\":15024:15044   */\n      tag_432\n        /* \"#utility.yul\":15042:15043   */\n      dup3\n        /* \"#utility.yul\":15024:15044   */\n      tag_248\n      jump\t// in\n    tag_432:\n        /* \"#utility.yul\":15019:15044   */\n      swap2\n      pop\n        /* \"#utility.yul\":15058:15078   */\n      tag_433\n        /* \"#utility.yul\":15076:15077   */\n      dup4\n        /* \"#utility.yul\":15058:15078   */\n      tag_248\n      jump\t// in\n    tag_433:\n        /* \"#utility.yul\":15053:15078   */\n      swap3\n      pop\n        /* \"#utility.yul\":15101:15102   */\n      dup3\n        /* \"#utility.yul\":15098:15099   */\n      dup3\n        /* \"#utility.yul\":15094:15103   */\n      add\n        /* \"#utility.yul\":15087:15103   */\n      swap1\n      pop\n        /* \"#utility.yul\":15122:15125   */\n      dup1\n        /* \"#utility.yul\":15119:15120   */\n      dup3\n        /* \"#utility.yul\":15116:15126   */\n      gt\n        /* \"#utility.yul\":15113:15149   */\n      iszero\n      tag_434\n      jumpi\n        /* \"#utility.yul\":15129:15147   */\n      tag_435\n      tag_268\n      jump\t// in\n    tag_435:\n        /* \"#utility.yul\":15113:15149   */\n    tag_434:\n        /* \"#utility.yul\":14965:15156   */\n      swap3\n      swap2\n      pop\n      pop\n      jump\t// out\n        /* \"#utility.yul\":15162:15325   */\n    tag_271:\n        /* \"#utility.yul\":15302:15317   */\n      0x4163636573732044656e69656400000000000000000000000000000000000000\n        /* \"#utility.yul\":15298:15299   */\n      0x00\n        /* \"#utility.yul\":15290:15296   */\n      dup3\n        /* \"#utility.yul\":15286:15300   */\n      add\n        /* \"#utility.yul\":15279:15318   */\n      mstore\n        /* \"#utility.yul\":15162:15325   */\n      pop\n      jump\t// out\n        /* \"#utility.yul\":15331:15697   */\n    tag_272:\n        /* \"#utility.yul\":15473:15476   */\n      0x00\n        /* \"#utility.yul\":15494:15561   */\n      tag_438\n        /* \"#utility.yul\":15558:15560   */\n      0x0d\n        /* \"#utility.yul\":15553:15556   */\n      dup4\n        /* \"#utility.yul\":15494:15561   */\n      tag_265\n      jump\t// in\n    tag_438:\n        /* \"#utility.yul\":15487:15561   */\n      swap2\n      pop\n        /* \"#utility.yul\":15570:15663   */\n      tag_439\n        /* \"#utility.yul\":15659:15662   */\n      dup3\n        /* \"#utility.yul\":15570:15663   */\n      tag_271\n      jump\t// in\n    tag_439:\n        /* \"#utility.yul\":15688:15690   */\n      0x20\n        /* \"#utility.yul\":15683:15686   */\n      dup3\n        /* \"#utility.yul\":15679:15691   */\n      add\n        /* \"#utility.yul\":15672:15691   */\n      swap1\n      pop\n        /* \"#utility.yul\":15331:15697   */\n      swap2\n      swap1\n      pop\n      jump\t// out\n        /* \"#utility.yul\":15703:16122   */\n    tag_163:\n        /* \"#utility.yul\":15869:15873   */\n      0x00\n        /* \"#utility.yul\":15907:15909   */\n      0x20\n        /* \"#utility.yul\":15896:15905   */\n      dup3\n        /* \"#utility.yul\":15892:15910   */\n      add\n        /* \"#utility.yul\":15884:15910   */\n      swap1\n      pop\n        /* \"#utility.yul\":15956:15965   */\n      dup2\n        /* \"#utility.yul\":15950:15954   */\n      dup2\n        /* \"#utility.yul\":15946:15966   */\n      sub\n        /* \"#utility.yul\":15942:15943   */\n      0x00\n        /* \"#utility.yul\":15931:15940   */\n      dup4\n        /* \"#utility.yul\":15927:15944   */\n      add\n        /* \"#utility.yul\":15920:15967   */\n      mstore\n        /* \"#utility.yul\":15984:16115   */\n      tag_441\n        /* \"#utility.yul\":16110:16114   */\n      dup2\n        /* \"#utility.yul\":15984:16115   */\n      tag_272\n      jump\t// in\n    tag_441:\n        /* \"#utility.yul\":15976:16115   */\n      swap1\n      pop\n        /* \"#utility.yul\":15703:16122   */\n      swap2\n      swap1\n      pop\n      jump\t// out\n        /* \"#utility.yul\":16128:16361   */\n    tag_197:\n        /* \"#utility.yul\":16167:16170   */\n      0x00\n        /* \"#utility.yul\":16190:16214   */\n      tag_443\n        /* \"#utility.yul\":16208:16213   */\n      dup3\n        /* \"#utility.yul\":16190:16214   */\n      tag_248\n      jump\t// in\n    tag_443:\n        /* \"#utility.yul\":16181:16214   */\n      swap2\n      pop\n        /* \"#utility.yul\":16236:16302   */\n      0xffffffffffffffffffffffffffffffffffffffffffffffffffffffffffffffff\n        /* \"#utility.yul\":16229:16234   */\n      dup3\n        /* \"#utility.yul\":16226:16303   */\n      sub\n        /* \"#utility.yul\":16223:16326   */\n      tag_444\n      jumpi\n        /* \"#utility.yul\":16306:16324   */\n      tag_445\n      tag_268\n      jump\t// in\n    tag_445:\n        /* \"#utility.yul\":16223:16326   */\n    tag_444:\n        /* \"#utility.yul\":16353:16354   */\n      0x01\n        /* \"#utility.yul\":16346:16351   */\n      dup3\n        /* \"#utility.yul\":16342:16355   */\n      add\n        /* \"#utility.yul\":16335:16355   */\n      swap1\n      pop\n        /* \"#utility.yul\":16128:16361   */\n      swap2\n      swap1\n      pop\n      jump\t// out\n        /* \"#utility.yul\":16367:16485   */\n    tag_273:\n        /* \"#utility.yul\":16454:16478   */\n      tag_447\n        /* \"#utility.yul\":16472:16477   */\n      dup2\n        /* \"#utility.yul\":16454:16478   */\n      tag_245\n      jump\t// in\n    tag_447:\n        /* \"#utility.yul\":16449:16452   */\n      dup3\n        /* \"#utility.yul\":16442:16479   */\n      mstore\n        /* \"#utility.yul\":16367:16485   */\n      pop\n      pop\n      jump\t// out\n        /* \"#utility.yul\":16491:16823   */\n    tag_225:\n        /* \"#utility.yul\":16612:16616   */\n      0x00\n        /* \"#utility.yul\":16650:16652   */\n      0x40\n        /* \"#utility.yul\":16639:16648   */\n      dup3\n        /* \"#utility.yul\":16635:16653   */\n      add\n        /* \"#utility.yul\":16627:16653   */\n      swap1\n      pop\n        /* \"#utility.yul\":16663:16734   */\n      tag_449\n        /* \"#utility.yul\":16731:16732   */\n      0x00\n        /* \"#utility.yul\":16720:16729   */\n      dup4\n        /* \"#utility.yul\":16716:16733   */\n      add\n        /* \"#utility.yul\":16707:16713   */\n      dup6\n        /* \"#utility.yul\":16663:16734   */\n      tag_273\n      jump\t// in\n    tag_449:\n        /* \"#utility.yul\":16744:16816   */\n      tag_450\n        /* \"#utility.yul\":16812:16814   */\n      0x20\n        /* \"#utility.yul\":16801:16810   */\n      dup4\n        /* \"#utility.yul\":16797:16815   */\n      add\n        /* \"#utility.yul\":16788:16794   */\n      dup5\n        /* \"#utility.yul\":16744:16816   */\n      tag_241\n      jump\t// in\n    tag_450:\n        /* \"#utility.yul\":16491:16823   */\n      swap4\n      swap3\n      pop\n      pop\n      pop\n      jump\t// out\n\n    auxdata: 0xa264697066735822122006434afbdebaf9517ebba5b7576170d6facb4bca576cced4ece67d3f3799bde464736f6c63430008120033\n}\n",
				"bytecode": {
					"linkReferences": {},
					"object": "60806040523480156200001157600080fd5b50620000226200010e60201b60201c565b600260006101000a81548173ffffffffffffffffffffffffffffffffffffffff021916908373ffffffffffffffffffffffffffffffffffffffff160217905550620000866000801b6200007a6200010e60201b60201c565b6200011660201b60201c565b6200009e6000801b6000801b620001ef60201b60201c565b620000d37ffbdd29218e0fd410aa4914ea600f6e75b12c2b3d0a124cf98105f27e68e78f146000801b620001ef60201b60201c565b620001087fb15816d06d2f312e69ceda9d92d111fbaaa18ddc93327dbb79cf2c4c8829d99b6000801b620001ef60201b60201c565b6200020d565b600033905090565b600160008084815260200190815260200160002060000160008373ffffffffffffffffffffffffffffffffffffffff1673ffffffffffffffffffffffffffffffffffffffff16815260200190815260200160002060006101000a81548160ff021916908315150217905550620001916200010e60201b60201c565b73ffffffffffffffffffffffffffffffffffffffff168173ffffffffffffffffffffffffffffffffffffffff16837f2f8788117e7eff1d82e926ec794901d17c78024a50270940304540a733656f0d60405160405180910390a45050565b80600080848152602001908152602001600020600101819055505050565b61196b806200021d6000396000f3fe6080604052600436106100fe5760003560e01c80635516191311610095578063b721ef6e11610064578063b721ef6e14610324578063d547741f14610362578063e9e25ec21461038b578063fbde538e146103b4578063ffd4ba40146103df576100fe565b80635516191314610289578063603a552e146102935780637612997d146102be57806391d14854146102e7576100fe565b80632f2ff15d116100d15780632f2ff15d146101cf57806336568abe146101f85780633dccf38c146102215780634d547ada1461025e576100fe565b80630ff9ebbe14610103578063154be3b21461012c578063248a9ca3146101555780632cc2548f14610192575b600080fd5b34801561010f57600080fd5b5061012a600480360381019061012591906111ef565b61041c565b005b34801561013857600080fd5b50610153600480360381019061014e91906111ef565b610670565b005b34801561016157600080fd5b5061017c6004803603810190610177919061124b565b6107f8565b6040516101899190611287565b60405180910390f35b34801561019e57600080fd5b506101b960048036038101906101b491906112a2565b610817565b6040516101c6919061132c565b60405180910390f35b3480156101db57600080fd5b506101f660048036038101906101f19190611385565b610860565b005b34801561020457600080fd5b5061021f600480360381019061021a9190611385565b610881565b005b34801561022d57600080fd5b50610248600480360381019061024391906113fb565b6108fb565b604051610255919061132c565b60405180910390f35b34801561026a57600080fd5b5061027361093a565b6040516102809190611287565b60405180910390f35b61029161095e565b005b34801561029f57600080fd5b506102a8610a10565b6040516102b59190611287565b60405180910390f35b3480156102ca57600080fd5b506102e560048036038101906102e09190611428565b610a34565b005b3480156102f357600080fd5b5061030e60048036038101906103099190611385565b610a8f565b60405161031b9190611483565b60405180910390f35b34801561033057600080fd5b5061034b6004803603810190610346919061149e565b610af9565b6040516103599291906114da565b60405180910390f35b34801561036e57600080fd5b5061038960048036038101906103849190611385565b610b1d565b005b34801561039757600080fd5b506103b260048036038101906103ad91906112a2565b610b3e565b005b3480156103c057600080fd5b506103c9610ba5565b6040516103d69190611287565b60405180910390f35b3480156103eb57600080fd5b506104066004803603810190610401919061124b565b610bac565b60405161041391906115c1565b60405180910390f35b610425826107f8565b61042e81610d55565b60006005836040516104409190611654565b908152602001604051809103902060009054906101000a900473ffffffffffffffffffffffffffffffffffffffff1690506000600460008373ffffffffffffffffffffffffffffffffffffffff1673ffffffffffffffffffffffffffffffffffffffff168152602001908152602001600020905060008160000154036104fb576040517f08c379a00000000000000000000000000000000000000000000000000000000081526004016104f2906116c8565b60405180910390fd5b6105058583610d69565b6000600182600001546105189190611717565b90506000600360016003805490506105309190611717565b815481106105415761054061174b565b5b9060005260206000200160009054906101000a900473ffffffffffffffffffffffffffffffffffffffff16905080600383815481106105835761058261174b565b5b9060005260206000200160006101000a81548173ffffffffffffffffffffffffffffffffffffffff021916908373ffffffffffffffffffffffffffffffffffffffff1602179055508260000154600460008373ffffffffffffffffffffffffffffffffffffffff1673ffffffffffffffffffffffffffffffffffffffff1681526020019081526020016000206000018190555060038054806106285761062761177a565b5b6001900381819060005260206000200160006101000a81549073ffffffffffffffffffffffffffffffffffffffff021916905590556000836000018190555050505050505050565b610679826107f8565b61068281610d55565b60006005836040516106949190611654565b908152602001604051809103902060009054906101000a900473ffffffffffffffffffffffffffffffffffffffff1690506000600460008373ffffffffffffffffffffffffffffffffffffffff1673ffffffffffffffffffffffffffffffffffffffff1681526020019081526020016000209050600081600001541461074f576040517f08c379a0000000000000000000000000000000000000000000000000000000008152600401610746906117f5565b60405180910390fd5b6107598583610e4a565b8481600101819055506003829080600181540180825580915050600190039060005260206000200160009091909190916101000a81548173ffffffffffffffffffffffffffffffffffffffff021916908373ffffffffffffffffffffffffffffffffffffffff160217905550600060016003805490506107d99190611717565b90506001816107e89190611815565b8260000181905550505050505050565b6000806000838152602001908152602001600020600101549050919050565b6005818051602081018201805184825260208301602085012081835280955050505050506000915054906101000a900473ffffffffffffffffffffffffffffffffffffffff1681565b610869826107f8565b61087281610d55565b61087c8383610e4a565b505050565b610889610f2a565b73ffffffffffffffffffffffffffffffffffffffff168173ffffffffffffffffffffffffffffffffffffffff16146108ed576040517f6697b23200000000000000000000000000000000000000000000000000000000815260040160405180910390fd5b6108f78282610d69565b5050565b6003818154811061090b57600080fd5b906000526020600020016000915054906101000a900473ffffffffffffffffffffffffffffffffffffffff1681565b7ffbdd29218e0fd410aa4914ea600f6e75b12c2b3d0a124cf98105f27e68e78f1481565b600260009054906101000a900473ffffffffffffffffffffffffffffffffffffffff1673ffffffffffffffffffffffffffffffffffffffff1661099f610f2a565b73ffffffffffffffffffffffffffffffffffffffff16146109f5576040517f08c379a00000000000000000000000000000000000000000000000000000000081526004016109ec90611895565b60405180910390fd5b3460016000828254610a079190611815565b92505081905550565b7fb15816d06d2f312e69ceda9d92d111fbaaa18ddc93327dbb79cf2c4c8829d99b81565b6000610a3f836107f8565b905081600080858152602001908152602001600020600101819055508181847fbd79b86ffe0ab8e8776151514217cd7cacd52c909f66475c3af44e129f0b00ff60405160405180910390a4505050565b600080600084815260200190815260200160002060000160008373ffffffffffffffffffffffffffffffffffffffff1673ffffffffffffffffffffffffffffffffffffffff16815260200190815260200160002060009054906101000a900460ff16905092915050565b60046020528060005260406000206000915090508060000154908060010154905082565b610b26826107f8565b610b2f81610d55565b610b398383610d69565b505050565b610b46610f2a565b600582604051610b569190611654565b908152602001604051809103902060006101000a81548173ffffffffffffffffffffffffffffffffffffffff021916908373ffffffffffffffffffffffffffffffffffffffff16021790555050565b6000801b81565b60606000610bb983610f32565b905060008167ffffffffffffffff811115610bd757610bd66110c4565b5b604051908082528060200260200182016040528015610c055781602001602082028036833780820191505090505b50905060005b6003805490508111610d4a5760006004600060038481548110610c3157610c3061174b565b5b9060005260206000200160009054906101000a900473ffffffffffffffffffffffffffffffffffffffff1673ffffffffffffffffffffffffffffffffffffffff1673ffffffffffffffffffffffffffffffffffffffff1681526020019081526020016000209050600081600101549050868103610d355760038381548110610cbc57610cbb61174b565b5b9060005260206000200160009054906101000a900473ffffffffffffffffffffffffffffffffffffffff16848481518110610cfa57610cf961174b565b5b602002602001019073ffffffffffffffffffffffffffffffffffffffff16908173ffffffffffffffffffffffffffffffffffffffff16815250505b50508080610d42906118b5565b915050610c0b565b508092505050919050565b610d6681610d61610f2a565b611007565b50565b610d738282610a8f565b15610e4657600080600084815260200190815260200160002060000160008373ffffffffffffffffffffffffffffffffffffffff1673ffffffffffffffffffffffffffffffffffffffff16815260200190815260200160002060006101000a81548160ff021916908315150217905550610deb610f2a565b73ffffffffffffffffffffffffffffffffffffffff168173ffffffffffffffffffffffffffffffffffffffff16837ff6391f5c32d9c69d2a47ea670b442974b53935d1edc7fd64eb21e047a839171b60405160405180910390a45b5050565b610e548282610a8f565b610f2657600160008084815260200190815260200160002060000160008373ffffffffffffffffffffffffffffffffffffffff1673ffffffffffffffffffffffffffffffffffffffff16815260200190815260200160002060006101000a81548160ff021916908315150217905550610ecb610f2a565b73ffffffffffffffffffffffffffffffffffffffff168173ffffffffffffffffffffffffffffffffffffffff16837f2f8788117e7eff1d82e926ec794901d17c78024a50270940304540a733656f0d60405160405180910390a45b5050565b600033905090565b6000806000905060005b6003805490508111610ffd5760006004600060038481548110610f6257610f6161174b565b5b9060005260206000200160009054906101000a900473ffffffffffffffffffffffffffffffffffffffff1673ffffffffffffffffffffffffffffffffffffffff1673ffffffffffffffffffffffffffffffffffffffff1681526020019081526020016000209050600081600101549050858103610fe8578380610fe4906118b5565b9450505b50508080610ff5906118b5565b915050610f3c565b5080915050919050565b600015156110158383610a8f565b15150361105b5780826040517fe2517d3f00000000000000000000000000000000000000000000000000000000815260040161105292919061190c565b60405180910390fd5b5050565b6000604051905090565b600080fd5b600080fd5b6000819050919050565b61108681611073565b811461109157600080fd5b50565b6000813590506110a38161107d565b92915050565b600080fd5b600080fd5b6000601f19601f8301169050919050565b7f4e487b7100000000000000000000000000000000000000000000000000000000600052604160045260246000fd5b6110fc826110b3565b810181811067ffffffffffffffff8211171561111b5761111a6110c4565b5b80604052505050565b600061112e61105f565b905061113a82826110f3565b919050565b600067ffffffffffffffff82111561115a576111596110c4565b5b611163826110b3565b9050602081019050919050565b82818337600083830152505050565b600061119261118d8461113f565b611124565b9050828152602081018484840111156111ae576111ad6110ae565b5b6111b9848285611170565b509392505050565b600082601f8301126111d6576111d56110a9565b5b81356111e684826020860161117f565b91505092915050565b6000806040838503121561120657611205611069565b5b600061121485828601611094565b925050602083013567ffffffffffffffff8111156112355761123461106e565b5b611241858286016111c1565b9150509250929050565b60006020828403121561126157611260611069565b5b600061126f84828501611094565b91505092915050565b61128181611073565b82525050565b600060208201905061129c6000830184611278565b92915050565b6000602082840312156112b8576112b7611069565b5b600082013567ffffffffffffffff8111156112d6576112d561106e565b5b6112e2848285016111c1565b91505092915050565b600073ffffffffffffffffffffffffffffffffffffffff82169050919050565b6000611316826112eb565b9050919050565b6113268161130b565b82525050565b6000602082019050611341600083018461131d565b92915050565b6000611352826112eb565b9050919050565b61136281611347565b811461136d57600080fd5b50565b60008135905061137f81611359565b92915050565b6000806040838503121561139c5761139b611069565b5b60006113aa85828601611094565b92505060206113bb85828601611370565b9150509250929050565b6000819050919050565b6113d8816113c5565b81146113e357600080fd5b50565b6000813590506113f5816113cf565b92915050565b60006020828403121561141157611410611069565b5b600061141f848285016113e6565b91505092915050565b6000806040838503121561143f5761143e611069565b5b600061144d85828601611094565b925050602061145e85828601611094565b9150509250929050565b60008115159050919050565b61147d81611468565b82525050565b60006020820190506114986000830184611474565b92915050565b6000602082840312156114b4576114b3611069565b5b60006114c284828501611370565b91505092915050565b6114d4816113c5565b82525050565b60006040820190506114ef60008301856114cb565b6114fc6020830184611278565b9392505050565b600081519050919050565b600082825260208201905092915050565b6000819050602082019050919050565b6115388161130b565b82525050565b600061154a838361152f565b60208301905092915050565b6000602082019050919050565b600061156e82611503565b611578818561150e565b93506115838361151f565b8060005b838110156115b457815161159b888261153e565b97506115a683611556565b925050600181019050611587565b5085935050505092915050565b600060208201905081810360008301526115db8184611563565b905092915050565b600081519050919050565b600081905092915050565b60005b838110156116175780820151818401526020810190506115fc565b60008484015250505050565b600061162e826115e3565b61163881856115ee565b93506116488185602086016115f9565b80840191505092915050565b60006116608284611623565b915081905092915050565b600082825260208201905092915050565b7f54686973206163636f756e7420646f6573206e6f742065786973740000000000600082015250565b60006116b2601b8361166b565b91506116bd8261167c565b602082019050919050565b600060208201905081810360008301526116e1816116a5565b9050919050565b7f4e487b7100000000000000000000000000000000000000000000000000000000600052601160045260246000fd5b6000611722826113c5565b915061172d836113c5565b9250828203905081811115611745576117446116e8565b5b92915050565b7f4e487b7100000000000000000000000000000000000000000000000000000000600052603260045260246000fd5b7f4e487b7100000000000000000000000000000000000000000000000000000000600052603160045260246000fd5b7f54686973206163636f756e7420616c7265616479206578697374730000000000600082015250565b60006117df601b8361166b565b91506117ea826117a9565b602082019050919050565b6000602082019050818103600083015261180e816117d2565b9050919050565b6000611820826113c5565b915061182b836113c5565b9250828201905080821115611843576118426116e8565b5b92915050565b7f4163636573732044656e69656400000000000000000000000000000000000000600082015250565b600061187f600d8361166b565b915061188a82611849565b602082019050919050565b600060208201905081810360008301526118ae81611872565b9050919050565b60006118c0826113c5565b91507fffffffffffffffffffffffffffffffffffffffffffffffffffffffffffffffff82036118f2576118f16116e8565b5b600182019050919050565b61190681611347565b82525050565b600060408201905061192160008301856118fd565b61192e6020830184611278565b939250505056fea264697066735822122006434afbdebaf9517ebba5b7576170d6facb4bca576cced4ece67d3f3799bde464736f6c63430008120033",
					"opcodes": "PUSH1 0x80 PUSH1 0x40 MSTORE CALLVALUE DUP1 ISZERO PUSH3 0x11 JUMPI PUSH1 0x0 DUP1 REVERT JUMPDEST POP PUSH3 0x22 PUSH3 0x10E PUSH1 0x20 SHL PUSH1 0x20 SHR JUMP JUMPDEST PUSH1 0x2 PUSH1 0x0 PUSH2 0x100 EXP DUP2 SLOAD DUP2 PUSH20 0xFFFFFFFFFFFFFFFFFFFFFFFFFFFFFFFFFFFFFFFF MUL NOT AND SWAP1 DUP4 PUSH20 0xFFFFFFFFFFFFFFFFFFFFFFFFFFFFFFFFFFFFFFFF AND MUL OR SWAP1 SSTORE POP PUSH3 0x86 PUSH1 0x0 DUP1 SHL PUSH3 0x7A PUSH3 0x10E PUSH1 0x20 SHL PUSH1 0x20 SHR JUMP JUMPDEST PUSH3 0x116 PUSH1 0x20 SHL PUSH1 0x20 SHR JUMP JUMPDEST PUSH3 0x9E PUSH1 0x0 DUP1 SHL PUSH1 0x0 DUP1 SHL PUSH3 0x1EF PUSH1 0x20 SHL PUSH1 0x20 SHR JUMP JUMPDEST PUSH3 0xD3 PUSH32 0xFBDD29218E0FD410AA4914EA600F6E75B12C2B3D0A124CF98105F27E68E78F14 PUSH1 0x0 DUP1 SHL PUSH3 0x1EF PUSH1 0x20 SHL PUSH1 0x20 SHR JUMP JUMPDEST PUSH3 0x108 PUSH32 0xB15816D06D2F312E69CEDA9D92D111FBAAA18DDC93327DBB79CF2C4C8829D99B PUSH1 0x0 DUP1 SHL PUSH3 0x1EF PUSH1 0x20 SHL PUSH1 0x20 SHR JUMP JUMPDEST PUSH3 0x20D JUMP JUMPDEST PUSH1 0x0 CALLER SWAP1 POP SWAP1 JUMP JUMPDEST PUSH1 0x1 PUSH1 0x0 DUP1 DUP5 DUP2 MSTORE PUSH1 0x20 ADD SWAP1 DUP2 MSTORE PUSH1 0x20 ADD PUSH1 0x0 KECCAK256 PUSH1 0x0 ADD PUSH1 0x0 DUP4 PUSH20 0xFFFFFFFFFFFFFFFFFFFFFFFFFFFFFFFFFFFFFFFF AND PUSH20 0xFFFFFFFFFFFFFFFFFFFFFFFFFFFFFFFFFFFFFFFF AND DUP2 MSTORE PUSH1 0x20 ADD SWAP1 DUP2 MSTORE PUSH1 0x20 ADD PUSH1 0x0 KECCAK256 PUSH1 0x0 PUSH2 0x100 EXP DUP2 SLOAD DUP2 PUSH1 0xFF MUL NOT AND SWAP1 DUP4 ISZERO ISZERO MUL OR SWAP1 SSTORE POP PUSH3 0x191 PUSH3 0x10E PUSH1 0x20 SHL PUSH1 0x20 SHR JUMP JUMPDEST PUSH20 0xFFFFFFFFFFFFFFFFFFFFFFFFFFFFFFFFFFFFFFFF AND DUP2 PUSH20 0xFFFFFFFFFFFFFFFFFFFFFFFFFFFFFFFFFFFFFFFF AND DUP4 PUSH32 0x2F8788117E7EFF1D82E926EC794901D17C78024A50270940304540A733656F0D PUSH1 0x40 MLOAD PUSH1 0x40 MLOAD DUP1 SWAP2 SUB SWAP1 LOG4 POP POP JUMP JUMPDEST DUP1 PUSH1 0x0 DUP1 DUP5 DUP2 MSTORE PUSH1 0x20 ADD SWAP1 DUP2 MSTORE PUSH1 0x20 ADD PUSH1 0x0 KECCAK256 PUSH1 0x1 ADD DUP2 SWAP1 SSTORE POP POP POP JUMP JUMPDEST PUSH2 0x196B DUP1 PUSH3 0x21D PUSH1 0x0 CODECOPY PUSH1 0x0 RETURN INVALID PUSH1 0x80 PUSH1 0x40 MSTORE PUSH1 0x4 CALLDATASIZE LT PUSH2 0xFE JUMPI PUSH1 0x0 CALLDATALOAD PUSH1 0xE0 SHR DUP1 PUSH4 0x55161913 GT PUSH2 0x95 JUMPI DUP1 PUSH4 0xB721EF6E GT PUSH2 0x64 JUMPI DUP1 PUSH4 0xB721EF6E EQ PUSH2 0x324 JUMPI DUP1 PUSH4 0xD547741F EQ PUSH2 0x362 JUMPI DUP1 PUSH4 0xE9E25EC2 EQ PUSH2 0x38B JUMPI DUP1 PUSH4 0xFBDE538E EQ PUSH2 0x3B4 JUMPI DUP1 PUSH4 0xFFD4BA40 EQ PUSH2 0x3DF JUMPI PUSH2 0xFE JUMP JUMPDEST DUP1 PUSH4 0x55161913 EQ PUSH2 0x289 JUMPI DUP1 PUSH4 0x603A552E EQ PUSH2 0x293 JUMPI DUP1 PUSH4 0x7612997D EQ PUSH2 0x2BE JUMPI DUP1 PUSH4 0x91D14854 EQ PUSH2 0x2E7 JUMPI PUSH2 0xFE JUMP JUMPDEST DUP1 PUSH4 0x2F2FF15D GT PUSH2 0xD1 JUMPI DUP1 PUSH4 0x2F2FF15D EQ PUSH2 0x1CF JUMPI DUP1 PUSH4 0x36568ABE EQ PUSH2 0x1F8 JUMPI DUP1 PUSH4 0x3DCCF38C EQ PUSH2 0x221 JUMPI DUP1 PUSH4 0x4D547ADA EQ PUSH2 0x25E JUMPI PUSH2 0xFE JUMP JUMPDEST DUP1 PUSH4 0xFF9EBBE EQ PUSH2 0x103 JUMPI DUP1 PUSH4 0x154BE3B2 EQ PUSH2 0x12C JUMPI DUP1 PUSH4 0x248A9CA3 EQ PUSH2 0x155 JUMPI DUP1 PUSH4 0x2CC2548F EQ PUSH2 0x192 JUMPI JUMPDEST PUSH1 0x0 DUP1 REVERT JUMPDEST CALLVALUE DUP1 ISZERO PUSH2 0x10F JUMPI PUSH1 0x0 DUP1 REVERT JUMPDEST POP PUSH2 0x12A PUSH1 0x4 DUP1 CALLDATASIZE SUB DUP2 ADD SWAP1 PUSH2 0x125 SWAP2 SWAP1 PUSH2 0x11EF JUMP JUMPDEST PUSH2 0x41C JUMP JUMPDEST STOP JUMPDEST CALLVALUE DUP1 ISZERO PUSH2 0x138 JUMPI PUSH1 0x0 DUP1 REVERT JUMPDEST POP PUSH2 0x153 PUSH1 0x4 DUP1 CALLDATASIZE SUB DUP2 ADD SWAP1 PUSH2 0x14E SWAP2 SWAP1 PUSH2 0x11EF JUMP JUMPDEST PUSH2 0x670 JUMP JUMPDEST STOP JUMPDEST CALLVALUE DUP1 ISZERO PUSH2 0x161 JUMPI PUSH1 0x0 DUP1 REVERT JUMPDEST POP PUSH2 0x17C PUSH1 0x4 DUP1 CALLDATASIZE SUB DUP2 ADD SWAP1 PUSH2 0x177 SWAP2 SWAP1 PUSH2 0x124B JUMP JUMPDEST PUSH2 0x7F8 JUMP JUMPDEST PUSH1 0x40 MLOAD PUSH2 0x189 SWAP2 SWAP1 PUSH2 0x1287 JUMP JUMPDEST PUSH1 0x40 MLOAD DUP1 SWAP2 SUB SWAP1 RETURN JUMPDEST CALLVALUE DUP1 ISZERO PUSH2 0x19E JUMPI PUSH1 0x0 DUP1 REVERT JUMPDEST POP PUSH2 0x1B9 PUSH1 0x4 DUP1 CALLDATASIZE SUB DUP2 ADD SWAP1 PUSH2 0x1B4 SWAP2 SWAP1 PUSH2 0x12A2 JUMP JUMPDEST PUSH2 0x817 JUMP JUMPDEST PUSH1 0x40 MLOAD PUSH2 0x1C6 SWAP2 SWAP1 PUSH2 0x132C JUMP JUMPDEST PUSH1 0x40 MLOAD DUP1 SWAP2 SUB SWAP1 RETURN JUMPDEST CALLVALUE DUP1 ISZERO PUSH2 0x1DB JUMPI PUSH1 0x0 DUP1 REVERT JUMPDEST POP PUSH2 0x1F6 PUSH1 0x4 DUP1 CALLDATASIZE SUB DUP2 ADD SWAP1 PUSH2 0x1F1 SWAP2 SWAP1 PUSH2 0x1385 JUMP JUMPDEST PUSH2 0x860 JUMP JUMPDEST STOP JUMPDEST CALLVALUE DUP1 ISZERO PUSH2 0x204 JUMPI PUSH1 0x0 DUP1 REVERT JUMPDEST POP PUSH2 0x21F PUSH1 0x4 DUP1 CALLDATASIZE SUB DUP2 ADD SWAP1 PUSH2 0x21A SWAP2 SWAP1 PUSH2 0x1385 JUMP JUMPDEST PUSH2 0x881 JUMP JUMPDEST STOP JUMPDEST CALLVALUE DUP1 ISZERO PUSH2 0x22D JUMPI PUSH1 0x0 DUP1 REVERT JUMPDEST POP PUSH2 0x248 PUSH1 0x4 DUP1 CALLDATASIZE SUB DUP2 ADD SWAP1 PUSH2 0x243 SWAP2 SWAP1 PUSH2 0x13FB JUMP JUMPDEST PUSH2 0x8FB JUMP JUMPDEST PUSH1 0x40 MLOAD PUSH2 0x255 SWAP2 SWAP1 PUSH2 0x132C JUMP JUMPDEST PUSH1 0x40 MLOAD DUP1 SWAP2 SUB SWAP1 RETURN JUMPDEST CALLVALUE DUP1 ISZERO PUSH2 0x26A JUMPI PUSH1 0x0 DUP1 REVERT JUMPDEST POP PUSH2 0x273 PUSH2 0x93A JUMP JUMPDEST PUSH1 0x40 MLOAD PUSH2 0x280 SWAP2 SWAP1 PUSH2 0x1287 JUMP JUMPDEST PUSH1 0x40 MLOAD DUP1 SWAP2 SUB SWAP1 RETURN JUMPDEST PUSH2 0x291 PUSH2 0x95E JUMP JUMPDEST STOP JUMPDEST CALLVALUE DUP1 ISZERO PUSH2 0x29F JUMPI PUSH1 0x0 DUP1 REVERT JUMPDEST POP PUSH2 0x2A8 PUSH2 0xA10 JUMP JUMPDEST PUSH1 0x40 MLOAD PUSH2 0x2B5 SWAP2 SWAP1 PUSH2 0x1287 JUMP JUMPDEST PUSH1 0x40 MLOAD DUP1 SWAP2 SUB SWAP1 RETURN JUMPDEST CALLVALUE DUP1 ISZERO PUSH2 0x2CA JUMPI PUSH1 0x0 DUP1 REVERT JUMPDEST POP PUSH2 0x2E5 PUSH1 0x4 DUP1 CALLDATASIZE SUB DUP2 ADD SWAP1 PUSH2 0x2E0 SWAP2 SWAP1 PUSH2 0x1428 JUMP JUMPDEST PUSH2 0xA34 JUMP JUMPDEST STOP JUMPDEST CALLVALUE DUP1 ISZERO PUSH2 0x2F3 JUMPI PUSH1 0x0 DUP1 REVERT JUMPDEST POP PUSH2 0x30E PUSH1 0x4 DUP1 CALLDATASIZE SUB DUP2 ADD SWAP1 PUSH2 0x309 SWAP2 SWAP1 PUSH2 0x1385 JUMP JUMPDEST PUSH2 0xA8F JUMP JUMPDEST PUSH1 0x40 MLOAD PUSH2 0x31B SWAP2 SWAP1 PUSH2 0x1483 JUMP JUMPDEST PUSH1 0x40 MLOAD DUP1 SWAP2 SUB SWAP1 RETURN JUMPDEST CALLVALUE DUP1 ISZERO PUSH2 0x330 JUMPI PUSH1 0x0 DUP1 REVERT JUMPDEST POP PUSH2 0x34B PUSH1 0x4 DUP1 CALLDATASIZE SUB DUP2 ADD SWAP1 PUSH2 0x346 SWAP2 SWAP1 PUSH2 0x149E JUMP JUMPDEST PUSH2 0xAF9 JUMP JUMPDEST PUSH1 0x40 MLOAD PUSH2 0x359 SWAP3 SWAP2 SWAP1 PUSH2 0x14DA JUMP JUMPDEST PUSH1 0x40 MLOAD DUP1 SWAP2 SUB SWAP1 RETURN JUMPDEST CALLVALUE DUP1 ISZERO PUSH2 0x36E JUMPI PUSH1 0x0 DUP1 REVERT JUMPDEST POP PUSH2 0x389 PUSH1 0x4 DUP1 CALLDATASIZE SUB DUP2 ADD SWAP1 PUSH2 0x384 SWAP2 SWAP1 PUSH2 0x1385 JUMP JUMPDEST PUSH2 0xB1D JUMP JUMPDEST STOP JUMPDEST CALLVALUE DUP1 ISZERO PUSH2 0x397 JUMPI PUSH1 0x0 DUP1 REVERT JUMPDEST POP PUSH2 0x3B2 PUSH1 0x4 DUP1 CALLDATASIZE SUB DUP2 ADD SWAP1 PUSH2 0x3AD SWAP2 SWAP1 PUSH2 0x12A2 JUMP JUMPDEST PUSH2 0xB3E JUMP JUMPDEST STOP JUMPDEST CALLVALUE DUP1 ISZERO PUSH2 0x3C0 JUMPI PUSH1 0x0 DUP1 REVERT JUMPDEST POP PUSH2 0x3C9 PUSH2 0xBA5 JUMP JUMPDEST PUSH1 0x40 MLOAD PUSH2 0x3D6 SWAP2 SWAP1 PUSH2 0x1287 JUMP JUMPDEST PUSH1 0x40 MLOAD DUP1 SWAP2 SUB SWAP1 RETURN JUMPDEST CALLVALUE DUP1 ISZERO PUSH2 0x3EB JUMPI PUSH1 0x0 DUP1 REVERT JUMPDEST POP PUSH2 0x406 PUSH1 0x4 DUP1 CALLDATASIZE SUB DUP2 ADD SWAP1 PUSH2 0x401 SWAP2 SWAP1 PUSH2 0x124B JUMP JUMPDEST PUSH2 0xBAC JUMP JUMPDEST PUSH1 0x40 MLOAD PUSH2 0x413 SWAP2 SWAP1 PUSH2 0x15C1 JUMP JUMPDEST PUSH1 0x40 MLOAD DUP1 SWAP2 SUB SWAP1 RETURN JUMPDEST PUSH2 0x425 DUP3 PUSH2 0x7F8 JUMP JUMPDEST PUSH2 0x42E DUP2 PUSH2 0xD55 JUMP JUMPDEST PUSH1 0x0 PUSH1 0x5 DUP4 PUSH1 0x40 MLOAD PUSH2 0x440 SWAP2 SWAP1 PUSH2 0x1654 JUMP JUMPDEST SWAP1 DUP2 MSTORE PUSH1 0x20 ADD PUSH1 0x40 MLOAD DUP1 SWAP2 SUB SWAP1 KECCAK256 PUSH1 0x0 SWAP1 SLOAD SWAP1 PUSH2 0x100 EXP SWAP1 DIV PUSH20 0xFFFFFFFFFFFFFFFFFFFFFFFFFFFFFFFFFFFFFFFF AND SWAP1 POP PUSH1 0x0 PUSH1 0x4 PUSH1 0x0 DUP4 PUSH20 0xFFFFFFFFFFFFFFFFFFFFFFFFFFFFFFFFFFFFFFFF AND PUSH20 0xFFFFFFFFFFFFFFFFFFFFFFFFFFFFFFFFFFFFFFFF AND DUP2 MSTORE PUSH1 0x20 ADD SWAP1 DUP2 MSTORE PUSH1 0x20 ADD PUSH1 0x0 KECCAK256 SWAP1 POP PUSH1 0x0 DUP2 PUSH1 0x0 ADD SLOAD SUB PUSH2 0x4FB JUMPI PUSH1 0x40 MLOAD PUSH32 0x8C379A000000000000000000000000000000000000000000000000000000000 DUP2 MSTORE PUSH1 0x4 ADD PUSH2 0x4F2 SWAP1 PUSH2 0x16C8 JUMP JUMPDEST PUSH1 0x40 MLOAD DUP1 SWAP2 SUB SWAP1 REVERT JUMPDEST PUSH2 0x505 DUP6 DUP4 PUSH2 0xD69 JUMP JUMPDEST PUSH1 0x0 PUSH1 0x1 DUP3 PUSH1 0x0 ADD SLOAD PUSH2 0x518 SWAP2 SWAP1 PUSH2 0x1717 JUMP JUMPDEST SWAP1 POP PUSH1 0x0 PUSH1 0x3 PUSH1 0x1 PUSH1 0x3 DUP1 SLOAD SWAP1 POP PUSH2 0x530 SWAP2 SWAP1 PUSH2 0x1717 JUMP JUMPDEST DUP2 SLOAD DUP2 LT PUSH2 0x541 JUMPI PUSH2 0x540 PUSH2 0x174B JUMP JUMPDEST JUMPDEST SWAP1 PUSH1 0x0 MSTORE PUSH1 0x20 PUSH1 0x0 KECCAK256 ADD PUSH1 0x0 SWAP1 SLOAD SWAP1 PUSH2 0x100 EXP SWAP1 DIV PUSH20 0xFFFFFFFFFFFFFFFFFFFFFFFFFFFFFFFFFFFFFFFF AND SWAP1 POP DUP1 PUSH1 0x3 DUP4 DUP2 SLOAD DUP2 LT PUSH2 0x583 JUMPI PUSH2 0x582 PUSH2 0x174B JUMP JUMPDEST JUMPDEST SWAP1 PUSH1 0x0 MSTORE PUSH1 0x20 PUSH1 0x0 KECCAK256 ADD PUSH1 0x0 PUSH2 0x100 EXP DUP2 SLOAD DUP2 PUSH20 0xFFFFFFFFFFFFFFFFFFFFFFFFFFFFFFFFFFFFFFFF MUL NOT AND SWAP1 DUP4 PUSH20 0xFFFFFFFFFFFFFFFFFFFFFFFFFFFFFFFFFFFFFFFF AND MUL OR SWAP1 SSTORE POP DUP3 PUSH1 0x0 ADD SLOAD PUSH1 0x4 PUSH1 0x0 DUP4 PUSH20 0xFFFFFFFFFFFFFFFFFFFFFFFFFFFFFFFFFFFFFFFF AND PUSH20 0xFFFFFFFFFFFFFFFFFFFFFFFFFFFFFFFFFFFFFFFF AND DUP2 MSTORE PUSH1 0x20 ADD SWAP1 DUP2 MSTORE PUSH1 0x20 ADD PUSH1 0x0 KECCAK256 PUSH1 0x0 ADD DUP2 SWAP1 SSTORE POP PUSH1 0x3 DUP1 SLOAD DUP1 PUSH2 0x628 JUMPI PUSH2 0x627 PUSH2 0x177A JUMP JUMPDEST JUMPDEST PUSH1 0x1 SWAP1 SUB DUP2 DUP2 SWAP1 PUSH1 0x0 MSTORE PUSH1 0x20 PUSH1 0x0 KECCAK256 ADD PUSH1 0x0 PUSH2 0x100 EXP DUP2 SLOAD SWAP1 PUSH20 0xFFFFFFFFFFFFFFFFFFFFFFFFFFFFFFFFFFFFFFFF MUL NOT AND SWAP1 SSTORE SWAP1 SSTORE PUSH1 0x0 DUP4 PUSH1 0x0 ADD DUP2 SWAP1 SSTORE POP POP POP POP POP POP POP POP JUMP JUMPDEST PUSH2 0x679 DUP3 PUSH2 0x7F8 JUMP JUMPDEST PUSH2 0x682 DUP2 PUSH2 0xD55 JUMP JUMPDEST PUSH1 0x0 PUSH1 0x5 DUP4 PUSH1 0x40 MLOAD PUSH2 0x694 SWAP2 SWAP1 PUSH2 0x1654 JUMP JUMPDEST SWAP1 DUP2 MSTORE PUSH1 0x20 ADD PUSH1 0x40 MLOAD DUP1 SWAP2 SUB SWAP1 KECCAK256 PUSH1 0x0 SWAP1 SLOAD SWAP1 PUSH2 0x100 EXP SWAP1 DIV PUSH20 0xFFFFFFFFFFFFFFFFFFFFFFFFFFFFFFFFFFFFFFFF AND SWAP1 POP PUSH1 0x0 PUSH1 0x4 PUSH1 0x0 DUP4 PUSH20 0xFFFFFFFFFFFFFFFFFFFFFFFFFFFFFFFFFFFFFFFF AND PUSH20 0xFFFFFFFFFFFFFFFFFFFFFFFFFFFFFFFFFFFFFFFF AND DUP2 MSTORE PUSH1 0x20 ADD SWAP1 DUP2 MSTORE PUSH1 0x20 ADD PUSH1 0x0 KECCAK256 SWAP1 POP PUSH1 0x0 DUP2 PUSH1 0x0 ADD SLOAD EQ PUSH2 0x74F JUMPI PUSH1 0x40 MLOAD PUSH32 0x8C379A000000000000000000000000000000000000000000000000000000000 DUP2 MSTORE PUSH1 0x4 ADD PUSH2 0x746 SWAP1 PUSH2 0x17F5 JUMP JUMPDEST PUSH1 0x40 MLOAD DUP1 SWAP2 SUB SWAP1 REVERT JUMPDEST PUSH2 0x759 DUP6 DUP4 PUSH2 0xE4A JUMP JUMPDEST DUP5 DUP2 PUSH1 0x1 ADD DUP2 SWAP1 SSTORE POP PUSH1 0x3 DUP3 SWAP1 DUP1 PUSH1 0x1 DUP2 SLOAD ADD DUP1 DUP3 SSTORE DUP1 SWAP2 POP POP PUSH1 0x1 SWAP1 SUB SWAP1 PUSH1 0x0 MSTORE PUSH1 0x20 PUSH1 0x0 KECCAK256 ADD PUSH1 0x0 SWAP1 SWAP2 SWAP1 SWAP2 SWAP1 SWAP2 PUSH2 0x100 EXP DUP2 SLOAD DUP2 PUSH20 0xFFFFFFFFFFFFFFFFFFFFFFFFFFFFFFFFFFFFFFFF MUL NOT AND SWAP1 DUP4 PUSH20 0xFFFFFFFFFFFFFFFFFFFFFFFFFFFFFFFFFFFFFFFF AND MUL OR SWAP1 SSTORE POP PUSH1 0x0 PUSH1 0x1 PUSH1 0x3 DUP1 SLOAD SWAP1 POP PUSH2 0x7D9 SWAP2 SWAP1 PUSH2 0x1717 JUMP JUMPDEST SWAP1 POP PUSH1 0x1 DUP2 PUSH2 0x7E8 SWAP2 SWAP1 PUSH2 0x1815 JUMP JUMPDEST DUP3 PUSH1 0x0 ADD DUP2 SWAP1 SSTORE POP POP POP POP POP POP POP JUMP JUMPDEST PUSH1 0x0 DUP1 PUSH1 0x0 DUP4 DUP2 MSTORE PUSH1 0x20 ADD SWAP1 DUP2 MSTORE PUSH1 0x20 ADD PUSH1 0x0 KECCAK256 PUSH1 0x1 ADD SLOAD SWAP1 POP SWAP2 SWAP1 POP JUMP JUMPDEST PUSH1 0x5 DUP2 DUP1 MLOAD PUSH1 0x20 DUP2 ADD DUP3 ADD DUP1 MLOAD DUP5 DUP3 MSTORE PUSH1 0x20 DUP4 ADD PUSH1 0x20 DUP6 ADD KECCAK256 DUP2 DUP4 MSTORE DUP1 SWAP6 POP POP POP POP POP POP PUSH1 0x0 SWAP2 POP SLOAD SWAP1 PUSH2 0x100 EXP SWAP1 DIV PUSH20 0xFFFFFFFFFFFFFFFFFFFFFFFFFFFFFFFFFFFFFFFF AND DUP2 JUMP JUMPDEST PUSH2 0x869 DUP3 PUSH2 0x7F8 JUMP JUMPDEST PUSH2 0x872 DUP2 PUSH2 0xD55 JUMP JUMPDEST PUSH2 0x87C DUP4 DUP4 PUSH2 0xE4A JUMP JUMPDEST POP POP POP JUMP JUMPDEST PUSH2 0x889 PUSH2 0xF2A JUMP JUMPDEST PUSH20 0xFFFFFFFFFFFFFFFFFFFFFFFFFFFFFFFFFFFFFFFF AND DUP2 PUSH20 0xFFFFFFFFFFFFFFFFFFFFFFFFFFFFFFFFFFFFFFFF AND EQ PUSH2 0x8ED JUMPI PUSH1 0x40 MLOAD PUSH32 0x6697B23200000000000000000000000000000000000000000000000000000000 DUP2 MSTORE PUSH1 0x4 ADD PUSH1 0x40 MLOAD DUP1 SWAP2 SUB SWAP1 REVERT JUMPDEST PUSH2 0x8F7 DUP3 DUP3 PUSH2 0xD69 JUMP JUMPDEST POP POP JUMP JUMPDEST PUSH1 0x3 DUP2 DUP2 SLOAD DUP2 LT PUSH2 0x90B JUMPI PUSH1 0x0 DUP1 REVERT JUMPDEST SWAP1 PUSH1 0x0 MSTORE PUSH1 0x20 PUSH1 0x0 KECCAK256 ADD PUSH1 0x0 SWAP2 POP SLOAD SWAP1 PUSH2 0x100 EXP SWAP1 DIV PUSH20 0xFFFFFFFFFFFFFFFFFFFFFFFFFFFFFFFFFFFFFFFF AND DUP2 JUMP JUMPDEST PUSH32 0xFBDD29218E0FD410AA4914EA600F6E75B12C2B3D0A124CF98105F27E68E78F14 DUP2 JUMP JUMPDEST PUSH1 0x2 PUSH1 0x0 SWAP1 SLOAD SWAP1 PUSH2 0x100 EXP SWAP1 DIV PUSH20 0xFFFFFFFFFFFFFFFFFFFFFFFFFFFFFFFFFFFFFFFF AND PUSH20 0xFFFFFFFFFFFFFFFFFFFFFFFFFFFFFFFFFFFFFFFF AND PUSH2 0x99F PUSH2 0xF2A JUMP JUMPDEST PUSH20 0xFFFFFFFFFFFFFFFFFFFFFFFFFFFFFFFFFFFFFFFF AND EQ PUSH2 0x9F5 JUMPI PUSH1 0x40 MLOAD PUSH32 0x8C379A000000000000000000000000000000000000000000000000000000000 DUP2 MSTORE PUSH1 0x4 ADD PUSH2 0x9EC SWAP1 PUSH2 0x1895 JUMP JUMPDEST PUSH1 0x40 MLOAD DUP1 SWAP2 SUB SWAP1 REVERT JUMPDEST CALLVALUE PUSH1 0x1 PUSH1 0x0 DUP3 DUP3 SLOAD PUSH2 0xA07 SWAP2 SWAP1 PUSH2 0x1815 JUMP JUMPDEST SWAP3 POP POP DUP2 SWAP1 SSTORE POP JUMP JUMPDEST PUSH32 0xB15816D06D2F312E69CEDA9D92D111FBAAA18DDC93327DBB79CF2C4C8829D99B DUP2 JUMP JUMPDEST PUSH1 0x0 PUSH2 0xA3F DUP4 PUSH2 0x7F8 JUMP JUMPDEST SWAP1 POP DUP2 PUSH1 0x0 DUP1 DUP6 DUP2 MSTORE PUSH1 0x20 ADD SWAP1 DUP2 MSTORE PUSH1 0x20 ADD PUSH1 0x0 KECCAK256 PUSH1 0x1 ADD DUP2 SWAP1 SSTORE POP DUP2 DUP2 DUP5 PUSH32 0xBD79B86FFE0AB8E8776151514217CD7CACD52C909F66475C3AF44E129F0B00FF PUSH1 0x40 MLOAD PUSH1 0x40 MLOAD DUP1 SWAP2 SUB SWAP1 LOG4 POP POP POP JUMP JUMPDEST PUSH1 0x0 DUP1 PUSH1 0x0 DUP5 DUP2 MSTORE PUSH1 0x20 ADD SWAP1 DUP2 MSTORE PUSH1 0x20 ADD PUSH1 0x0 KECCAK256 PUSH1 0x0 ADD PUSH1 0x0 DUP4 PUSH20 0xFFFFFFFFFFFFFFFFFFFFFFFFFFFFFFFFFFFFFFFF AND PUSH20 0xFFFFFFFFFFFFFFFFFFFFFFFFFFFFFFFFFFFFFFFF AND DUP2 MSTORE PUSH1 0x20 ADD SWAP1 DUP2 MSTORE PUSH1 0x20 ADD PUSH1 0x0 KECCAK256 PUSH1 0x0 SWAP1 SLOAD SWAP1 PUSH2 0x100 EXP SWAP1 DIV PUSH1 0xFF AND SWAP1 POP SWAP3 SWAP2 POP POP JUMP JUMPDEST PUSH1 0x4 PUSH1 0x20 MSTORE DUP1 PUSH1 0x0 MSTORE PUSH1 0x40 PUSH1 0x0 KECCAK256 PUSH1 0x0 SWAP2 POP SWAP1 POP DUP1 PUSH1 0x0 ADD SLOAD SWAP1 DUP1 PUSH1 0x1 ADD SLOAD SWAP1 POP DUP3 JUMP JUMPDEST PUSH2 0xB26 DUP3 PUSH2 0x7F8 JUMP JUMPDEST PUSH2 0xB2F DUP2 PUSH2 0xD55 JUMP JUMPDEST PUSH2 0xB39 DUP4 DUP4 PUSH2 0xD69 JUMP JUMPDEST POP POP POP JUMP JUMPDEST PUSH2 0xB46 PUSH2 0xF2A JUMP JUMPDEST PUSH1 0x5 DUP3 PUSH1 0x40 MLOAD PUSH2 0xB56 SWAP2 SWAP1 PUSH2 0x1654 JUMP JUMPDEST SWAP1 DUP2 MSTORE PUSH1 0x20 ADD PUSH1 0x40 MLOAD DUP1 SWAP2 SUB SWAP1 KECCAK256 PUSH1 0x0 PUSH2 0x100 EXP DUP2 SLOAD DUP2 PUSH20 0xFFFFFFFFFFFFFFFFFFFFFFFFFFFFFFFFFFFFFFFF MUL NOT AND SWAP1 DUP4 PUSH20 0xFFFFFFFFFFFFFFFFFFFFFFFFFFFFFFFFFFFFFFFF AND MUL OR SWAP1 SSTORE POP POP JUMP JUMPDEST PUSH1 0x0 DUP1 SHL DUP2 JUMP JUMPDEST PUSH1 0x60 PUSH1 0x0 PUSH2 0xBB9 DUP4 PUSH2 0xF32 JUMP JUMPDEST SWAP1 POP PUSH1 0x0 DUP2 PUSH8 0xFFFFFFFFFFFFFFFF DUP2 GT ISZERO PUSH2 0xBD7 JUMPI PUSH2 0xBD6 PUSH2 0x10C4 JUMP JUMPDEST JUMPDEST PUSH1 0x40 MLOAD SWAP1 DUP1 DUP3 MSTORE DUP1 PUSH1 0x20 MUL PUSH1 0x20 ADD DUP3 ADD PUSH1 0x40 MSTORE DUP1 ISZERO PUSH2 0xC05 JUMPI DUP2 PUSH1 0x20 ADD PUSH1 0x20 DUP3 MUL DUP1 CALLDATASIZE DUP4 CALLDATACOPY DUP1 DUP3 ADD SWAP2 POP POP SWAP1 POP JUMPDEST POP SWAP1 POP PUSH1 0x0 JUMPDEST PUSH1 0x3 DUP1 SLOAD SWAP1 POP DUP2 GT PUSH2 0xD4A JUMPI PUSH1 0x0 PUSH1 0x4 PUSH1 0x0 PUSH1 0x3 DUP5 DUP2 SLOAD DUP2 LT PUSH2 0xC31 JUMPI PUSH2 0xC30 PUSH2 0x174B JUMP JUMPDEST JUMPDEST SWAP1 PUSH1 0x0 MSTORE PUSH1 0x20 PUSH1 0x0 KECCAK256 ADD PUSH1 0x0 SWAP1 SLOAD SWAP1 PUSH2 0x100 EXP SWAP1 DIV PUSH20 0xFFFFFFFFFFFFFFFFFFFFFFFFFFFFFFFFFFFFFFFF AND PUSH20 0xFFFFFFFFFFFFFFFFFFFFFFFFFFFFFFFFFFFFFFFF AND PUSH20 0xFFFFFFFFFFFFFFFFFFFFFFFFFFFFFFFFFFFFFFFF AND DUP2 MSTORE PUSH1 0x20 ADD SWAP1 DUP2 MSTORE PUSH1 0x20 ADD PUSH1 0x0 KECCAK256 SWAP1 POP PUSH1 0x0 DUP2 PUSH1 0x1 ADD SLOAD SWAP1 POP DUP7 DUP2 SUB PUSH2 0xD35 JUMPI PUSH1 0x3 DUP4 DUP2 SLOAD DUP2 LT PUSH2 0xCBC JUMPI PUSH2 0xCBB PUSH2 0x174B JUMP JUMPDEST JUMPDEST SWAP1 PUSH1 0x0 MSTORE PUSH1 0x20 PUSH1 0x0 KECCAK256 ADD PUSH1 0x0 SWAP1 SLOAD SWAP1 PUSH2 0x100 EXP SWAP1 DIV PUSH20 0xFFFFFFFFFFFFFFFFFFFFFFFFFFFFFFFFFFFFFFFF AND DUP5 DUP5 DUP2 MLOAD DUP2 LT PUSH2 0xCFA JUMPI PUSH2 0xCF9 PUSH2 0x174B JUMP JUMPDEST JUMPDEST PUSH1 0x20 MUL PUSH1 0x20 ADD ADD SWAP1 PUSH20 0xFFFFFFFFFFFFFFFFFFFFFFFFFFFFFFFFFFFFFFFF AND SWAP1 DUP2 PUSH20 0xFFFFFFFFFFFFFFFFFFFFFFFFFFFFFFFFFFFFFFFF AND DUP2 MSTORE POP POP JUMPDEST POP POP DUP1 DUP1 PUSH2 0xD42 SWAP1 PUSH2 0x18B5 JUMP JUMPDEST SWAP2 POP POP PUSH2 0xC0B JUMP JUMPDEST POP DUP1 SWAP3 POP POP POP SWAP2 SWAP1 POP JUMP JUMPDEST PUSH2 0xD66 DUP2 PUSH2 0xD61 PUSH2 0xF2A JUMP JUMPDEST PUSH2 0x1007 JUMP JUMPDEST POP JUMP JUMPDEST PUSH2 0xD73 DUP3 DUP3 PUSH2 0xA8F JUMP JUMPDEST ISZERO PUSH2 0xE46 JUMPI PUSH1 0x0 DUP1 PUSH1 0x0 DUP5 DUP2 MSTORE PUSH1 0x20 ADD SWAP1 DUP2 MSTORE PUSH1 0x20 ADD PUSH1 0x0 KECCAK256 PUSH1 0x0 ADD PUSH1 0x0 DUP4 PUSH20 0xFFFFFFFFFFFFFFFFFFFFFFFFFFFFFFFFFFFFFFFF AND PUSH20 0xFFFFFFFFFFFFFFFFFFFFFFFFFFFFFFFFFFFFFFFF AND DUP2 MSTORE PUSH1 0x20 ADD SWAP1 DUP2 MSTORE PUSH1 0x20 ADD PUSH1 0x0 KECCAK256 PUSH1 0x0 PUSH2 0x100 EXP DUP2 SLOAD DUP2 PUSH1 0xFF MUL NOT AND SWAP1 DUP4 ISZERO ISZERO MUL OR SWAP1 SSTORE POP PUSH2 0xDEB PUSH2 0xF2A JUMP JUMPDEST PUSH20 0xFFFFFFFFFFFFFFFFFFFFFFFFFFFFFFFFFFFFFFFF AND DUP2 PUSH20 0xFFFFFFFFFFFFFFFFFFFFFFFFFFFFFFFFFFFFFFFF AND DUP4 PUSH32 0xF6391F5C32D9C69D2A47EA670B442974B53935D1EDC7FD64EB21E047A839171B PUSH1 0x40 MLOAD PUSH1 0x40 MLOAD DUP1 SWAP2 SUB SWAP1 LOG4 JUMPDEST POP POP JUMP JUMPDEST PUSH2 0xE54 DUP3 DUP3 PUSH2 0xA8F JUMP JUMPDEST PUSH2 0xF26 JUMPI PUSH1 0x1 PUSH1 0x0 DUP1 DUP5 DUP2 MSTORE PUSH1 0x20 ADD SWAP1 DUP2 MSTORE PUSH1 0x20 ADD PUSH1 0x0 KECCAK256 PUSH1 0x0 ADD PUSH1 0x0 DUP4 PUSH20 0xFFFFFFFFFFFFFFFFFFFFFFFFFFFFFFFFFFFFFFFF AND PUSH20 0xFFFFFFFFFFFFFFFFFFFFFFFFFFFFFFFFFFFFFFFF AND DUP2 MSTORE PUSH1 0x20 ADD SWAP1 DUP2 MSTORE PUSH1 0x20 ADD PUSH1 0x0 KECCAK256 PUSH1 0x0 PUSH2 0x100 EXP DUP2 SLOAD DUP2 PUSH1 0xFF MUL NOT AND SWAP1 DUP4 ISZERO ISZERO MUL OR SWAP1 SSTORE POP PUSH2 0xECB PUSH2 0xF2A JUMP JUMPDEST PUSH20 0xFFFFFFFFFFFFFFFFFFFFFFFFFFFFFFFFFFFFFFFF AND DUP2 PUSH20 0xFFFFFFFFFFFFFFFFFFFFFFFFFFFFFFFFFFFFFFFF AND DUP4 PUSH32 0x2F8788117E7EFF1D82E926EC794901D17C78024A50270940304540A733656F0D PUSH1 0x40 MLOAD PUSH1 0x40 MLOAD DUP1 SWAP2 SUB SWAP1 LOG4 JUMPDEST POP POP JUMP JUMPDEST PUSH1 0x0 CALLER SWAP1 POP SWAP1 JUMP JUMPDEST PUSH1 0x0 DUP1 PUSH1 0x0 SWAP1 POP PUSH1 0x0 JUMPDEST PUSH1 0x3 DUP1 SLOAD SWAP1 POP DUP2 GT PUSH2 0xFFD JUMPI PUSH1 0x0 PUSH1 0x4 PUSH1 0x0 PUSH1 0x3 DUP5 DUP2 SLOAD DUP2 LT PUSH2 0xF62 JUMPI PUSH2 0xF61 PUSH2 0x174B JUMP JUMPDEST JUMPDEST SWAP1 PUSH1 0x0 MSTORE PUSH1 0x20 PUSH1 0x0 KECCAK256 ADD PUSH1 0x0 SWAP1 SLOAD SWAP1 PUSH2 0x100 EXP SWAP1 DIV PUSH20 0xFFFFFFFFFFFFFFFFFFFFFFFFFFFFFFFFFFFFFFFF AND PUSH20 0xFFFFFFFFFFFFFFFFFFFFFFFFFFFFFFFFFFFFFFFF AND PUSH20 0xFFFFFFFFFFFFFFFFFFFFFFFFFFFFFFFFFFFFFFFF AND DUP2 MSTORE PUSH1 0x20 ADD SWAP1 DUP2 MSTORE PUSH1 0x20 ADD PUSH1 0x0 KECCAK256 SWAP1 POP PUSH1 0x0 DUP2 PUSH1 0x1 ADD SLOAD SWAP1 POP DUP6 DUP2 SUB PUSH2 0xFE8 JUMPI DUP4 DUP1 PUSH2 0xFE4 SWAP1 PUSH2 0x18B5 JUMP JUMPDEST SWAP5 POP POP JUMPDEST POP POP DUP1 DUP1 PUSH2 0xFF5 SWAP1 PUSH2 0x18B5 JUMP JUMPDEST SWAP2 POP POP PUSH2 0xF3C JUMP JUMPDEST POP DUP1 SWAP2 POP POP SWAP2 SWAP1 POP JUMP JUMPDEST PUSH1 0x0 ISZERO ISZERO PUSH2 0x1015 DUP4 DUP4 PUSH2 0xA8F JUMP JUMPDEST ISZERO ISZERO SUB PUSH2 0x105B JUMPI DUP1 DUP3 PUSH1 0x40 MLOAD PUSH32 0xE2517D3F00000000000000000000000000000000000000000000000000000000 DUP2 MSTORE PUSH1 0x4 ADD PUSH2 0x1052 SWAP3 SWAP2 SWAP1 PUSH2 0x190C JUMP JUMPDEST PUSH1 0x40 MLOAD DUP1 SWAP2 SUB SWAP1 REVERT JUMPDEST POP POP JUMP JUMPDEST PUSH1 0x0 PUSH1 0x40 MLOAD SWAP1 POP SWAP1 JUMP JUMPDEST PUSH1 0x0 DUP1 REVERT JUMPDEST PUSH1 0x0 DUP1 REVERT JUMPDEST PUSH1 0x0 DUP2 SWAP1 POP SWAP2 SWAP1 POP JUMP JUMPDEST PUSH2 0x1086 DUP2 PUSH2 0x1073 JUMP JUMPDEST DUP2 EQ PUSH2 0x1091 JUMPI PUSH1 0x0 DUP1 REVERT JUMPDEST POP JUMP JUMPDEST PUSH1 0x0 DUP2 CALLDATALOAD SWAP1 POP PUSH2 0x10A3 DUP2 PUSH2 0x107D JUMP JUMPDEST SWAP3 SWAP2 POP POP JUMP JUMPDEST PUSH1 0x0 DUP1 REVERT JUMPDEST PUSH1 0x0 DUP1 REVERT JUMPDEST PUSH1 0x0 PUSH1 0x1F NOT PUSH1 0x1F DUP4 ADD AND SWAP1 POP SWAP2 SWAP1 POP JUMP JUMPDEST PUSH32 0x4E487B7100000000000000000000000000000000000000000000000000000000 PUSH1 0x0 MSTORE PUSH1 0x41 PUSH1 0x4 MSTORE PUSH1 0x24 PUSH1 0x0 REVERT JUMPDEST PUSH2 0x10FC DUP3 PUSH2 0x10B3 JUMP JUMPDEST DUP2 ADD DUP2 DUP2 LT PUSH8 0xFFFFFFFFFFFFFFFF DUP3 GT OR ISZERO PUSH2 0x111B JUMPI PUSH2 0x111A PUSH2 0x10C4 JUMP JUMPDEST JUMPDEST DUP1 PUSH1 0x40 MSTORE POP POP POP JUMP JUMPDEST PUSH1 0x0 PUSH2 0x112E PUSH2 0x105F JUMP JUMPDEST SWAP1 POP PUSH2 0x113A DUP3 DUP3 PUSH2 0x10F3 JUMP JUMPDEST SWAP2 SWAP1 POP JUMP JUMPDEST PUSH1 0x0 PUSH8 0xFFFFFFFFFFFFFFFF DUP3 GT ISZERO PUSH2 0x115A JUMPI PUSH2 0x1159 PUSH2 0x10C4 JUMP JUMPDEST JUMPDEST PUSH2 0x1163 DUP3 PUSH2 0x10B3 JUMP JUMPDEST SWAP1 POP PUSH1 0x20 DUP2 ADD SWAP1 POP SWAP2 SWAP1 POP JUMP JUMPDEST DUP3 DUP2 DUP4 CALLDATACOPY PUSH1 0x0 DUP4 DUP4 ADD MSTORE POP POP POP JUMP JUMPDEST PUSH1 0x0 PUSH2 0x1192 PUSH2 0x118D DUP5 PUSH2 0x113F JUMP JUMPDEST PUSH2 0x1124 JUMP JUMPDEST SWAP1 POP DUP3 DUP2 MSTORE PUSH1 0x20 DUP2 ADD DUP5 DUP5 DUP5 ADD GT ISZERO PUSH2 0x11AE JUMPI PUSH2 0x11AD PUSH2 0x10AE JUMP JUMPDEST JUMPDEST PUSH2 0x11B9 DUP5 DUP3 DUP6 PUSH2 0x1170 JUMP JUMPDEST POP SWAP4 SWAP3 POP POP POP JUMP JUMPDEST PUSH1 0x0 DUP3 PUSH1 0x1F DUP4 ADD SLT PUSH2 0x11D6 JUMPI PUSH2 0x11D5 PUSH2 0x10A9 JUMP JUMPDEST JUMPDEST DUP2 CALLDATALOAD PUSH2 0x11E6 DUP5 DUP3 PUSH1 0x20 DUP7 ADD PUSH2 0x117F JUMP JUMPDEST SWAP2 POP POP SWAP3 SWAP2 POP POP JUMP JUMPDEST PUSH1 0x0 DUP1 PUSH1 0x40 DUP4 DUP6 SUB SLT ISZERO PUSH2 0x1206 JUMPI PUSH2 0x1205 PUSH2 0x1069 JUMP JUMPDEST JUMPDEST PUSH1 0x0 PUSH2 0x1214 DUP6 DUP3 DUP7 ADD PUSH2 0x1094 JUMP JUMPDEST SWAP3 POP POP PUSH1 0x20 DUP4 ADD CALLDATALOAD PUSH8 0xFFFFFFFFFFFFFFFF DUP2 GT ISZERO PUSH2 0x1235 JUMPI PUSH2 0x1234 PUSH2 0x106E JUMP JUMPDEST JUMPDEST PUSH2 0x1241 DUP6 DUP3 DUP7 ADD PUSH2 0x11C1 JUMP JUMPDEST SWAP2 POP POP SWAP3 POP SWAP3 SWAP1 POP JUMP JUMPDEST PUSH1 0x0 PUSH1 0x20 DUP3 DUP5 SUB SLT ISZERO PUSH2 0x1261 JUMPI PUSH2 0x1260 PUSH2 0x1069 JUMP JUMPDEST JUMPDEST PUSH1 0x0 PUSH2 0x126F DUP5 DUP3 DUP6 ADD PUSH2 0x1094 JUMP JUMPDEST SWAP2 POP POP SWAP3 SWAP2 POP POP JUMP JUMPDEST PUSH2 0x1281 DUP2 PUSH2 0x1073 JUMP JUMPDEST DUP3 MSTORE POP POP JUMP JUMPDEST PUSH1 0x0 PUSH1 0x20 DUP3 ADD SWAP1 POP PUSH2 0x129C PUSH1 0x0 DUP4 ADD DUP5 PUSH2 0x1278 JUMP JUMPDEST SWAP3 SWAP2 POP POP JUMP JUMPDEST PUSH1 0x0 PUSH1 0x20 DUP3 DUP5 SUB SLT ISZERO PUSH2 0x12B8 JUMPI PUSH2 0x12B7 PUSH2 0x1069 JUMP JUMPDEST JUMPDEST PUSH1 0x0 DUP3 ADD CALLDATALOAD PUSH8 0xFFFFFFFFFFFFFFFF DUP2 GT ISZERO PUSH2 0x12D6 JUMPI PUSH2 0x12D5 PUSH2 0x106E JUMP JUMPDEST JUMPDEST PUSH2 0x12E2 DUP5 DUP3 DUP6 ADD PUSH2 0x11C1 JUMP JUMPDEST SWAP2 POP POP SWAP3 SWAP2 POP POP JUMP JUMPDEST PUSH1 0x0 PUSH20 0xFFFFFFFFFFFFFFFFFFFFFFFFFFFFFFFFFFFFFFFF DUP3 AND SWAP1 POP SWAP2 SWAP1 POP JUMP JUMPDEST PUSH1 0x0 PUSH2 0x1316 DUP3 PUSH2 0x12EB JUMP JUMPDEST SWAP1 POP SWAP2 SWAP1 POP JUMP JUMPDEST PUSH2 0x1326 DUP2 PUSH2 0x130B JUMP JUMPDEST DUP3 MSTORE POP POP JUMP JUMPDEST PUSH1 0x0 PUSH1 0x20 DUP3 ADD SWAP1 POP PUSH2 0x1341 PUSH1 0x0 DUP4 ADD DUP5 PUSH2 0x131D JUMP JUMPDEST SWAP3 SWAP2 POP POP JUMP JUMPDEST PUSH1 0x0 PUSH2 0x1352 DUP3 PUSH2 0x12EB JUMP JUMPDEST SWAP1 POP SWAP2 SWAP1 POP JUMP JUMPDEST PUSH2 0x1362 DUP2 PUSH2 0x1347 JUMP JUMPDEST DUP2 EQ PUSH2 0x136D JUMPI PUSH1 0x0 DUP1 REVERT JUMPDEST POP JUMP JUMPDEST PUSH1 0x0 DUP2 CALLDATALOAD SWAP1 POP PUSH2 0x137F DUP2 PUSH2 0x1359 JUMP JUMPDEST SWAP3 SWAP2 POP POP JUMP JUMPDEST PUSH1 0x0 DUP1 PUSH1 0x40 DUP4 DUP6 SUB SLT ISZERO PUSH2 0x139C JUMPI PUSH2 0x139B PUSH2 0x1069 JUMP JUMPDEST JUMPDEST PUSH1 0x0 PUSH2 0x13AA DUP6 DUP3 DUP7 ADD PUSH2 0x1094 JUMP JUMPDEST SWAP3 POP POP PUSH1 0x20 PUSH2 0x13BB DUP6 DUP3 DUP7 ADD PUSH2 0x1370 JUMP JUMPDEST SWAP2 POP POP SWAP3 POP SWAP3 SWAP1 POP JUMP JUMPDEST PUSH1 0x0 DUP2 SWAP1 POP SWAP2 SWAP1 POP JUMP JUMPDEST PUSH2 0x13D8 DUP2 PUSH2 0x13C5 JUMP JUMPDEST DUP2 EQ PUSH2 0x13E3 JUMPI PUSH1 0x0 DUP1 REVERT JUMPDEST POP JUMP JUMPDEST PUSH1 0x0 DUP2 CALLDATALOAD SWAP1 POP PUSH2 0x13F5 DUP2 PUSH2 0x13CF JUMP JUMPDEST SWAP3 SWAP2 POP POP JUMP JUMPDEST PUSH1 0x0 PUSH1 0x20 DUP3 DUP5 SUB SLT ISZERO PUSH2 0x1411 JUMPI PUSH2 0x1410 PUSH2 0x1069 JUMP JUMPDEST JUMPDEST PUSH1 0x0 PUSH2 0x141F DUP5 DUP3 DUP6 ADD PUSH2 0x13E6 JUMP JUMPDEST SWAP2 POP POP SWAP3 SWAP2 POP POP JUMP JUMPDEST PUSH1 0x0 DUP1 PUSH1 0x40 DUP4 DUP6 SUB SLT ISZERO PUSH2 0x143F JUMPI PUSH2 0x143E PUSH2 0x1069 JUMP JUMPDEST JUMPDEST PUSH1 0x0 PUSH2 0x144D DUP6 DUP3 DUP7 ADD PUSH2 0x1094 JUMP JUMPDEST SWAP3 POP POP PUSH1 0x20 PUSH2 0x145E DUP6 DUP3 DUP7 ADD PUSH2 0x1094 JUMP JUMPDEST SWAP2 POP POP SWAP3 POP SWAP3 SWAP1 POP JUMP JUMPDEST PUSH1 0x0 DUP2 ISZERO ISZERO SWAP1 POP SWAP2 SWAP1 POP JUMP JUMPDEST PUSH2 0x147D DUP2 PUSH2 0x1468 JUMP JUMPDEST DUP3 MSTORE POP POP JUMP JUMPDEST PUSH1 0x0 PUSH1 0x20 DUP3 ADD SWAP1 POP PUSH2 0x1498 PUSH1 0x0 DUP4 ADD DUP5 PUSH2 0x1474 JUMP JUMPDEST SWAP3 SWAP2 POP POP JUMP JUMPDEST PUSH1 0x0 PUSH1 0x20 DUP3 DUP5 SUB SLT ISZERO PUSH2 0x14B4 JUMPI PUSH2 0x14B3 PUSH2 0x1069 JUMP JUMPDEST JUMPDEST PUSH1 0x0 PUSH2 0x14C2 DUP5 DUP3 DUP6 ADD PUSH2 0x1370 JUMP JUMPDEST SWAP2 POP POP SWAP3 SWAP2 POP POP JUMP JUMPDEST PUSH2 0x14D4 DUP2 PUSH2 0x13C5 JUMP JUMPDEST DUP3 MSTORE POP POP JUMP JUMPDEST PUSH1 0x0 PUSH1 0x40 DUP3 ADD SWAP1 POP PUSH2 0x14EF PUSH1 0x0 DUP4 ADD DUP6 PUSH2 0x14CB JUMP JUMPDEST PUSH2 0x14FC PUSH1 0x20 DUP4 ADD DUP5 PUSH2 0x1278 JUMP JUMPDEST SWAP4 SWAP3 POP POP POP JUMP JUMPDEST PUSH1 0x0 DUP2 MLOAD SWAP1 POP SWAP2 SWAP1 POP JUMP JUMPDEST PUSH1 0x0 DUP3 DUP3 MSTORE PUSH1 0x20 DUP3 ADD SWAP1 POP SWAP3 SWAP2 POP POP JUMP JUMPDEST PUSH1 0x0 DUP2 SWAP1 POP PUSH1 0x20 DUP3 ADD SWAP1 POP SWAP2 SWAP1 POP JUMP JUMPDEST PUSH2 0x1538 DUP2 PUSH2 0x130B JUMP JUMPDEST DUP3 MSTORE POP POP JUMP JUMPDEST PUSH1 0x0 PUSH2 0x154A DUP4 DUP4 PUSH2 0x152F JUMP JUMPDEST PUSH1 0x20 DUP4 ADD SWAP1 POP SWAP3 SWAP2 POP POP JUMP JUMPDEST PUSH1 0x0 PUSH1 0x20 DUP3 ADD SWAP1 POP SWAP2 SWAP1 POP JUMP JUMPDEST PUSH1 0x0 PUSH2 0x156E DUP3 PUSH2 0x1503 JUMP JUMPDEST PUSH2 0x1578 DUP2 DUP6 PUSH2 0x150E JUMP JUMPDEST SWAP4 POP PUSH2 0x1583 DUP4 PUSH2 0x151F JUMP JUMPDEST DUP1 PUSH1 0x0 JUMPDEST DUP4 DUP2 LT ISZERO PUSH2 0x15B4 JUMPI DUP2 MLOAD PUSH2 0x159B DUP9 DUP3 PUSH2 0x153E JUMP JUMPDEST SWAP8 POP PUSH2 0x15A6 DUP4 PUSH2 0x1556 JUMP JUMPDEST SWAP3 POP POP PUSH1 0x1 DUP2 ADD SWAP1 POP PUSH2 0x1587 JUMP JUMPDEST POP DUP6 SWAP4 POP POP POP POP SWAP3 SWAP2 POP POP JUMP JUMPDEST PUSH1 0x0 PUSH1 0x20 DUP3 ADD SWAP1 POP DUP2 DUP2 SUB PUSH1 0x0 DUP4 ADD MSTORE PUSH2 0x15DB DUP2 DUP5 PUSH2 0x1563 JUMP JUMPDEST SWAP1 POP SWAP3 SWAP2 POP POP JUMP JUMPDEST PUSH1 0x0 DUP2 MLOAD SWAP1 POP SWAP2 SWAP1 POP JUMP JUMPDEST PUSH1 0x0 DUP2 SWAP1 POP SWAP3 SWAP2 POP POP JUMP JUMPDEST PUSH1 0x0 JUMPDEST DUP4 DUP2 LT ISZERO PUSH2 0x1617 JUMPI DUP1 DUP3 ADD MLOAD DUP2 DUP5 ADD MSTORE PUSH1 0x20 DUP2 ADD SWAP1 POP PUSH2 0x15FC JUMP JUMPDEST PUSH1 0x0 DUP5 DUP5 ADD MSTORE POP POP POP POP JUMP JUMPDEST PUSH1 0x0 PUSH2 0x162E DUP3 PUSH2 0x15E3 JUMP JUMPDEST PUSH2 0x1638 DUP2 DUP6 PUSH2 0x15EE JUMP JUMPDEST SWAP4 POP PUSH2 0x1648 DUP2 DUP6 PUSH1 0x20 DUP7 ADD PUSH2 0x15F9 JUMP JUMPDEST DUP1 DUP5 ADD SWAP2 POP POP SWAP3 SWAP2 POP POP JUMP JUMPDEST PUSH1 0x0 PUSH2 0x1660 DUP3 DUP5 PUSH2 0x1623 JUMP JUMPDEST SWAP2 POP DUP2 SWAP1 POP SWAP3 SWAP2 POP POP JUMP JUMPDEST PUSH1 0x0 DUP3 DUP3 MSTORE PUSH1 0x20 DUP3 ADD SWAP1 POP SWAP3 SWAP2 POP POP JUMP JUMPDEST PUSH32 0x54686973206163636F756E7420646F6573206E6F742065786973740000000000 PUSH1 0x0 DUP3 ADD MSTORE POP JUMP JUMPDEST PUSH1 0x0 PUSH2 0x16B2 PUSH1 0x1B DUP4 PUSH2 0x166B JUMP JUMPDEST SWAP2 POP PUSH2 0x16BD DUP3 PUSH2 0x167C JUMP JUMPDEST PUSH1 0x20 DUP3 ADD SWAP1 POP SWAP2 SWAP1 POP JUMP JUMPDEST PUSH1 0x0 PUSH1 0x20 DUP3 ADD SWAP1 POP DUP2 DUP2 SUB PUSH1 0x0 DUP4 ADD MSTORE PUSH2 0x16E1 DUP2 PUSH2 0x16A5 JUMP JUMPDEST SWAP1 POP SWAP2 SWAP1 POP JUMP JUMPDEST PUSH32 0x4E487B7100000000000000000000000000000000000000000000000000000000 PUSH1 0x0 MSTORE PUSH1 0x11 PUSH1 0x4 MSTORE PUSH1 0x24 PUSH1 0x0 REVERT JUMPDEST PUSH1 0x0 PUSH2 0x1722 DUP3 PUSH2 0x13C5 JUMP JUMPDEST SWAP2 POP PUSH2 0x172D DUP4 PUSH2 0x13C5 JUMP JUMPDEST SWAP3 POP DUP3 DUP3 SUB SWAP1 POP DUP2 DUP2 GT ISZERO PUSH2 0x1745 JUMPI PUSH2 0x1744 PUSH2 0x16E8 JUMP JUMPDEST JUMPDEST SWAP3 SWAP2 POP POP JUMP JUMPDEST PUSH32 0x4E487B7100000000000000000000000000000000000000000000000000000000 PUSH1 0x0 MSTORE PUSH1 0x32 PUSH1 0x4 MSTORE PUSH1 0x24 PUSH1 0x0 REVERT JUMPDEST PUSH32 0x4E487B7100000000000000000000000000000000000000000000000000000000 PUSH1 0x0 MSTORE PUSH1 0x31 PUSH1 0x4 MSTORE PUSH1 0x24 PUSH1 0x0 REVERT JUMPDEST PUSH32 0x54686973206163636F756E7420616C7265616479206578697374730000000000 PUSH1 0x0 DUP3 ADD MSTORE POP JUMP JUMPDEST PUSH1 0x0 PUSH2 0x17DF PUSH1 0x1B DUP4 PUSH2 0x166B JUMP JUMPDEST SWAP2 POP PUSH2 0x17EA DUP3 PUSH2 0x17A9 JUMP JUMPDEST PUSH1 0x20 DUP3 ADD SWAP1 POP SWAP2 SWAP1 POP JUMP JUMPDEST PUSH1 0x0 PUSH1 0x20 DUP3 ADD SWAP1 POP DUP2 DUP2 SUB PUSH1 0x0 DUP4 ADD MSTORE PUSH2 0x180E DUP2 PUSH2 0x17D2 JUMP JUMPDEST SWAP1 POP SWAP2 SWAP1 POP JUMP JUMPDEST PUSH1 0x0 PUSH2 0x1820 DUP3 PUSH2 0x13C5 JUMP JUMPDEST SWAP2 POP PUSH2 0x182B DUP4 PUSH2 0x13C5 JUMP JUMPDEST SWAP3 POP DUP3 DUP3 ADD SWAP1 POP DUP1 DUP3 GT ISZERO PUSH2 0x1843 JUMPI PUSH2 0x1842 PUSH2 0x16E8 JUMP JUMPDEST JUMPDEST SWAP3 SWAP2 POP POP JUMP JUMPDEST PUSH32 0x4163636573732044656E69656400000000000000000000000000000000000000 PUSH1 0x0 DUP3 ADD MSTORE POP JUMP JUMPDEST PUSH1 0x0 PUSH2 0x187F PUSH1 0xD DUP4 PUSH2 0x166B JUMP JUMPDEST SWAP2 POP PUSH2 0x188A DUP3 PUSH2 0x1849 JUMP JUMPDEST PUSH1 0x20 DUP3 ADD SWAP1 POP SWAP2 SWAP1 POP JUMP JUMPDEST PUSH1 0x0 PUSH1 0x20 DUP3 ADD SWAP1 POP DUP2 DUP2 SUB PUSH1 0x0 DUP4 ADD MSTORE PUSH2 0x18AE DUP2 PUSH2 0x1872 JUMP JUMPDEST SWAP1 POP SWAP2 SWAP1 POP JUMP JUMPDEST PUSH1 0x0 PUSH2 0x18C0 DUP3 PUSH2 0x13C5 JUMP JUMPDEST SWAP2 POP PUSH32 0xFFFFFFFFFFFFFFFFFFFFFFFFFFFFFFFFFFFFFFFFFFFFFFFFFFFFFFFFFFFFFFFF DUP3 SUB PUSH2 0x18F2 JUMPI PUSH2 0x18F1 PUSH2 0x16E8 JUMP JUMPDEST JUMPDEST PUSH1 0x1 DUP3 ADD SWAP1 POP SWAP2 SWAP1 POP JUMP JUMPDEST PUSH2 0x1906 DUP2 PUSH2 0x1347 JUMP JUMPDEST DUP3 MSTORE POP POP JUMP JUMPDEST PUSH1 0x0 PUSH1 0x40 DUP3 ADD SWAP1 POP PUSH2 0x1921 PUSH1 0x0 DUP4 ADD DUP6 PUSH2 0x18FD JUMP JUMPDEST PUSH2 0x192E PUSH1 0x20 DUP4 ADD DUP5 PUSH2 0x1278 JUMP JUMPDEST SWAP4 SWAP3 POP POP POP JUMP INVALID LOG2 PUSH5 0x6970667358 0x22 SLT KECCAK256 MOD NUMBER 0x4A 0xFB 0xDE 0xBA 0xF9 MLOAD PUSH31 0xBBA5B7576170D6FACB4BCA576CCED4ECE67D3F3799BDE464736F6C63430008 SLT STOP CALLER "
				},
				"gasEstimates": {
					"creation": {
						"codeDepositCost": "1301400",
						"executionCost": "infinite",
						"totalCost": "infinite"
					},
					"external": {
						"Default_Admin_Role()": "423",
						"_emplist(uint256)": "5023",
						"_setRoleAdmin(bytes32,bytes32)": "infinite",
						"addEmployee(bytes32,string)": "infinite",
						"addrs(string)": "infinite",
						"addyourdata(string)": "infinite",
						"charge()": "infinite",
						"engineer()": "374",
						"getRoleAdmin(bytes32)": "infinite",
						"grantRole(bytes32,address)": "infinite",
						"hasRole(bytes32,address)": "3229",
						"map(address)": "5062",
						"removeEmployee(bytes32,string)": "infinite",
						"renounceRole(bytes32,address)": "infinite",
						"revokeRole(bytes32,address)": "infinite",
						"roleArray(bytes32)": "infinite",
						"worker()": "418"
					},
					"internal": {
						"countRole(bytes32)": "infinite"
					}
				},
				"methodIdentifiers": {
					"Default_Admin_Role()": "fbde538e",
					"_emplist(uint256)": "3dccf38c",
					"_setRoleAdmin(bytes32,bytes32)": "7612997d",
					"addEmployee(bytes32,string)": "154be3b2",
					"addrs(string)": "2cc2548f",
					"addyourdata(string)": "e9e25ec2",
					"charge()": "55161913",
					"engineer()": "603a552e",
					"getRoleAdmin(bytes32)": "248a9ca3",
					"grantRole(bytes32,address)": "2f2ff15d",
					"hasRole(bytes32,address)": "91d14854",
					"map(address)": "b721ef6e",
					"removeEmployee(bytes32,string)": "0ff9ebbe",
					"renounceRole(bytes32,address)": "36568abe",
					"revokeRole(bytes32,address)": "d547741f",
					"roleArray(bytes32)": "ffd4ba40",
					"worker()": "4d547ada"
				}
			},
			"storageLayout": {
				"storage": [
					{
						"astId": 19,
						"contract": "MultiSend.sol:MultiSend",
						"label": "_roles",
						"offset": 0,
						"slot": "0",
						"type": "t_mapping(t_bytes32,t_struct(RoleData)14_storage)"
					},
					{
						"astId": 389,
						"contract": "MultiSend.sol:MultiSend",
						"label": "ContractBalance",
						"offset": 0,
						"slot": "1",
						"type": "t_uint256"
					},
					{
						"astId": 391,
						"contract": "MultiSend.sol:MultiSend",
						"label": "owner",
						"offset": 0,
						"slot": "2",
						"type": "t_address"
					},
					{
						"astId": 394,
						"contract": "MultiSend.sol:MultiSend",
						"label": "_emplist",
						"offset": 0,
						"slot": "3",
						"type": "t_array(t_address_payable)dyn_storage"
					},
					{
						"astId": 399,
						"contract": "MultiSend.sol:MultiSend",
						"label": "map",
						"offset": 0,
						"slot": "4",
						"type": "t_mapping(t_address,t_struct(Data)387_storage)"
					},
					{
						"astId": 403,
						"contract": "MultiSend.sol:MultiSend",
						"label": "addrs",
						"offset": 0,
						"slot": "5",
						"type": "t_mapping(t_string_memory_ptr,t_address_payable)"
					}
				],
				"types": {
					"t_address": {
						"encoding": "inplace",
						"label": "address",
						"numberOfBytes": "20"
					},
					"t_address_payable": {
						"encoding": "inplace",
						"label": "address payable",
						"numberOfBytes": "20"
					},
					"t_array(t_address_payable)dyn_storage": {
						"base": "t_address_payable",
						"encoding": "dynamic_array",
						"label": "address payable[]",
						"numberOfBytes": "32"
					},
					"t_bool": {
						"encoding": "inplace",
						"label": "bool",
						"numberOfBytes": "1"
					},
					"t_bytes32": {
						"encoding": "inplace",
						"label": "bytes32",
						"numberOfBytes": "32"
					},
					"t_mapping(t_address,t_bool)": {
						"encoding": "mapping",
						"key": "t_address",
						"label": "mapping(address => bool)",
						"numberOfBytes": "32",
						"value": "t_bool"
					},
					"t_mapping(t_address,t_struct(Data)387_storage)": {
						"encoding": "mapping",
						"key": "t_address",
						"label": "mapping(address => struct MultiSend.Data)",
						"numberOfBytes": "32",
						"value": "t_struct(Data)387_storage"
					},
					"t_mapping(t_bytes32,t_struct(RoleData)14_storage)": {
						"encoding": "mapping",
						"key": "t_bytes32",
						"label": "mapping(bytes32 => struct AccessControl.RoleData)",
						"numberOfBytes": "32",
						"value": "t_struct(RoleData)14_storage"
					},
					"t_mapping(t_string_memory_ptr,t_address_payable)": {
						"encoding": "mapping",
						"key": "t_string_memory_ptr",
						"label": "mapping(string => address payable)",
						"numberOfBytes": "32",
						"value": "t_address_payable"
					},
					"t_string_memory_ptr": {
						"encoding": "bytes",
						"label": "string",
						"numberOfBytes": "32"
					},
					"t_struct(Data)387_storage": {
						"encoding": "inplace",
						"label": "struct MultiSend.Data",
						"members": [
							{
								"astId": 384,
								"contract": "MultiSend.sol:MultiSend",
								"label": "index",
								"offset": 0,
								"slot": "0",
								"type": "t_uint256"
							},
							{
								"astId": 386,
								"contract": "MultiSend.sol:MultiSend",
								"label": "role",
								"offset": 0,
								"slot": "1",
								"type": "t_bytes32"
							}
						],
						"numberOfBytes": "64"
					},
					"t_struct(RoleData)14_storage": {
						"encoding": "inplace",
						"label": "struct AccessControl.RoleData",
						"members": [
							{
								"astId": 11,
								"contract": "MultiSend.sol:MultiSend",
								"label": "members",
								"offset": 0,
								"slot": "0",
								"type": "t_mapping(t_address,t_bool)"
							},
							{
								"astId": 13,
								"contract": "MultiSend.sol:MultiSend",
								"label": "adminRole",
								"offset": 0,
								"slot": "1",
								"type": "t_bytes32"
							}
						],
						"numberOfBytes": "64"
					},
					"t_uint256": {
						"encoding": "inplace",
						"label": "uint256",
						"numberOfBytes": "32"
					}
				}
			},
			"userdoc": {
				"kind": "user",
				"methods": {},
				"version": 1
			}
		}
	}
}